{
	"contracts/KipuBank.sol": {
		"KipuBank": {
			"abi": [
				{
					"inputs": [
						{
							"internalType": "uint128",
							"name": "_banckCap",
							"type": "uint128"
						}
					],
					"stateMutability": "nonpayable",
					"type": "constructor"
				},
				{
					"inputs": [
						{
							"internalType": "address",
							"name": "to",
							"type": "address"
						},
						{
							"internalType": "uint256",
							"name": "amount",
							"type": "uint256"
						}
					],
					"name": "DepositNotAllowed",
					"type": "error"
				},
				{
					"inputs": [
						{
							"internalType": "address",
							"name": "to",
							"type": "address"
						},
						{
							"internalType": "uint256",
							"name": "amount",
							"type": "uint256"
						}
					],
					"name": "ExtractionNotAllowed",
					"type": "error"
				},
				{
					"inputs": [
						{
							"internalType": "address",
							"name": "to",
							"type": "address"
						},
						{
							"internalType": "uint256",
							"name": "amount",
							"type": "uint256"
						},
						{
							"internalType": "bytes",
							"name": "errorData",
							"type": "bytes"
						}
					],
					"name": "ExtractionReverted",
					"type": "error"
				},
				{
					"anonymous": false,
					"inputs": [
						{
							"indexed": false,
							"internalType": "address",
							"name": "from",
							"type": "address"
						},
						{
							"indexed": false,
							"internalType": "uint256",
							"name": "amount",
							"type": "uint256"
						}
					],
					"name": "DepositRequest",
					"type": "event"
				},
				{
					"anonymous": false,
					"inputs": [
						{
							"indexed": false,
							"internalType": "address",
							"name": "from",
							"type": "address"
						},
						{
							"indexed": false,
							"internalType": "uint256",
							"name": "amount",
							"type": "uint256"
						}
					],
					"name": "Deposited",
					"type": "event"
				},
				{
					"anonymous": false,
					"inputs": [
						{
							"indexed": false,
							"internalType": "address",
							"name": "to",
							"type": "address"
						},
						{
							"indexed": false,
							"internalType": "uint256",
							"name": "amount",
							"type": "uint256"
						}
					],
					"name": "Extracted",
					"type": "event"
				},
				{
					"anonymous": false,
					"inputs": [
						{
							"indexed": false,
							"internalType": "address",
							"name": "to",
							"type": "address"
						},
						{
							"indexed": false,
							"internalType": "uint256",
							"name": "amount",
							"type": "uint256"
						}
					],
					"name": "ExtractionRequest",
					"type": "event"
				},
				{
					"inputs": [],
					"name": "deposit",
					"outputs": [],
					"stateMutability": "payable",
					"type": "function"
				},
				{
					"inputs": [],
					"name": "getBalance",
					"outputs": [
						{
							"internalType": "uint256",
							"name": "balance_",
							"type": "uint256"
						}
					],
					"stateMutability": "view",
					"type": "function"
				},
				{
					"inputs": [
						{
							"internalType": "address",
							"name": "user",
							"type": "address"
						}
					],
					"name": "getBalance",
					"outputs": [
						{
							"internalType": "uint256",
							"name": "balance_",
							"type": "uint256"
						}
					],
					"stateMutability": "view",
					"type": "function"
				},
				{
					"inputs": [],
					"name": "getDeposits",
					"outputs": [
						{
							"internalType": "uint256",
							"name": "deposits_",
							"type": "uint256"
						}
					],
					"stateMutability": "view",
					"type": "function"
				},
				{
					"inputs": [
						{
							"internalType": "address",
							"name": "user",
							"type": "address"
						}
					],
					"name": "getDeposits",
					"outputs": [
						{
							"internalType": "uint256",
							"name": "deposits_",
							"type": "uint256"
						}
					],
					"stateMutability": "view",
					"type": "function"
				},
				{
					"inputs": [
						{
							"internalType": "address",
							"name": "user",
							"type": "address"
						}
					],
					"name": "getWithdrawals",
					"outputs": [
						{
							"internalType": "uint256",
							"name": "withdrawals_",
							"type": "uint256"
						}
					],
					"stateMutability": "view",
					"type": "function"
				},
				{
					"inputs": [],
					"name": "getWithdrawals",
					"outputs": [
						{
							"internalType": "uint256",
							"name": "withdrawals_",
							"type": "uint256"
						}
					],
					"stateMutability": "view",
					"type": "function"
				},
				{
					"inputs": [],
					"name": "s_bankCap",
					"outputs": [
						{
							"internalType": "uint128",
							"name": "",
							"type": "uint128"
						}
					],
					"stateMutability": "view",
					"type": "function"
				},
				{
					"inputs": [],
					"name": "s_withdrawLimit",
					"outputs": [
						{
							"internalType": "uint128",
							"name": "",
							"type": "uint128"
						}
					],
					"stateMutability": "view",
					"type": "function"
				},
				{
					"inputs": [
						{
							"internalType": "uint256",
							"name": "amount",
							"type": "uint256"
						}
					],
					"name": "withdraw",
					"outputs": [],
					"stateMutability": "nonpayable",
					"type": "function"
				}
			],
			"devdoc": {
				"author": "Erik Borgnia",
				"kind": "dev",
				"methods": {
					"getBalance(address)": {
						"details": "Esta función garantiza que toda la información es auditable"
					},
					"getDeposits(address)": {
						"details": "Esta función garantiza que toda la información es auditable"
					},
					"getWithdrawals(address)": {
						"details": "Esta función garantiza que toda la información es auditable"
					},
					"withdraw(uint256)": {
						"details": "Sólo se puede depositar un valor mayor a 0, siempre que no se supere el bankCap",
						"params": {
							"amount": "Cantidad que se quiere extraer. Debe ser <= al balance y al límite de extracción"
						}
					}
				},
				"title": "KipuBank",
				"version": 1
			},
			"evm": {
				"assembly": "    /* \"contracts/KipuBank.sol\":190:5234  contract KipuBank{... */\n  mstore(0x40, 0xc0)\n    /* \"contracts/KipuBank.sol\":744:758  10000000000000 */\n  0x09184e72a000\n    /* \"contracts/KipuBank.sol\":701:758  uint128 public immutable s_withdrawLimit = 10000000000000 */\n  0xffffffffffffffffffffffffffffffff\n  and\n  0xa0\n  swap1\n  0xffffffffffffffffffffffffffffffff\n  and\n  dup2\n  mstore\n  pop\n    /* \"contracts/KipuBank.sol\":1716:1787  constructor(uint128 _banckCap) {... */\n  callvalue\n  dup1\n  iszero\n  tag_1\n  jumpi\n  revert(0x00, 0x00)\ntag_1:\n  pop\n  mload(0x40)\n  sub(codesize, bytecodeSize)\n  dup1\n  bytecodeSize\n  dup4\n  codecopy\n  dup2\n  dup2\n  add\n  0x40\n  mstore\n  dup2\n  add\n  swap1\n  tag_2\n  swap2\n  swap1\n  tag_3\n  jump\t// in\ntag_2:\n    /* \"contracts/KipuBank.sol\":1770:1779  _banckCap */\n  dup1\n    /* \"contracts/KipuBank.sol\":1758:1779  s_bankCap = _banckCap */\n  0xffffffffffffffffffffffffffffffff\n  and\n  0x80\n  dup2\n  0xffffffffffffffffffffffffffffffff\n  and\n  dup2\n  mstore\n  pop\n  pop\n    /* \"contracts/KipuBank.sol\":1716:1787  constructor(uint128 _banckCap) {... */\n  pop\n    /* \"contracts/KipuBank.sol\":190:5234  contract KipuBank{... */\n  jump(tag_6)\n    /* \"#utility.yul\":88:205   */\ntag_8:\n    /* \"#utility.yul\":197:198   */\n  0x00\n    /* \"#utility.yul\":194:195   */\n  0x00\n    /* \"#utility.yul\":187:199   */\n  revert\n    /* \"#utility.yul\":334:452   */\ntag_10:\n    /* \"#utility.yul\":371:378   */\n  0x00\n    /* \"#utility.yul\":411:445   */\n  0xffffffffffffffffffffffffffffffff\n    /* \"#utility.yul\":404:409   */\n  dup3\n    /* \"#utility.yul\":400:446   */\n  and\n    /* \"#utility.yul\":389:446   */\n  swap1\n  pop\n    /* \"#utility.yul\":334:452   */\n  swap2\n  swap1\n  pop\n  jump\t// out\n    /* \"#utility.yul\":458:580   */\ntag_11:\n    /* \"#utility.yul\":531:555   */\n  tag_19\n    /* \"#utility.yul\":549:554   */\n  dup2\n    /* \"#utility.yul\":531:555   */\n  tag_10\n  jump\t// in\ntag_19:\n    /* \"#utility.yul\":524:529   */\n  dup2\n    /* \"#utility.yul\":521:556   */\n  eq\n    /* \"#utility.yul\":511:574   */\n  tag_20\n  jumpi\n    /* \"#utility.yul\":570:571   */\n  0x00\n    /* \"#utility.yul\":567:568   */\n  0x00\n    /* \"#utility.yul\":560:572   */\n  revert\n    /* \"#utility.yul\":511:574   */\ntag_20:\n    /* \"#utility.yul\":458:580   */\n  pop\n  jump\t// out\n    /* \"#utility.yul\":586:729   */\ntag_12:\n    /* \"#utility.yul\":643:648   */\n  0x00\n    /* \"#utility.yul\":674:680   */\n  dup2\n    /* \"#utility.yul\":668:681   */\n  mload\n    /* \"#utility.yul\":659:681   */\n  swap1\n  pop\n    /* \"#utility.yul\":690:723   */\n  tag_22\n    /* \"#utility.yul\":717:722   */\n  dup2\n    /* \"#utility.yul\":690:723   */\n  tag_11\n  jump\t// in\ntag_22:\n    /* \"#utility.yul\":586:729   */\n  swap3\n  swap2\n  pop\n  pop\n  jump\t// out\n    /* \"#utility.yul\":735:1086   */\ntag_3:\n    /* \"#utility.yul\":805:811   */\n  0x00\n    /* \"#utility.yul\":854:856   */\n  0x20\n    /* \"#utility.yul\":842:851   */\n  dup3\n    /* \"#utility.yul\":833:840   */\n  dup5\n    /* \"#utility.yul\":829:852   */\n  sub\n    /* \"#utility.yul\":825:857   */\n  slt\n    /* \"#utility.yul\":822:941   */\n  iszero\n  tag_24\n  jumpi\n    /* \"#utility.yul\":860:939   */\n  tag_25\n  tag_8\n  jump\t// in\ntag_25:\n    /* \"#utility.yul\":822:941   */\ntag_24:\n    /* \"#utility.yul\":980:981   */\n  0x00\n    /* \"#utility.yul\":1005:1069   */\n  tag_26\n    /* \"#utility.yul\":1061:1068   */\n  dup5\n    /* \"#utility.yul\":1052:1058   */\n  dup3\n    /* \"#utility.yul\":1041:1050   */\n  dup6\n    /* \"#utility.yul\":1037:1059   */\n  add\n    /* \"#utility.yul\":1005:1069   */\n  tag_12\n  jump\t// in\ntag_26:\n    /* \"#utility.yul\":995:1069   */\n  swap2\n  pop\n    /* \"#utility.yul\":951:1079   */\n  pop\n    /* \"#utility.yul\":735:1086   */\n  swap3\n  swap2\n  pop\n  pop\n  jump\t// out\n    /* \"contracts/KipuBank.sol\":190:5234  contract KipuBank{... */\ntag_6:\n  mload(0x80)\n  mload(0xa0)\n  codecopy(0x00, dataOffset(sub_0), dataSize(sub_0))\n  0x00\n  assignImmutable(\"0x939eb54753ed0cc7e2272bfb34cbe098308c93936ed54d79078f76ade0b2e789\")\n  0x00\n  assignImmutable(\"0x277ab82e5a4641341820a4a2933a62c1de997e42e92548657ae21b3728d580fe\")\n  return(0x00, dataSize(sub_0))\nstop\n\nsub_0: assembly {\n        /* \"contracts/KipuBank.sol\":190:5234  contract KipuBank{... */\n      mstore(0x40, 0x80)\n      jumpi(tag_1, lt(calldatasize, 0x04))\n      shr(0xe0, calldataload(0x00))\n      dup1\n      0x7f86ee43\n      gt\n      tag_12\n      jumpi\n      dup1\n      0x7f86ee43\n      eq\n      tag_7\n      jumpi\n      dup1\n      0x80ef10ed\n      eq\n      tag_8\n      jumpi\n      dup1\n      0x94f649dd\n      eq\n      tag_9\n      jumpi\n      dup1\n      0xd0e30db0\n      eq\n      tag_10\n      jumpi\n      dup1\n      0xf8b2cb4f\n      eq\n      tag_11\n      jumpi\n      jump(tag_1)\n    tag_12:\n      dup1\n      0x12065fe0\n      eq\n      tag_2\n      jumpi\n      dup1\n      0x2e1a7d4d\n      eq\n      tag_3\n      jumpi\n      dup1\n      0x3a2b643a\n      eq\n      tag_4\n      jumpi\n      dup1\n      0x50d6c1e8\n      eq\n      tag_5\n      jumpi\n      dup1\n      0x6b149d87\n      eq\n      tag_6\n      jumpi\n    tag_1:\n      revert(0x00, 0x00)\n        /* \"contracts/KipuBank.sol\":2473:2584  function getBalance() external view returns(uint balance_) {... */\n    tag_2:\n      callvalue\n      dup1\n      iszero\n      tag_13\n      jumpi\n      revert(0x00, 0x00)\n    tag_13:\n      pop\n      tag_14\n      tag_15\n      jump\t// in\n    tag_14:\n      mload(0x40)\n      tag_16\n      swap2\n      swap1\n      tag_17\n      jump\t// in\n    tag_16:\n      mload(0x40)\n      dup1\n      swap2\n      sub\n      swap1\n      return\n        /* \"contracts/KipuBank.sol\":4239:4787  function withdraw(uint amount) public {... */\n    tag_3:\n      callvalue\n      dup1\n      iszero\n      tag_18\n      jumpi\n      revert(0x00, 0x00)\n    tag_18:\n      pop\n      tag_19\n      0x04\n      dup1\n      calldatasize\n      sub\n      dup2\n      add\n      swap1\n      tag_20\n      swap2\n      swap1\n      tag_21\n      jump\t// in\n    tag_20:\n      tag_22\n      jump\t// in\n    tag_19:\n      stop\n        /* \"contracts/KipuBank.sol\":3834:3966  function getWithdrawals(address user) external view returns(uint withdrawals_) {... */\n    tag_4:\n      callvalue\n      dup1\n      iszero\n      tag_23\n      jumpi\n      revert(0x00, 0x00)\n    tag_23:\n      pop\n      tag_24\n      0x04\n      dup1\n      calldatasize\n      sub\n      dup2\n      add\n      swap1\n      tag_25\n      swap2\n      swap1\n      tag_26\n      jump\t// in\n    tag_25:\n      tag_27\n      jump\t// in\n    tag_24:\n      mload(0x40)\n      tag_28\n      swap2\n      swap1\n      tag_17\n      jump\t// in\n    tag_28:\n      mload(0x40)\n      dup1\n      swap2\n      sub\n      swap1\n      return\n        /* \"contracts/KipuBank.sol\":2914:3040  function getWithdrawals() external view returns(uint withdrawals_) {... */\n    tag_5:\n      callvalue\n      dup1\n      iszero\n      tag_29\n      jumpi\n      revert(0x00, 0x00)\n    tag_29:\n      pop\n      tag_30\n      tag_31\n      jump\t// in\n    tag_30:\n      mload(0x40)\n      tag_32\n      swap2\n      swap1\n      tag_17\n      jump\t// in\n    tag_32:\n      mload(0x40)\n      dup1\n      swap2\n      sub\n      swap1\n      return\n        /* \"contracts/KipuBank.sol\":2691:2805  function getDeposits() external view returns(uint deposits_) {... */\n    tag_6:\n      callvalue\n      dup1\n      iszero\n      tag_33\n      jumpi\n      revert(0x00, 0x00)\n    tag_33:\n      pop\n      tag_34\n      tag_35\n      jump\t// in\n    tag_34:\n      mload(0x40)\n      tag_36\n      swap2\n      swap1\n      tag_17\n      jump\t// in\n    tag_36:\n      mload(0x40)\n      dup1\n      swap2\n      sub\n      swap1\n      return\n        /* \"contracts/KipuBank.sol\":701:758  uint128 public immutable s_withdrawLimit = 10000000000000 */\n    tag_7:\n      callvalue\n      dup1\n      iszero\n      tag_37\n      jumpi\n      revert(0x00, 0x00)\n    tag_37:\n      pop\n      tag_38\n      tag_39\n      jump\t// in\n    tag_38:\n      mload(0x40)\n      tag_40\n      swap2\n      swap1\n      tag_41\n      jump\t// in\n    tag_40:\n      mload(0x40)\n      dup1\n      swap2\n      sub\n      swap1\n      return\n        /* \"contracts/KipuBank.sol\":660:694  uint128 public immutable s_bankCap */\n    tag_8:\n      callvalue\n      dup1\n      iszero\n      tag_42\n      jumpi\n      revert(0x00, 0x00)\n    tag_42:\n      pop\n      tag_43\n      tag_44\n      jump\t// in\n    tag_43:\n      mload(0x40)\n      tag_45\n      swap2\n      swap1\n      tag_41\n      jump\t// in\n    tag_45:\n      mload(0x40)\n      dup1\n      swap2\n      sub\n      swap1\n      return\n        /* \"contracts/KipuBank.sol\":3523:3643  function getDeposits(address user) external view returns(uint deposits_) {... */\n    tag_9:\n      callvalue\n      dup1\n      iszero\n      tag_46\n      jumpi\n      revert(0x00, 0x00)\n    tag_46:\n      pop\n      tag_47\n      0x04\n      dup1\n      calldatasize\n      sub\n      dup2\n      add\n      swap1\n      tag_48\n      swap2\n      swap1\n      tag_26\n      jump\t// in\n    tag_48:\n      tag_49\n      jump\t// in\n    tag_47:\n      mload(0x40)\n      tag_50\n      swap2\n      swap1\n      tag_17\n      jump\t// in\n    tag_50:\n      mload(0x40)\n      dup1\n      swap2\n      sub\n      swap1\n      return\n        /* \"contracts/KipuBank.sol\":1956:2372  function deposit() public payable {... */\n    tag_10:\n      tag_51\n      tag_52\n      jump\t// in\n    tag_51:\n      stop\n        /* \"contracts/KipuBank.sol\":3217:3334  function getBalance(address user) external view returns(uint balance_) {... */\n    tag_11:\n      callvalue\n      dup1\n      iszero\n      tag_53\n      jumpi\n      revert(0x00, 0x00)\n    tag_53:\n      pop\n      tag_54\n      0x04\n      dup1\n      calldatasize\n      sub\n      dup2\n      add\n      swap1\n      tag_55\n      swap2\n      swap1\n      tag_26\n      jump\t// in\n    tag_55:\n      tag_56\n      jump\t// in\n    tag_54:\n      mload(0x40)\n      tag_57\n      swap2\n      swap1\n      tag_17\n      jump\t// in\n    tag_57:\n      mload(0x40)\n      dup1\n      swap2\n      sub\n      swap1\n      return\n        /* \"contracts/KipuBank.sol\":2473:2584  function getBalance() external view returns(uint balance_) {... */\n    tag_15:\n        /* \"contracts/KipuBank.sol\":2517:2530  uint balance_ */\n      0x00\n        /* \"contracts/KipuBank.sol\":2554:2564  s_balances */\n      0x00\n        /* \"contracts/KipuBank.sol\":2554:2576  s_balances[msg.sender] */\n      0x00\n        /* \"contracts/KipuBank.sol\":2565:2575  msg.sender */\n      caller\n        /* \"contracts/KipuBank.sol\":2554:2576  s_balances[msg.sender] */\n      0xffffffffffffffffffffffffffffffffffffffff\n      and\n      0xffffffffffffffffffffffffffffffffffffffff\n      and\n      dup2\n      mstore\n      0x20\n      add\n      swap1\n      dup2\n      mstore\n      0x20\n      add\n      0x00\n      keccak256\n      sload\n        /* \"contracts/KipuBank.sol\":2543:2576  balance_ = s_balances[msg.sender] */\n      swap1\n      pop\n        /* \"contracts/KipuBank.sol\":2473:2584  function getBalance() external view returns(uint balance_) {... */\n      swap1\n      jump\t// out\n        /* \"contracts/KipuBank.sol\":4239:4787  function withdraw(uint amount) public {... */\n    tag_22:\n        /* \"contracts/KipuBank.sol\":4293:4330  ExtractionRequest(msg.sender, amount) */\n      0x3175035b120f22d7e7407b9f06f080ef0dbba46bb02a00e41a7b070b43cc8db9\n        /* \"contracts/KipuBank.sol\":4311:4321  msg.sender */\n      caller\n        /* \"contracts/KipuBank.sol\":4323:4329  amount */\n      dup3\n        /* \"contracts/KipuBank.sol\":4293:4330  ExtractionRequest(msg.sender, amount) */\n      mload(0x40)\n      tag_60\n      swap3\n      swap2\n      swap1\n      tag_61\n      jump\t// in\n    tag_60:\n      mload(0x40)\n      dup1\n      swap2\n      sub\n      swap1\n      log1\n        /* \"contracts/KipuBank.sol\":4358:4359  0 */\n      0x00\n        /* \"contracts/KipuBank.sol\":4349:4355  amount */\n      dup2\n        /* \"contracts/KipuBank.sol\":4349:4359  amount > 0 */\n      gt\n        /* \"contracts/KipuBank.sol\":4382:4392  msg.sender */\n      caller\n        /* \"contracts/KipuBank.sol\":4394:4400  amount */\n      dup3\n        /* \"contracts/KipuBank.sol\":4341:4402  require(amount > 0, ExtractionNotAllowed(msg.sender, amount)) */\n      swap1\n      swap2\n      tag_62\n      jumpi\n      mload(0x40)\n      0xf607410700000000000000000000000000000000000000000000000000000000\n      dup2\n      mstore\n      0x04\n      add\n      tag_63\n      swap3\n      swap2\n      swap1\n      tag_61\n      jump\t// in\n    tag_63:\n      mload(0x40)\n      dup1\n      swap2\n      sub\n      swap1\n      revert\n    tag_62:\n      pop\n      pop\n        /* \"contracts/KipuBank.sol\":4431:4441  s_balances */\n      0x00\n        /* \"contracts/KipuBank.sol\":4431:4453  s_balances[msg.sender] */\n      0x00\n        /* \"contracts/KipuBank.sol\":4442:4452  msg.sender */\n      caller\n        /* \"contracts/KipuBank.sol\":4431:4453  s_balances[msg.sender] */\n      0xffffffffffffffffffffffffffffffffffffffff\n      and\n      0xffffffffffffffffffffffffffffffffffffffff\n      and\n      dup2\n      mstore\n      0x20\n      add\n      swap1\n      dup2\n      mstore\n      0x20\n      add\n      0x00\n      keccak256\n      sload\n        /* \"contracts/KipuBank.sol\":4421:4427  amount */\n      dup2\n        /* \"contracts/KipuBank.sol\":4421:4453  amount <= s_balances[msg.sender] */\n      gt\n      iszero\n        /* \"contracts/KipuBank.sol\":4476:4486  msg.sender */\n      caller\n        /* \"contracts/KipuBank.sol\":4488:4494  amount */\n      dup3\n        /* \"contracts/KipuBank.sol\":4413:4496  require(amount <= s_balances[msg.sender], ExtractionNotAllowed(msg.sender, amount)) */\n      swap1\n      swap2\n      tag_64\n      jumpi\n      mload(0x40)\n      0xf607410700000000000000000000000000000000000000000000000000000000\n      dup2\n      mstore\n      0x04\n      add\n      tag_65\n      swap3\n      swap2\n      swap1\n      tag_61\n      jump\t// in\n    tag_65:\n      mload(0x40)\n      dup1\n      swap2\n      sub\n      swap1\n      revert\n    tag_64:\n      pop\n      pop\n        /* \"contracts/KipuBank.sol\":4525:4540  s_withdrawLimit */\n      immutable(\"0x939eb54753ed0cc7e2272bfb34cbe098308c93936ed54d79078f76ade0b2e789\")\n        /* \"contracts/KipuBank.sol\":4515:4540  amount <= s_withdrawLimit */\n      0xffffffffffffffffffffffffffffffff\n      and\n        /* \"contracts/KipuBank.sol\":4515:4521  amount */\n      dup2\n        /* \"contracts/KipuBank.sol\":4515:4540  amount <= s_withdrawLimit */\n      gt\n      iszero\n        /* \"contracts/KipuBank.sol\":4563:4573  msg.sender */\n      caller\n        /* \"contracts/KipuBank.sol\":4575:4581  amount */\n      dup3\n        /* \"contracts/KipuBank.sol\":4507:4583  require(amount <= s_withdrawLimit, ExtractionNotAllowed(msg.sender, amount)) */\n      swap1\n      swap2\n      tag_66\n      jumpi\n      mload(0x40)\n      0xf607410700000000000000000000000000000000000000000000000000000000\n      dup2\n      mstore\n      0x04\n      add\n      tag_67\n      swap3\n      swap2\n      swap1\n      tag_61\n      jump\t// in\n    tag_67:\n      mload(0x40)\n      dup1\n      swap2\n      sub\n      swap1\n      revert\n    tag_66:\n      pop\n      pop\n        /* \"contracts/KipuBank.sol\":4604:4625  transferFunds(amount) */\n      tag_68\n        /* \"contracts/KipuBank.sol\":4618:4624  amount */\n      dup2\n        /* \"contracts/KipuBank.sol\":4604:4617  transferFunds */\n      tag_69\n        /* \"contracts/KipuBank.sol\":4604:4625  transferFunds(amount) */\n      jump\t// in\n    tag_68:\n        /* \"contracts/KipuBank.sol\":4672:4678  amount */\n      dup1\n        /* \"contracts/KipuBank.sol\":4646:4656  s_balances */\n      0x00\n        /* \"contracts/KipuBank.sol\":4646:4668  s_balances[msg.sender] */\n      0x00\n        /* \"contracts/KipuBank.sol\":4657:4667  msg.sender */\n      caller\n        /* \"contracts/KipuBank.sol\":4646:4668  s_balances[msg.sender] */\n      0xffffffffffffffffffffffffffffffffffffffff\n      and\n      0xffffffffffffffffffffffffffffffffffffffff\n      and\n      dup2\n      mstore\n      0x20\n      add\n      swap1\n      dup2\n      mstore\n      0x20\n      add\n      0x00\n      keccak256\n      0x00\n        /* \"contracts/KipuBank.sol\":4646:4678  s_balances[msg.sender] -= amount */\n      dup3\n      dup3\n      sload\n      tag_70\n      swap2\n      swap1\n      tag_71\n      jump\t// in\n    tag_70:\n      swap3\n      pop\n      pop\n      dup2\n      swap1\n      sstore\n      pop\n        /* \"contracts/KipuBank.sol\":4689:4702  s_withdrawals */\n      0x02\n        /* \"contracts/KipuBank.sol\":4689:4714  s_withdrawals[msg.sender] */\n      0x00\n        /* \"contracts/KipuBank.sol\":4703:4713  msg.sender */\n      caller\n        /* \"contracts/KipuBank.sol\":4689:4714  s_withdrawals[msg.sender] */\n      0xffffffffffffffffffffffffffffffffffffffff\n      and\n      0xffffffffffffffffffffffffffffffffffffffff\n      and\n      dup2\n      mstore\n      0x20\n      add\n      swap1\n      dup2\n      mstore\n      0x20\n      add\n      0x00\n      keccak256\n      0x00\n        /* \"contracts/KipuBank.sol\":4689:4716  s_withdrawals[msg.sender]++ */\n      dup2\n      dup2\n      swap1\n      sload\n      swap1\n      0x0100\n      exp\n      swap1\n      div\n      0xffffffff\n      and\n      dup1\n      swap3\n      swap2\n      swap1\n      tag_72\n      swap1\n      tag_73\n      jump\t// in\n    tag_72:\n      swap2\n      swap1\n      0x0100\n      exp\n      dup2\n      sload\n      dup2\n      0xffffffff\n      mul\n      not\n      and\n      swap1\n      dup4\n      0xffffffff\n      and\n      mul\n      or\n      swap1\n      sstore\n      pop\n      pop\n        /* \"contracts/KipuBank.sol\":4742:4771  Extracted(msg.sender, amount) */\n      0x69c169e5c85af54e1ca7e16608ccc812437821387924fb3353a7d053264ddaa0\n        /* \"contracts/KipuBank.sol\":4752:4762  msg.sender */\n      caller\n        /* \"contracts/KipuBank.sol\":4764:4770  amount */\n      dup3\n        /* \"contracts/KipuBank.sol\":4742:4771  Extracted(msg.sender, amount) */\n      mload(0x40)\n      tag_74\n      swap3\n      swap2\n      swap1\n      tag_61\n      jump\t// in\n    tag_74:\n      mload(0x40)\n      dup1\n      swap2\n      sub\n      swap1\n      log1\n        /* \"contracts/KipuBank.sol\":4239:4787  function withdraw(uint amount) public {... */\n      pop\n      jump\t// out\n        /* \"contracts/KipuBank.sol\":3834:3966  function getWithdrawals(address user) external view returns(uint withdrawals_) {... */\n    tag_27:\n        /* \"contracts/KipuBank.sol\":3894:3911  uint withdrawals_ */\n      0x00\n        /* \"contracts/KipuBank.sol\":3939:3952  s_withdrawals */\n      0x02\n        /* \"contracts/KipuBank.sol\":3939:3958  s_withdrawals[user] */\n      0x00\n        /* \"contracts/KipuBank.sol\":3953:3957  user */\n      dup4\n        /* \"contracts/KipuBank.sol\":3939:3958  s_withdrawals[user] */\n      0xffffffffffffffffffffffffffffffffffffffff\n      and\n      0xffffffffffffffffffffffffffffffffffffffff\n      and\n      dup2\n      mstore\n      0x20\n      add\n      swap1\n      dup2\n      mstore\n      0x20\n      add\n      0x00\n      keccak256\n      0x00\n      swap1\n      sload\n      swap1\n      0x0100\n      exp\n      swap1\n      div\n      0xffffffff\n      and\n        /* \"contracts/KipuBank.sol\":3924:3958  withdrawals_ = s_withdrawals[user] */\n      0xffffffff\n      and\n      swap1\n      pop\n        /* \"contracts/KipuBank.sol\":3834:3966  function getWithdrawals(address user) external view returns(uint withdrawals_) {... */\n      swap2\n      swap1\n      pop\n      jump\t// out\n        /* \"contracts/KipuBank.sol\":2914:3040  function getWithdrawals() external view returns(uint withdrawals_) {... */\n    tag_31:\n        /* \"contracts/KipuBank.sol\":2962:2979  uint withdrawals_ */\n      0x00\n        /* \"contracts/KipuBank.sol\":3007:3020  s_withdrawals */\n      0x02\n        /* \"contracts/KipuBank.sol\":3007:3032  s_withdrawals[msg.sender] */\n      0x00\n        /* \"contracts/KipuBank.sol\":3021:3031  msg.sender */\n      caller\n        /* \"contracts/KipuBank.sol\":3007:3032  s_withdrawals[msg.sender] */\n      0xffffffffffffffffffffffffffffffffffffffff\n      and\n      0xffffffffffffffffffffffffffffffffffffffff\n      and\n      dup2\n      mstore\n      0x20\n      add\n      swap1\n      dup2\n      mstore\n      0x20\n      add\n      0x00\n      keccak256\n      0x00\n      swap1\n      sload\n      swap1\n      0x0100\n      exp\n      swap1\n      div\n      0xffffffff\n      and\n        /* \"contracts/KipuBank.sol\":2992:3032  withdrawals_ = s_withdrawals[msg.sender] */\n      0xffffffff\n      and\n      swap1\n      pop\n        /* \"contracts/KipuBank.sol\":2914:3040  function getWithdrawals() external view returns(uint withdrawals_) {... */\n      swap1\n      jump\t// out\n        /* \"contracts/KipuBank.sol\":2691:2805  function getDeposits() external view returns(uint deposits_) {... */\n    tag_35:\n        /* \"contracts/KipuBank.sol\":2736:2750  uint deposits_ */\n      0x00\n        /* \"contracts/KipuBank.sol\":2775:2785  s_deposits */\n      0x01\n        /* \"contracts/KipuBank.sol\":2775:2797  s_deposits[msg.sender] */\n      0x00\n        /* \"contracts/KipuBank.sol\":2786:2796  msg.sender */\n      caller\n        /* \"contracts/KipuBank.sol\":2775:2797  s_deposits[msg.sender] */\n      0xffffffffffffffffffffffffffffffffffffffff\n      and\n      0xffffffffffffffffffffffffffffffffffffffff\n      and\n      dup2\n      mstore\n      0x20\n      add\n      swap1\n      dup2\n      mstore\n      0x20\n      add\n      0x00\n      keccak256\n      0x00\n      swap1\n      sload\n      swap1\n      0x0100\n      exp\n      swap1\n      div\n      0xffffffff\n      and\n        /* \"contracts/KipuBank.sol\":2763:2797  deposits_ = s_deposits[msg.sender] */\n      0xffffffff\n      and\n      swap1\n      pop\n        /* \"contracts/KipuBank.sol\":2691:2805  function getDeposits() external view returns(uint deposits_) {... */\n      swap1\n      jump\t// out\n        /* \"contracts/KipuBank.sol\":701:758  uint128 public immutable s_withdrawLimit = 10000000000000 */\n    tag_39:\n      immutable(\"0x939eb54753ed0cc7e2272bfb34cbe098308c93936ed54d79078f76ade0b2e789\")\n      dup2\n      jump\t// out\n        /* \"contracts/KipuBank.sol\":660:694  uint128 public immutable s_bankCap */\n    tag_44:\n      immutable(\"0x277ab82e5a4641341820a4a2933a62c1de997e42e92548657ae21b3728d580fe\")\n      dup2\n      jump\t// out\n        /* \"contracts/KipuBank.sol\":3523:3643  function getDeposits(address user) external view returns(uint deposits_) {... */\n    tag_49:\n        /* \"contracts/KipuBank.sol\":3580:3594  uint deposits_ */\n      0x00\n        /* \"contracts/KipuBank.sol\":3619:3629  s_deposits */\n      0x01\n        /* \"contracts/KipuBank.sol\":3619:3635  s_deposits[user] */\n      0x00\n        /* \"contracts/KipuBank.sol\":3630:3634  user */\n      dup4\n        /* \"contracts/KipuBank.sol\":3619:3635  s_deposits[user] */\n      0xffffffffffffffffffffffffffffffffffffffff\n      and\n      0xffffffffffffffffffffffffffffffffffffffff\n      and\n      dup2\n      mstore\n      0x20\n      add\n      swap1\n      dup2\n      mstore\n      0x20\n      add\n      0x00\n      keccak256\n      0x00\n      swap1\n      sload\n      swap1\n      0x0100\n      exp\n      swap1\n      div\n      0xffffffff\n      and\n        /* \"contracts/KipuBank.sol\":3607:3635  deposits_ = s_deposits[user] */\n      0xffffffff\n      and\n      swap1\n      pop\n        /* \"contracts/KipuBank.sol\":3523:3643  function getDeposits(address user) external view returns(uint deposits_) {... */\n      swap2\n      swap1\n      pop\n      jump\t// out\n        /* \"contracts/KipuBank.sol\":1956:2372  function deposit() public payable {... */\n    tag_52:\n        /* \"contracts/KipuBank.sol\":2006:2043  DepositRequest(msg.sender, msg.value) */\n      0x55896b30a78fc55b78937f8014dde3f0035e9d37a4f6ac36841fb8b62f7e2b13\n        /* \"contracts/KipuBank.sol\":2021:2031  msg.sender */\n      caller\n        /* \"contracts/KipuBank.sol\":2033:2042  msg.value */\n      callvalue\n        /* \"contracts/KipuBank.sol\":2006:2043  DepositRequest(msg.sender, msg.value) */\n      mload(0x40)\n      tag_80\n      swap3\n      swap2\n      swap1\n      tag_61\n      jump\t// in\n    tag_80:\n      mload(0x40)\n      dup1\n      swap2\n      sub\n      swap1\n      log1\n        /* \"contracts/KipuBank.sol\":2074:2075  0 */\n      0x00\n        /* \"contracts/KipuBank.sol\":2062:2071  msg.value */\n      callvalue\n        /* \"contracts/KipuBank.sol\":2062:2075  msg.value > 0 */\n      gt\n        /* \"contracts/KipuBank.sol\":2095:2105  msg.sender */\n      caller\n        /* \"contracts/KipuBank.sol\":2106:2115  msg.value */\n      callvalue\n        /* \"contracts/KipuBank.sol\":2054:2117  require(msg.value > 0, DepositNotAllowed(msg.sender,msg.value)) */\n      swap1\n      swap2\n      tag_81\n      jumpi\n      mload(0x40)\n      0xacb26d8e00000000000000000000000000000000000000000000000000000000\n      dup2\n      mstore\n      0x04\n      add\n      tag_82\n      swap3\n      swap2\n      swap1\n      tag_61\n      jump\t// in\n    tag_82:\n      mload(0x40)\n      dup1\n      swap2\n      sub\n      swap1\n      revert\n    tag_81:\n      pop\n      pop\n        /* \"contracts/KipuBank.sol\":2172:2181  s_bankCap */\n      immutable(\"0x277ab82e5a4641341820a4a2933a62c1de997e42e92548657ae21b3728d580fe\")\n        /* \"contracts/KipuBank.sol\":2136:2181  msg.value+s_balances[msg.sender] <= s_bankCap */\n      0xffffffffffffffffffffffffffffffff\n      and\n        /* \"contracts/KipuBank.sol\":2146:2156  s_balances */\n      0x00\n        /* \"contracts/KipuBank.sol\":2146:2168  s_balances[msg.sender] */\n      0x00\n        /* \"contracts/KipuBank.sol\":2157:2167  msg.sender */\n      caller\n        /* \"contracts/KipuBank.sol\":2146:2168  s_balances[msg.sender] */\n      0xffffffffffffffffffffffffffffffffffffffff\n      and\n      0xffffffffffffffffffffffffffffffffffffffff\n      and\n      dup2\n      mstore\n      0x20\n      add\n      swap1\n      dup2\n      mstore\n      0x20\n      add\n      0x00\n      keccak256\n      sload\n        /* \"contracts/KipuBank.sol\":2136:2145  msg.value */\n      callvalue\n        /* \"contracts/KipuBank.sol\":2136:2168  msg.value+s_balances[msg.sender] */\n      tag_83\n      swap2\n      swap1\n      tag_84\n      jump\t// in\n    tag_83:\n        /* \"contracts/KipuBank.sol\":2136:2181  msg.value+s_balances[msg.sender] <= s_bankCap */\n      gt\n      iszero\n        /* \"contracts/KipuBank.sol\":2201:2211  msg.sender */\n      caller\n        /* \"contracts/KipuBank.sol\":2212:2221  msg.value */\n      callvalue\n        /* \"contracts/KipuBank.sol\":2128:2223  require(msg.value+s_balances[msg.sender] <= s_bankCap, DepositNotAllowed(msg.sender,msg.value)) */\n      swap1\n      swap2\n      tag_85\n      jumpi\n      mload(0x40)\n      0xacb26d8e00000000000000000000000000000000000000000000000000000000\n      dup2\n      mstore\n      0x04\n      add\n      tag_86\n      swap3\n      swap2\n      swap1\n      tag_61\n      jump\t// in\n    tag_86:\n      mload(0x40)\n      dup1\n      swap2\n      sub\n      swap1\n      revert\n    tag_85:\n      pop\n      pop\n        /* \"contracts/KipuBank.sol\":2262:2271  msg.value */\n      callvalue\n        /* \"contracts/KipuBank.sol\":2236:2246  s_balances */\n      0x00\n        /* \"contracts/KipuBank.sol\":2236:2258  s_balances[msg.sender] */\n      0x00\n        /* \"contracts/KipuBank.sol\":2247:2257  msg.sender */\n      caller\n        /* \"contracts/KipuBank.sol\":2236:2258  s_balances[msg.sender] */\n      0xffffffffffffffffffffffffffffffffffffffff\n      and\n      0xffffffffffffffffffffffffffffffffffffffff\n      and\n      dup2\n      mstore\n      0x20\n      add\n      swap1\n      dup2\n      mstore\n      0x20\n      add\n      0x00\n      keccak256\n      0x00\n        /* \"contracts/KipuBank.sol\":2236:2271  s_balances[msg.sender] += msg.value */\n      dup3\n      dup3\n      sload\n      tag_87\n      swap2\n      swap1\n      tag_84\n      jump\t// in\n    tag_87:\n      swap3\n      pop\n      pop\n      dup2\n      swap1\n      sstore\n      pop\n        /* \"contracts/KipuBank.sol\":2282:2292  s_deposits */\n      0x01\n        /* \"contracts/KipuBank.sol\":2282:2304  s_deposits[msg.sender] */\n      0x00\n        /* \"contracts/KipuBank.sol\":2293:2303  msg.sender */\n      caller\n        /* \"contracts/KipuBank.sol\":2282:2304  s_deposits[msg.sender] */\n      0xffffffffffffffffffffffffffffffffffffffff\n      and\n      0xffffffffffffffffffffffffffffffffffffffff\n      and\n      dup2\n      mstore\n      0x20\n      add\n      swap1\n      dup2\n      mstore\n      0x20\n      add\n      0x00\n      keccak256\n      0x00\n        /* \"contracts/KipuBank.sol\":2282:2306  s_deposits[msg.sender]++ */\n      dup2\n      dup2\n      swap1\n      sload\n      swap1\n      0x0100\n      exp\n      swap1\n      div\n      0xffffffff\n      and\n      dup1\n      swap3\n      swap2\n      swap1\n      tag_88\n      swap1\n      tag_73\n      jump\t// in\n    tag_88:\n      swap2\n      swap1\n      0x0100\n      exp\n      dup2\n      sload\n      dup2\n      0xffffffff\n      mul\n      not\n      and\n      swap1\n      dup4\n      0xffffffff\n      and\n      mul\n      or\n      swap1\n      sstore\n      pop\n      pop\n        /* \"contracts/KipuBank.sol\":2332:2364  Deposited(msg.sender, msg.value) */\n      0x2da466a7b24304f47e87fa2e1e5a81b9831ce54fec19055ce277ca2f39ba42c4\n        /* \"contracts/KipuBank.sol\":2342:2352  msg.sender */\n      caller\n        /* \"contracts/KipuBank.sol\":2354:2363  msg.value */\n      callvalue\n        /* \"contracts/KipuBank.sol\":2332:2364  Deposited(msg.sender, msg.value) */\n      mload(0x40)\n      tag_89\n      swap3\n      swap2\n      swap1\n      tag_61\n      jump\t// in\n    tag_89:\n      mload(0x40)\n      dup1\n      swap2\n      sub\n      swap1\n      log1\n        /* \"contracts/KipuBank.sol\":1956:2372  function deposit() public payable {... */\n      jump\t// out\n        /* \"contracts/KipuBank.sol\":3217:3334  function getBalance(address user) external view returns(uint balance_) {... */\n    tag_56:\n        /* \"contracts/KipuBank.sol\":3273:3286  uint balance_ */\n      0x00\n        /* \"contracts/KipuBank.sol\":3310:3320  s_balances */\n      0x00\n        /* \"contracts/KipuBank.sol\":3310:3326  s_balances[user] */\n      0x00\n        /* \"contracts/KipuBank.sol\":3321:3325  user */\n      dup4\n        /* \"contracts/KipuBank.sol\":3310:3326  s_balances[user] */\n      0xffffffffffffffffffffffffffffffffffffffff\n      and\n      0xffffffffffffffffffffffffffffffffffffffff\n      and\n      dup2\n      mstore\n      0x20\n      add\n      swap1\n      dup2\n      mstore\n      0x20\n      add\n      0x00\n      keccak256\n      sload\n        /* \"contracts/KipuBank.sol\":3299:3326  balance_ = s_balances[user] */\n      swap1\n      pop\n        /* \"contracts/KipuBank.sol\":3217:3334  function getBalance(address user) external view returns(uint balance_) {... */\n      swap2\n      swap1\n      pop\n      jump\t// out\n        /* \"contracts/KipuBank.sol\":5013:5227  function transferFunds(uint amount) private {... */\n    tag_69:\n        /* \"contracts/KipuBank.sol\":5069:5081  bool success */\n      0x00\n        /* \"contracts/KipuBank.sol\":5083:5105  bytes memory errorData */\n      0x00\n        /* \"contracts/KipuBank.sol\":5109:5119  msg.sender */\n      caller\n        /* \"contracts/KipuBank.sol\":5109:5124  msg.sender.call */\n      0xffffffffffffffffffffffffffffffffffffffff\n      and\n        /* \"contracts/KipuBank.sol\":5132:5138  amount */\n      dup4\n        /* \"contracts/KipuBank.sol\":5109:5143  msg.sender.call{value: amount}(\"\") */\n      mload(0x40)\n      tag_92\n      swap1\n      tag_93\n      jump\t// in\n    tag_92:\n      0x00\n      mload(0x40)\n      dup1\n      dup4\n      sub\n      dup2\n      dup6\n      dup8\n      gas\n      call\n      swap3\n      pop\n      pop\n      pop\n      returndatasize\n      dup1\n      0x00\n      dup2\n      eq\n      tag_96\n      jumpi\n      mload(0x40)\n      swap2\n      pop\n      and(add(returndatasize, 0x3f), not(0x1f))\n      dup3\n      add\n      0x40\n      mstore\n      returndatasize\n      dup3\n      mstore\n      returndatasize\n      0x00\n      0x20\n      dup5\n      add\n      returndatacopy\n      jump(tag_95)\n    tag_96:\n      0x60\n      swap2\n      pop\n    tag_95:\n      pop\n        /* \"contracts/KipuBank.sol\":5068:5143  (bool success, bytes memory errorData) = msg.sender.call{value: amount}(\"\") */\n      swap2\n      pop\n      swap2\n      pop\n        /* \"contracts/KipuBank.sol\":5162:5169  success */\n      dup2\n        /* \"contracts/KipuBank.sol\":5190:5200  msg.sender */\n      caller\n        /* \"contracts/KipuBank.sol\":5201:5207  amount */\n      dup5\n        /* \"contracts/KipuBank.sol\":5208:5217  errorData */\n      dup4\n        /* \"contracts/KipuBank.sol\":5154:5219  require(success, ExtractionReverted(msg.sender,amount,errorData)) */\n      swap1\n      swap2\n      swap3\n      tag_97\n      jumpi\n      mload(0x40)\n      0x3fd18b8500000000000000000000000000000000000000000000000000000000\n      dup2\n      mstore\n      0x04\n      add\n      tag_98\n      swap4\n      swap3\n      swap2\n      swap1\n      tag_99\n      jump\t// in\n    tag_98:\n      mload(0x40)\n      dup1\n      swap2\n      sub\n      swap1\n      revert\n    tag_97:\n      pop\n      pop\n      pop\n        /* \"contracts/KipuBank.sol\":5057:5227  {... */\n      pop\n      pop\n        /* \"contracts/KipuBank.sol\":5013:5227  function transferFunds(uint amount) private {... */\n      pop\n      jump\t// out\n        /* \"#utility.yul\":7:84   */\n    tag_100:\n        /* \"#utility.yul\":44:51   */\n      0x00\n        /* \"#utility.yul\":73:78   */\n      dup2\n        /* \"#utility.yul\":62:78   */\n      swap1\n      pop\n        /* \"#utility.yul\":7:84   */\n      swap2\n      swap1\n      pop\n      jump\t// out\n        /* \"#utility.yul\":90:208   */\n    tag_101:\n        /* \"#utility.yul\":177:201   */\n      tag_127\n        /* \"#utility.yul\":195:200   */\n      dup2\n        /* \"#utility.yul\":177:201   */\n      tag_100\n      jump\t// in\n    tag_127:\n        /* \"#utility.yul\":172:175   */\n      dup3\n        /* \"#utility.yul\":165:202   */\n      mstore\n        /* \"#utility.yul\":90:208   */\n      pop\n      pop\n      jump\t// out\n        /* \"#utility.yul\":214:436   */\n    tag_17:\n        /* \"#utility.yul\":307:311   */\n      0x00\n        /* \"#utility.yul\":345:347   */\n      0x20\n        /* \"#utility.yul\":334:343   */\n      dup3\n        /* \"#utility.yul\":330:348   */\n      add\n        /* \"#utility.yul\":322:348   */\n      swap1\n      pop\n        /* \"#utility.yul\":358:429   */\n      tag_129\n        /* \"#utility.yul\":426:427   */\n      0x00\n        /* \"#utility.yul\":415:424   */\n      dup4\n        /* \"#utility.yul\":411:428   */\n      add\n        /* \"#utility.yul\":402:408   */\n      dup5\n        /* \"#utility.yul\":358:429   */\n      tag_101\n      jump\t// in\n    tag_129:\n        /* \"#utility.yul\":214:436   */\n      swap3\n      swap2\n      pop\n      pop\n      jump\t// out\n        /* \"#utility.yul\":523:640   */\n    tag_103:\n        /* \"#utility.yul\":632:633   */\n      0x00\n        /* \"#utility.yul\":629:630   */\n      0x00\n        /* \"#utility.yul\":622:634   */\n      revert\n        /* \"#utility.yul\":769:891   */\n    tag_105:\n        /* \"#utility.yul\":842:866   */\n      tag_134\n        /* \"#utility.yul\":860:865   */\n      dup2\n        /* \"#utility.yul\":842:866   */\n      tag_100\n      jump\t// in\n    tag_134:\n        /* \"#utility.yul\":835:840   */\n      dup2\n        /* \"#utility.yul\":832:867   */\n      eq\n        /* \"#utility.yul\":822:885   */\n      tag_135\n      jumpi\n        /* \"#utility.yul\":881:882   */\n      0x00\n        /* \"#utility.yul\":878:879   */\n      0x00\n        /* \"#utility.yul\":871:883   */\n      revert\n        /* \"#utility.yul\":822:885   */\n    tag_135:\n        /* \"#utility.yul\":769:891   */\n      pop\n      jump\t// out\n        /* \"#utility.yul\":897:1036   */\n    tag_106:\n        /* \"#utility.yul\":943:948   */\n      0x00\n        /* \"#utility.yul\":981:987   */\n      dup2\n        /* \"#utility.yul\":968:988   */\n      calldataload\n        /* \"#utility.yul\":959:988   */\n      swap1\n      pop\n        /* \"#utility.yul\":997:1030   */\n      tag_137\n        /* \"#utility.yul\":1024:1029   */\n      dup2\n        /* \"#utility.yul\":997:1030   */\n      tag_105\n      jump\t// in\n    tag_137:\n        /* \"#utility.yul\":897:1036   */\n      swap3\n      swap2\n      pop\n      pop\n      jump\t// out\n        /* \"#utility.yul\":1042:1371   */\n    tag_21:\n        /* \"#utility.yul\":1101:1107   */\n      0x00\n        /* \"#utility.yul\":1150:1152   */\n      0x20\n        /* \"#utility.yul\":1138:1147   */\n      dup3\n        /* \"#utility.yul\":1129:1136   */\n      dup5\n        /* \"#utility.yul\":1125:1148   */\n      sub\n        /* \"#utility.yul\":1121:1153   */\n      slt\n        /* \"#utility.yul\":1118:1237   */\n      iszero\n      tag_139\n      jumpi\n        /* \"#utility.yul\":1156:1235   */\n      tag_140\n      tag_103\n      jump\t// in\n    tag_140:\n        /* \"#utility.yul\":1118:1237   */\n    tag_139:\n        /* \"#utility.yul\":1276:1277   */\n      0x00\n        /* \"#utility.yul\":1301:1354   */\n      tag_141\n        /* \"#utility.yul\":1346:1353   */\n      dup5\n        /* \"#utility.yul\":1337:1343   */\n      dup3\n        /* \"#utility.yul\":1326:1335   */\n      dup6\n        /* \"#utility.yul\":1322:1344   */\n      add\n        /* \"#utility.yul\":1301:1354   */\n      tag_106\n      jump\t// in\n    tag_141:\n        /* \"#utility.yul\":1291:1354   */\n      swap2\n      pop\n        /* \"#utility.yul\":1247:1364   */\n      pop\n        /* \"#utility.yul\":1042:1371   */\n      swap3\n      swap2\n      pop\n      pop\n      jump\t// out\n        /* \"#utility.yul\":1377:1503   */\n    tag_107:\n        /* \"#utility.yul\":1414:1421   */\n      0x00\n        /* \"#utility.yul\":1454:1496   */\n      0xffffffffffffffffffffffffffffffffffffffff\n        /* \"#utility.yul\":1447:1452   */\n      dup3\n        /* \"#utility.yul\":1443:1497   */\n      and\n        /* \"#utility.yul\":1432:1497   */\n      swap1\n      pop\n        /* \"#utility.yul\":1377:1503   */\n      swap2\n      swap1\n      pop\n      jump\t// out\n        /* \"#utility.yul\":1509:1605   */\n    tag_108:\n        /* \"#utility.yul\":1546:1553   */\n      0x00\n        /* \"#utility.yul\":1575:1599   */\n      tag_144\n        /* \"#utility.yul\":1593:1598   */\n      dup3\n        /* \"#utility.yul\":1575:1599   */\n      tag_107\n      jump\t// in\n    tag_144:\n        /* \"#utility.yul\":1564:1599   */\n      swap1\n      pop\n        /* \"#utility.yul\":1509:1605   */\n      swap2\n      swap1\n      pop\n      jump\t// out\n        /* \"#utility.yul\":1611:1733   */\n    tag_109:\n        /* \"#utility.yul\":1684:1708   */\n      tag_146\n        /* \"#utility.yul\":1702:1707   */\n      dup2\n        /* \"#utility.yul\":1684:1708   */\n      tag_108\n      jump\t// in\n    tag_146:\n        /* \"#utility.yul\":1677:1682   */\n      dup2\n        /* \"#utility.yul\":1674:1709   */\n      eq\n        /* \"#utility.yul\":1664:1727   */\n      tag_147\n      jumpi\n        /* \"#utility.yul\":1723:1724   */\n      0x00\n        /* \"#utility.yul\":1720:1721   */\n      0x00\n        /* \"#utility.yul\":1713:1725   */\n      revert\n        /* \"#utility.yul\":1664:1727   */\n    tag_147:\n        /* \"#utility.yul\":1611:1733   */\n      pop\n      jump\t// out\n        /* \"#utility.yul\":1739:1878   */\n    tag_110:\n        /* \"#utility.yul\":1785:1790   */\n      0x00\n        /* \"#utility.yul\":1823:1829   */\n      dup2\n        /* \"#utility.yul\":1810:1830   */\n      calldataload\n        /* \"#utility.yul\":1801:1830   */\n      swap1\n      pop\n        /* \"#utility.yul\":1839:1872   */\n      tag_149\n        /* \"#utility.yul\":1866:1871   */\n      dup2\n        /* \"#utility.yul\":1839:1872   */\n      tag_109\n      jump\t// in\n    tag_149:\n        /* \"#utility.yul\":1739:1878   */\n      swap3\n      swap2\n      pop\n      pop\n      jump\t// out\n        /* \"#utility.yul\":1884:2213   */\n    tag_26:\n        /* \"#utility.yul\":1943:1949   */\n      0x00\n        /* \"#utility.yul\":1992:1994   */\n      0x20\n        /* \"#utility.yul\":1980:1989   */\n      dup3\n        /* \"#utility.yul\":1971:1978   */\n      dup5\n        /* \"#utility.yul\":1967:1990   */\n      sub\n        /* \"#utility.yul\":1963:1995   */\n      slt\n        /* \"#utility.yul\":1960:2079   */\n      iszero\n      tag_151\n      jumpi\n        /* \"#utility.yul\":1998:2077   */\n      tag_152\n      tag_103\n      jump\t// in\n    tag_152:\n        /* \"#utility.yul\":1960:2079   */\n    tag_151:\n        /* \"#utility.yul\":2118:2119   */\n      0x00\n        /* \"#utility.yul\":2143:2196   */\n      tag_153\n        /* \"#utility.yul\":2188:2195   */\n      dup5\n        /* \"#utility.yul\":2179:2185   */\n      dup3\n        /* \"#utility.yul\":2168:2177   */\n      dup6\n        /* \"#utility.yul\":2164:2186   */\n      add\n        /* \"#utility.yul\":2143:2196   */\n      tag_110\n      jump\t// in\n    tag_153:\n        /* \"#utility.yul\":2133:2196   */\n      swap2\n      pop\n        /* \"#utility.yul\":2089:2206   */\n      pop\n        /* \"#utility.yul\":1884:2213   */\n      swap3\n      swap2\n      pop\n      pop\n      jump\t// out\n        /* \"#utility.yul\":2219:2337   */\n    tag_111:\n        /* \"#utility.yul\":2256:2263   */\n      0x00\n        /* \"#utility.yul\":2296:2330   */\n      0xffffffffffffffffffffffffffffffff\n        /* \"#utility.yul\":2289:2294   */\n      dup3\n        /* \"#utility.yul\":2285:2331   */\n      and\n        /* \"#utility.yul\":2274:2331   */\n      swap1\n      pop\n        /* \"#utility.yul\":2219:2337   */\n      swap2\n      swap1\n      pop\n      jump\t// out\n        /* \"#utility.yul\":2343:2461   */\n    tag_112:\n        /* \"#utility.yul\":2430:2454   */\n      tag_156\n        /* \"#utility.yul\":2448:2453   */\n      dup2\n        /* \"#utility.yul\":2430:2454   */\n      tag_111\n      jump\t// in\n    tag_156:\n        /* \"#utility.yul\":2425:2428   */\n      dup3\n        /* \"#utility.yul\":2418:2455   */\n      mstore\n        /* \"#utility.yul\":2343:2461   */\n      pop\n      pop\n      jump\t// out\n        /* \"#utility.yul\":2467:2689   */\n    tag_41:\n        /* \"#utility.yul\":2560:2564   */\n      0x00\n        /* \"#utility.yul\":2598:2600   */\n      0x20\n        /* \"#utility.yul\":2587:2596   */\n      dup3\n        /* \"#utility.yul\":2583:2601   */\n      add\n        /* \"#utility.yul\":2575:2601   */\n      swap1\n      pop\n        /* \"#utility.yul\":2611:2682   */\n      tag_158\n        /* \"#utility.yul\":2679:2680   */\n      0x00\n        /* \"#utility.yul\":2668:2677   */\n      dup4\n        /* \"#utility.yul\":2664:2681   */\n      add\n        /* \"#utility.yul\":2655:2661   */\n      dup5\n        /* \"#utility.yul\":2611:2682   */\n      tag_112\n      jump\t// in\n    tag_158:\n        /* \"#utility.yul\":2467:2689   */\n      swap3\n      swap2\n      pop\n      pop\n      jump\t// out\n        /* \"#utility.yul\":2695:2813   */\n    tag_113:\n        /* \"#utility.yul\":2782:2806   */\n      tag_160\n        /* \"#utility.yul\":2800:2805   */\n      dup2\n        /* \"#utility.yul\":2782:2806   */\n      tag_108\n      jump\t// in\n    tag_160:\n        /* \"#utility.yul\":2777:2780   */\n      dup3\n        /* \"#utility.yul\":2770:2807   */\n      mstore\n        /* \"#utility.yul\":2695:2813   */\n      pop\n      pop\n      jump\t// out\n        /* \"#utility.yul\":2819:3151   */\n    tag_61:\n        /* \"#utility.yul\":2940:2944   */\n      0x00\n        /* \"#utility.yul\":2978:2980   */\n      0x40\n        /* \"#utility.yul\":2967:2976   */\n      dup3\n        /* \"#utility.yul\":2963:2981   */\n      add\n        /* \"#utility.yul\":2955:2981   */\n      swap1\n      pop\n        /* \"#utility.yul\":2991:3062   */\n      tag_162\n        /* \"#utility.yul\":3059:3060   */\n      0x00\n        /* \"#utility.yul\":3048:3057   */\n      dup4\n        /* \"#utility.yul\":3044:3061   */\n      add\n        /* \"#utility.yul\":3035:3041   */\n      dup6\n        /* \"#utility.yul\":2991:3062   */\n      tag_113\n      jump\t// in\n    tag_162:\n        /* \"#utility.yul\":3072:3144   */\n      tag_163\n        /* \"#utility.yul\":3140:3142   */\n      0x20\n        /* \"#utility.yul\":3129:3138   */\n      dup4\n        /* \"#utility.yul\":3125:3143   */\n      add\n        /* \"#utility.yul\":3116:3122   */\n      dup5\n        /* \"#utility.yul\":3072:3144   */\n      tag_101\n      jump\t// in\n    tag_163:\n        /* \"#utility.yul\":2819:3151   */\n      swap4\n      swap3\n      pop\n      pop\n      pop\n      jump\t// out\n        /* \"#utility.yul\":3157:3337   */\n    tag_114:\n        /* \"#utility.yul\":3205:3282   */\n      0x4e487b7100000000000000000000000000000000000000000000000000000000\n        /* \"#utility.yul\":3202:3203   */\n      0x00\n        /* \"#utility.yul\":3195:3283   */\n      mstore\n        /* \"#utility.yul\":3302:3306   */\n      0x11\n        /* \"#utility.yul\":3299:3300   */\n      0x04\n        /* \"#utility.yul\":3292:3307   */\n      mstore\n        /* \"#utility.yul\":3326:3330   */\n      0x24\n        /* \"#utility.yul\":3323:3324   */\n      0x00\n        /* \"#utility.yul\":3316:3331   */\n      revert\n        /* \"#utility.yul\":3343:3537   */\n    tag_71:\n        /* \"#utility.yul\":3383:3387   */\n      0x00\n        /* \"#utility.yul\":3403:3423   */\n      tag_166\n        /* \"#utility.yul\":3421:3422   */\n      dup3\n        /* \"#utility.yul\":3403:3423   */\n      tag_100\n      jump\t// in\n    tag_166:\n        /* \"#utility.yul\":3398:3423   */\n      swap2\n      pop\n        /* \"#utility.yul\":3437:3457   */\n      tag_167\n        /* \"#utility.yul\":3455:3456   */\n      dup4\n        /* \"#utility.yul\":3437:3457   */\n      tag_100\n      jump\t// in\n    tag_167:\n        /* \"#utility.yul\":3432:3457   */\n      swap3\n      pop\n        /* \"#utility.yul\":3481:3482   */\n      dup3\n        /* \"#utility.yul\":3478:3479   */\n      dup3\n        /* \"#utility.yul\":3474:3483   */\n      sub\n        /* \"#utility.yul\":3466:3483   */\n      swap1\n      pop\n        /* \"#utility.yul\":3505:3506   */\n      dup2\n        /* \"#utility.yul\":3499:3503   */\n      dup2\n        /* \"#utility.yul\":3496:3507   */\n      gt\n        /* \"#utility.yul\":3493:3530   */\n      iszero\n      tag_168\n      jumpi\n        /* \"#utility.yul\":3510:3528   */\n      tag_169\n      tag_114\n      jump\t// in\n    tag_169:\n        /* \"#utility.yul\":3493:3530   */\n    tag_168:\n        /* \"#utility.yul\":3343:3537   */\n      swap3\n      swap2\n      pop\n      pop\n      jump\t// out\n        /* \"#utility.yul\":3543:3636   */\n    tag_115:\n        /* \"#utility.yul\":3579:3586   */\n      0x00\n        /* \"#utility.yul\":3619:3629   */\n      0xffffffff\n        /* \"#utility.yul\":3612:3617   */\n      dup3\n        /* \"#utility.yul\":3608:3630   */\n      and\n        /* \"#utility.yul\":3597:3630   */\n      swap1\n      pop\n        /* \"#utility.yul\":3543:3636   */\n      swap2\n      swap1\n      pop\n      jump\t// out\n        /* \"#utility.yul\":3642:3817   */\n    tag_73:\n        /* \"#utility.yul\":3680:3683   */\n      0x00\n        /* \"#utility.yul\":3703:3726   */\n      tag_172\n        /* \"#utility.yul\":3720:3725   */\n      dup3\n        /* \"#utility.yul\":3703:3726   */\n      tag_115\n      jump\t// in\n    tag_172:\n        /* \"#utility.yul\":3694:3726   */\n      swap2\n      pop\n        /* \"#utility.yul\":3748:3758   */\n      0xffffffff\n        /* \"#utility.yul\":3741:3746   */\n      dup3\n        /* \"#utility.yul\":3738:3759   */\n      sub\n        /* \"#utility.yul\":3735:3782   */\n      tag_173\n      jumpi\n        /* \"#utility.yul\":3762:3780   */\n      tag_174\n      tag_114\n      jump\t// in\n    tag_174:\n        /* \"#utility.yul\":3735:3782   */\n    tag_173:\n        /* \"#utility.yul\":3809:3810   */\n      0x01\n        /* \"#utility.yul\":3802:3807   */\n      dup3\n        /* \"#utility.yul\":3798:3811   */\n      add\n        /* \"#utility.yul\":3791:3811   */\n      swap1\n      pop\n        /* \"#utility.yul\":3642:3817   */\n      swap2\n      swap1\n      pop\n      jump\t// out\n        /* \"#utility.yul\":3823:4014   */\n    tag_84:\n        /* \"#utility.yul\":3863:3866   */\n      0x00\n        /* \"#utility.yul\":3882:3902   */\n      tag_176\n        /* \"#utility.yul\":3900:3901   */\n      dup3\n        /* \"#utility.yul\":3882:3902   */\n      tag_100\n      jump\t// in\n    tag_176:\n        /* \"#utility.yul\":3877:3902   */\n      swap2\n      pop\n        /* \"#utility.yul\":3916:3936   */\n      tag_177\n        /* \"#utility.yul\":3934:3935   */\n      dup4\n        /* \"#utility.yul\":3916:3936   */\n      tag_100\n      jump\t// in\n    tag_177:\n        /* \"#utility.yul\":3911:3936   */\n      swap3\n      pop\n        /* \"#utility.yul\":3959:3960   */\n      dup3\n        /* \"#utility.yul\":3956:3957   */\n      dup3\n        /* \"#utility.yul\":3952:3961   */\n      add\n        /* \"#utility.yul\":3945:3961   */\n      swap1\n      pop\n        /* \"#utility.yul\":3980:3983   */\n      dup1\n        /* \"#utility.yul\":3977:3978   */\n      dup3\n        /* \"#utility.yul\":3974:3984   */\n      gt\n        /* \"#utility.yul\":3971:4007   */\n      iszero\n      tag_178\n      jumpi\n        /* \"#utility.yul\":3987:4005   */\n      tag_179\n      tag_114\n      jump\t// in\n    tag_179:\n        /* \"#utility.yul\":3971:4007   */\n    tag_178:\n        /* \"#utility.yul\":3823:4014   */\n      swap3\n      swap2\n      pop\n      pop\n      jump\t// out\n        /* \"#utility.yul\":4020:4167   */\n    tag_116:\n        /* \"#utility.yul\":4121:4132   */\n      0x00\n        /* \"#utility.yul\":4158:4161   */\n      dup2\n        /* \"#utility.yul\":4143:4161   */\n      swap1\n      pop\n        /* \"#utility.yul\":4020:4167   */\n      swap3\n      swap2\n      pop\n      pop\n      jump\t// out\n        /* \"#utility.yul\":4173:4287   */\n    tag_117:\n      pop\n      jump\t// out\n        /* \"#utility.yul\":4293:4691   */\n    tag_118:\n        /* \"#utility.yul\":4452:4455   */\n      0x00\n        /* \"#utility.yul\":4473:4556   */\n      tag_183\n        /* \"#utility.yul\":4554:4555   */\n      0x00\n        /* \"#utility.yul\":4549:4552   */\n      dup4\n        /* \"#utility.yul\":4473:4556   */\n      tag_116\n      jump\t// in\n    tag_183:\n        /* \"#utility.yul\":4466:4556   */\n      swap2\n      pop\n        /* \"#utility.yul\":4565:4658   */\n      tag_184\n        /* \"#utility.yul\":4654:4657   */\n      dup3\n        /* \"#utility.yul\":4565:4658   */\n      tag_117\n      jump\t// in\n    tag_184:\n        /* \"#utility.yul\":4683:4684   */\n      0x00\n        /* \"#utility.yul\":4678:4681   */\n      dup3\n        /* \"#utility.yul\":4674:4685   */\n      add\n        /* \"#utility.yul\":4667:4685   */\n      swap1\n      pop\n        /* \"#utility.yul\":4293:4691   */\n      swap2\n      swap1\n      pop\n      jump\t// out\n        /* \"#utility.yul\":4697:5076   */\n    tag_93:\n        /* \"#utility.yul\":4881:4884   */\n      0x00\n        /* \"#utility.yul\":4903:5050   */\n      tag_186\n        /* \"#utility.yul\":5046:5049   */\n      dup3\n        /* \"#utility.yul\":4903:5050   */\n      tag_118\n      jump\t// in\n    tag_186:\n        /* \"#utility.yul\":4896:5050   */\n      swap2\n      pop\n        /* \"#utility.yul\":5067:5070   */\n      dup2\n        /* \"#utility.yul\":5060:5070   */\n      swap1\n      pop\n        /* \"#utility.yul\":4697:5076   */\n      swap2\n      swap1\n      pop\n      jump\t// out\n        /* \"#utility.yul\":5082:5180   */\n    tag_119:\n        /* \"#utility.yul\":5133:5139   */\n      0x00\n        /* \"#utility.yul\":5167:5172   */\n      dup2\n        /* \"#utility.yul\":5161:5173   */\n      mload\n        /* \"#utility.yul\":5151:5173   */\n      swap1\n      pop\n        /* \"#utility.yul\":5082:5180   */\n      swap2\n      swap1\n      pop\n      jump\t// out\n        /* \"#utility.yul\":5186:5354   */\n    tag_120:\n        /* \"#utility.yul\":5269:5280   */\n      0x00\n        /* \"#utility.yul\":5303:5309   */\n      dup3\n        /* \"#utility.yul\":5298:5301   */\n      dup3\n        /* \"#utility.yul\":5291:5310   */\n      mstore\n        /* \"#utility.yul\":5343:5347   */\n      0x20\n        /* \"#utility.yul\":5338:5341   */\n      dup3\n        /* \"#utility.yul\":5334:5348   */\n      add\n        /* \"#utility.yul\":5319:5348   */\n      swap1\n      pop\n        /* \"#utility.yul\":5186:5354   */\n      swap3\n      swap2\n      pop\n      pop\n      jump\t// out\n        /* \"#utility.yul\":5360:5499   */\n    tag_121:\n        /* \"#utility.yul\":5449:5455   */\n      dup3\n        /* \"#utility.yul\":5444:5447   */\n      dup2\n        /* \"#utility.yul\":5439:5442   */\n      dup4\n        /* \"#utility.yul\":5433:5456   */\n      mcopy\n        /* \"#utility.yul\":5490:5491   */\n      0x00\n        /* \"#utility.yul\":5481:5487   */\n      dup4\n        /* \"#utility.yul\":5476:5479   */\n      dup4\n        /* \"#utility.yul\":5472:5488   */\n      add\n        /* \"#utility.yul\":5465:5492   */\n      mstore\n        /* \"#utility.yul\":5360:5499   */\n      pop\n      pop\n      pop\n      jump\t// out\n        /* \"#utility.yul\":5505:5607   */\n    tag_122:\n        /* \"#utility.yul\":5546:5552   */\n      0x00\n        /* \"#utility.yul\":5597:5599   */\n      0x1f\n        /* \"#utility.yul\":5593:5600   */\n      not\n        /* \"#utility.yul\":5588:5590   */\n      0x1f\n        /* \"#utility.yul\":5581:5586   */\n      dup4\n        /* \"#utility.yul\":5577:5591   */\n      add\n        /* \"#utility.yul\":5573:5601   */\n      and\n        /* \"#utility.yul\":5563:5601   */\n      swap1\n      pop\n        /* \"#utility.yul\":5505:5607   */\n      swap2\n      swap1\n      pop\n      jump\t// out\n        /* \"#utility.yul\":5613:5986   */\n    tag_123:\n        /* \"#utility.yul\":5699:5702   */\n      0x00\n        /* \"#utility.yul\":5727:5765   */\n      tag_192\n        /* \"#utility.yul\":5759:5764   */\n      dup3\n        /* \"#utility.yul\":5727:5765   */\n      tag_119\n      jump\t// in\n    tag_192:\n        /* \"#utility.yul\":5781:5851   */\n      tag_193\n        /* \"#utility.yul\":5844:5850   */\n      dup2\n        /* \"#utility.yul\":5839:5842   */\n      dup6\n        /* \"#utility.yul\":5781:5851   */\n      tag_120\n      jump\t// in\n    tag_193:\n        /* \"#utility.yul\":5774:5851   */\n      swap4\n      pop\n        /* \"#utility.yul\":5860:5925   */\n      tag_194\n        /* \"#utility.yul\":5918:5924   */\n      dup2\n        /* \"#utility.yul\":5913:5916   */\n      dup6\n        /* \"#utility.yul\":5906:5910   */\n      0x20\n        /* \"#utility.yul\":5899:5904   */\n      dup7\n        /* \"#utility.yul\":5895:5911   */\n      add\n        /* \"#utility.yul\":5860:5925   */\n      tag_121\n      jump\t// in\n    tag_194:\n        /* \"#utility.yul\":5950:5979   */\n      tag_195\n        /* \"#utility.yul\":5972:5978   */\n      dup2\n        /* \"#utility.yul\":5950:5979   */\n      tag_122\n      jump\t// in\n    tag_195:\n        /* \"#utility.yul\":5945:5948   */\n      dup5\n        /* \"#utility.yul\":5941:5980   */\n      add\n        /* \"#utility.yul\":5934:5980   */\n      swap2\n      pop\n        /* \"#utility.yul\":5703:5986   */\n      pop\n        /* \"#utility.yul\":5613:5986   */\n      swap3\n      swap2\n      pop\n      pop\n      jump\t// out\n        /* \"#utility.yul\":5992:6521   */\n    tag_99:\n        /* \"#utility.yul\":6159:6163   */\n      0x00\n        /* \"#utility.yul\":6197:6199   */\n      0x60\n        /* \"#utility.yul\":6186:6195   */\n      dup3\n        /* \"#utility.yul\":6182:6200   */\n      add\n        /* \"#utility.yul\":6174:6200   */\n      swap1\n      pop\n        /* \"#utility.yul\":6210:6281   */\n      tag_197\n        /* \"#utility.yul\":6278:6279   */\n      0x00\n        /* \"#utility.yul\":6267:6276   */\n      dup4\n        /* \"#utility.yul\":6263:6280   */\n      add\n        /* \"#utility.yul\":6254:6260   */\n      dup7\n        /* \"#utility.yul\":6210:6281   */\n      tag_113\n      jump\t// in\n    tag_197:\n        /* \"#utility.yul\":6291:6363   */\n      tag_198\n        /* \"#utility.yul\":6359:6361   */\n      0x20\n        /* \"#utility.yul\":6348:6357   */\n      dup4\n        /* \"#utility.yul\":6344:6362   */\n      add\n        /* \"#utility.yul\":6335:6341   */\n      dup6\n        /* \"#utility.yul\":6291:6363   */\n      tag_101\n      jump\t// in\n    tag_198:\n        /* \"#utility.yul\":6410:6419   */\n      dup2\n        /* \"#utility.yul\":6404:6408   */\n      dup2\n        /* \"#utility.yul\":6400:6420   */\n      sub\n        /* \"#utility.yul\":6395:6397   */\n      0x40\n        /* \"#utility.yul\":6384:6393   */\n      dup4\n        /* \"#utility.yul\":6380:6398   */\n      add\n        /* \"#utility.yul\":6373:6421   */\n      mstore\n        /* \"#utility.yul\":6438:6514   */\n      tag_199\n        /* \"#utility.yul\":6509:6513   */\n      dup2\n        /* \"#utility.yul\":6500:6506   */\n      dup5\n        /* \"#utility.yul\":6438:6514   */\n      tag_123\n      jump\t// in\n    tag_199:\n        /* \"#utility.yul\":6430:6514   */\n      swap1\n      pop\n        /* \"#utility.yul\":5992:6521   */\n      swap5\n      swap4\n      pop\n      pop\n      pop\n      pop\n      jump\t// out\n\n    auxdata: 0xa264697066735822122061638ece2f48717606ec293a1bde88bebf0a903f891fc5ad36d6dd4037fb056064736f6c634300081e0033\n}\n",
				"bytecode": {
					"linkReferences": {},
					"object": "60c06040526509184e72a0006fffffffffffffffffffffffffffffffff1660a0906fffffffffffffffffffffffffffffffff16815250348015610040575f5ffd5b50604051610ed6380380610ed6833981810160405281019061006291906100dd565b806fffffffffffffffffffffffffffffffff166080816fffffffffffffffffffffffffffffffff168152505050610108565b5f5ffd5b5f6fffffffffffffffffffffffffffffffff82169050919050565b6100bc81610098565b81146100c6575f5ffd5b50565b5f815190506100d7816100b3565b92915050565b5f602082840312156100f2576100f1610094565b5b5f6100ff848285016100c9565b91505092915050565b60805160a051610d9f6101375f395f818161039b015261063701525f818161065b015261075d0152610d9f5ff3fe608060405260043610610090575f3560e01c80637f86ee43116100585780637f86ee431461017657806380ef10ed146101a057806394f649dd146101ca578063d0e30db014610206578063f8b2cb4f1461021057610090565b806312065fe0146100945780632e1a7d4d146100be5780633a2b643a146100e657806350d6c1e8146101225780636b149d871461014c575b5f5ffd5b34801561009f575f5ffd5b506100a861024c565b6040516100b59190610a3f565b60405180910390f35b3480156100c9575f5ffd5b506100e460048036038101906100df9190610a86565b61028f565b005b3480156100f1575f5ffd5b5061010c60048036038101906101079190610b0b565b610528565b6040516101199190610a3f565b60405180910390f35b34801561012d575f5ffd5b50610136610583565b6040516101439190610a3f565b60405180910390f35b348015610157575f5ffd5b506101606105dc565b60405161016d9190610a3f565b60405180910390f35b348015610181575f5ffd5b5061018a610635565b6040516101979190610b60565b60405180910390f35b3480156101ab575f5ffd5b506101b4610659565b6040516101c19190610b60565b60405180910390f35b3480156101d5575f5ffd5b506101f060048036038101906101eb9190610b0b565b61067d565b6040516101fd9190610a3f565b60405180910390f35b61020e6106d8565b005b34801561021b575f5ffd5b5061023660048036038101906102319190610b0b565b610927565b6040516102439190610a3f565b60405180910390f35b5f5f5f3373ffffffffffffffffffffffffffffffffffffffff1673ffffffffffffffffffffffffffffffffffffffff1681526020019081526020015f2054905090565b7f3175035b120f22d7e7407b9f06f080ef0dbba46bb02a00e41a7b070b43cc8db933826040516102c0929190610b88565b60405180910390a15f811133829091610310576040517ff6074107000000000000000000000000000000000000000000000000000000008152600401610307929190610b88565b60405180910390fd5b50505f5f3373ffffffffffffffffffffffffffffffffffffffff1673ffffffffffffffffffffffffffffffffffffffff1681526020019081526020015f205481111533829091610397576040517ff607410700000000000000000000000000000000000000000000000000000000815260040161038e929190610b88565b60405180910390fd5b50507f00000000000000000000000000000000000000000000000000000000000000006fffffffffffffffffffffffffffffffff1681111533829091610414576040517ff607410700000000000000000000000000000000000000000000000000000000815260040161040b929190610b88565b60405180910390fd5b505061041f8161096c565b805f5f3373ffffffffffffffffffffffffffffffffffffffff1673ffffffffffffffffffffffffffffffffffffffff1681526020019081526020015f205f82825461046a9190610bdc565b9250508190555060025f3373ffffffffffffffffffffffffffffffffffffffff1673ffffffffffffffffffffffffffffffffffffffff1681526020019081526020015f205f81819054906101000a900463ffffffff16809291906104cd90610c1e565b91906101000a81548163ffffffff021916908363ffffffff160217905550507f69c169e5c85af54e1ca7e16608ccc812437821387924fb3353a7d053264ddaa0338260405161051d929190610b88565b60405180910390a150565b5f60025f8373ffffffffffffffffffffffffffffffffffffffff1673ffffffffffffffffffffffffffffffffffffffff1681526020019081526020015f205f9054906101000a900463ffffffff1663ffffffff169050919050565b5f60025f3373ffffffffffffffffffffffffffffffffffffffff1673ffffffffffffffffffffffffffffffffffffffff1681526020019081526020015f205f9054906101000a900463ffffffff1663ffffffff16905090565b5f60015f3373ffffffffffffffffffffffffffffffffffffffff1673ffffffffffffffffffffffffffffffffffffffff1681526020019081526020015f205f9054906101000a900463ffffffff1663ffffffff16905090565b7f000000000000000000000000000000000000000000000000000000000000000081565b7f000000000000000000000000000000000000000000000000000000000000000081565b5f60015f8373ffffffffffffffffffffffffffffffffffffffff1673ffffffffffffffffffffffffffffffffffffffff1681526020019081526020015f205f9054906101000a900463ffffffff1663ffffffff169050919050565b7f55896b30a78fc55b78937f8014dde3f0035e9d37a4f6ac36841fb8b62f7e2b133334604051610709929190610b88565b60405180910390a15f341133349091610759576040517facb26d8e000000000000000000000000000000000000000000000000000000008152600401610750929190610b88565b60405180910390fd5b50507f00000000000000000000000000000000000000000000000000000000000000006fffffffffffffffffffffffffffffffff165f5f3373ffffffffffffffffffffffffffffffffffffffff1673ffffffffffffffffffffffffffffffffffffffff1681526020019081526020015f2054346107d69190610c49565b11153334909161081d576040517facb26d8e000000000000000000000000000000000000000000000000000000008152600401610814929190610b88565b60405180910390fd5b5050345f5f3373ffffffffffffffffffffffffffffffffffffffff1673ffffffffffffffffffffffffffffffffffffffff1681526020019081526020015f205f82825461086a9190610c49565b9250508190555060015f3373ffffffffffffffffffffffffffffffffffffffff1673ffffffffffffffffffffffffffffffffffffffff1681526020019081526020015f205f81819054906101000a900463ffffffff16809291906108cd90610c1e565b91906101000a81548163ffffffff021916908363ffffffff160217905550507f2da466a7b24304f47e87fa2e1e5a81b9831ce54fec19055ce277ca2f39ba42c4333460405161091d929190610b88565b60405180910390a1565b5f5f5f8373ffffffffffffffffffffffffffffffffffffffff1673ffffffffffffffffffffffffffffffffffffffff1681526020019081526020015f20549050919050565b5f5f3373ffffffffffffffffffffffffffffffffffffffff168360405161099290610ca9565b5f6040518083038185875af1925050503d805f81146109cc576040519150601f19603f3d011682016040523d82523d5f602084013e6109d1565b606091505b509150915081338483909192610a1f576040517f3fd18b85000000000000000000000000000000000000000000000000000000008152600401610a1693929190610d2d565b60405180910390fd5b505050505050565b5f819050919050565b610a3981610a27565b82525050565b5f602082019050610a525f830184610a30565b92915050565b5f5ffd5b610a6581610a27565b8114610a6f575f5ffd5b50565b5f81359050610a8081610a5c565b92915050565b5f60208284031215610a9b57610a9a610a58565b5b5f610aa884828501610a72565b91505092915050565b5f73ffffffffffffffffffffffffffffffffffffffff82169050919050565b5f610ada82610ab1565b9050919050565b610aea81610ad0565b8114610af4575f5ffd5b50565b5f81359050610b0581610ae1565b92915050565b5f60208284031215610b2057610b1f610a58565b5b5f610b2d84828501610af7565b91505092915050565b5f6fffffffffffffffffffffffffffffffff82169050919050565b610b5a81610b36565b82525050565b5f602082019050610b735f830184610b51565b92915050565b610b8281610ad0565b82525050565b5f604082019050610b9b5f830185610b79565b610ba86020830184610a30565b9392505050565b7f4e487b71000000000000000000000000000000000000000000000000000000005f52601160045260245ffd5b5f610be682610a27565b9150610bf183610a27565b9250828203905081811115610c0957610c08610baf565b5b92915050565b5f63ffffffff82169050919050565b5f610c2882610c0f565b915063ffffffff8203610c3e57610c3d610baf565b5b600182019050919050565b5f610c5382610a27565b9150610c5e83610a27565b9250828201905080821115610c7657610c75610baf565b5b92915050565b5f81905092915050565b50565b5f610c945f83610c7c565b9150610c9f82610c86565b5f82019050919050565b5f610cb382610c89565b9150819050919050565b5f81519050919050565b5f82825260208201905092915050565b8281835e5f83830152505050565b5f601f19601f8301169050919050565b5f610cff82610cbd565b610d098185610cc7565b9350610d19818560208601610cd7565b610d2281610ce5565b840191505092915050565b5f606082019050610d405f830186610b79565b610d4d6020830185610a30565b8181036040830152610d5f8184610cf5565b905094935050505056fea264697066735822122061638ece2f48717606ec293a1bde88bebf0a903f891fc5ad36d6dd4037fb056064736f6c634300081e0033",
					"opcodes": "PUSH1 0xC0 PUSH1 0x40 MSTORE PUSH6 0x9184E72A000 PUSH16 0xFFFFFFFFFFFFFFFFFFFFFFFFFFFFFFFF AND PUSH1 0xA0 SWAP1 PUSH16 0xFFFFFFFFFFFFFFFFFFFFFFFFFFFFFFFF AND DUP2 MSTORE POP CALLVALUE DUP1 ISZERO PUSH2 0x40 JUMPI PUSH0 PUSH0 REVERT JUMPDEST POP PUSH1 0x40 MLOAD PUSH2 0xED6 CODESIZE SUB DUP1 PUSH2 0xED6 DUP4 CODECOPY DUP2 DUP2 ADD PUSH1 0x40 MSTORE DUP2 ADD SWAP1 PUSH2 0x62 SWAP2 SWAP1 PUSH2 0xDD JUMP JUMPDEST DUP1 PUSH16 0xFFFFFFFFFFFFFFFFFFFFFFFFFFFFFFFF AND PUSH1 0x80 DUP2 PUSH16 0xFFFFFFFFFFFFFFFFFFFFFFFFFFFFFFFF AND DUP2 MSTORE POP POP POP PUSH2 0x108 JUMP JUMPDEST PUSH0 PUSH0 REVERT JUMPDEST PUSH0 PUSH16 0xFFFFFFFFFFFFFFFFFFFFFFFFFFFFFFFF DUP3 AND SWAP1 POP SWAP2 SWAP1 POP JUMP JUMPDEST PUSH2 0xBC DUP2 PUSH2 0x98 JUMP JUMPDEST DUP2 EQ PUSH2 0xC6 JUMPI PUSH0 PUSH0 REVERT JUMPDEST POP JUMP JUMPDEST PUSH0 DUP2 MLOAD SWAP1 POP PUSH2 0xD7 DUP2 PUSH2 0xB3 JUMP JUMPDEST SWAP3 SWAP2 POP POP JUMP JUMPDEST PUSH0 PUSH1 0x20 DUP3 DUP5 SUB SLT ISZERO PUSH2 0xF2 JUMPI PUSH2 0xF1 PUSH2 0x94 JUMP JUMPDEST JUMPDEST PUSH0 PUSH2 0xFF DUP5 DUP3 DUP6 ADD PUSH2 0xC9 JUMP JUMPDEST SWAP2 POP POP SWAP3 SWAP2 POP POP JUMP JUMPDEST PUSH1 0x80 MLOAD PUSH1 0xA0 MLOAD PUSH2 0xD9F PUSH2 0x137 PUSH0 CODECOPY PUSH0 DUP2 DUP2 PUSH2 0x39B ADD MSTORE PUSH2 0x637 ADD MSTORE PUSH0 DUP2 DUP2 PUSH2 0x65B ADD MSTORE PUSH2 0x75D ADD MSTORE PUSH2 0xD9F PUSH0 RETURN INVALID PUSH1 0x80 PUSH1 0x40 MSTORE PUSH1 0x4 CALLDATASIZE LT PUSH2 0x90 JUMPI PUSH0 CALLDATALOAD PUSH1 0xE0 SHR DUP1 PUSH4 0x7F86EE43 GT PUSH2 0x58 JUMPI DUP1 PUSH4 0x7F86EE43 EQ PUSH2 0x176 JUMPI DUP1 PUSH4 0x80EF10ED EQ PUSH2 0x1A0 JUMPI DUP1 PUSH4 0x94F649DD EQ PUSH2 0x1CA JUMPI DUP1 PUSH4 0xD0E30DB0 EQ PUSH2 0x206 JUMPI DUP1 PUSH4 0xF8B2CB4F EQ PUSH2 0x210 JUMPI PUSH2 0x90 JUMP JUMPDEST DUP1 PUSH4 0x12065FE0 EQ PUSH2 0x94 JUMPI DUP1 PUSH4 0x2E1A7D4D EQ PUSH2 0xBE JUMPI DUP1 PUSH4 0x3A2B643A EQ PUSH2 0xE6 JUMPI DUP1 PUSH4 0x50D6C1E8 EQ PUSH2 0x122 JUMPI DUP1 PUSH4 0x6B149D87 EQ PUSH2 0x14C JUMPI JUMPDEST PUSH0 PUSH0 REVERT JUMPDEST CALLVALUE DUP1 ISZERO PUSH2 0x9F JUMPI PUSH0 PUSH0 REVERT JUMPDEST POP PUSH2 0xA8 PUSH2 0x24C JUMP JUMPDEST PUSH1 0x40 MLOAD PUSH2 0xB5 SWAP2 SWAP1 PUSH2 0xA3F JUMP JUMPDEST PUSH1 0x40 MLOAD DUP1 SWAP2 SUB SWAP1 RETURN JUMPDEST CALLVALUE DUP1 ISZERO PUSH2 0xC9 JUMPI PUSH0 PUSH0 REVERT JUMPDEST POP PUSH2 0xE4 PUSH1 0x4 DUP1 CALLDATASIZE SUB DUP2 ADD SWAP1 PUSH2 0xDF SWAP2 SWAP1 PUSH2 0xA86 JUMP JUMPDEST PUSH2 0x28F JUMP JUMPDEST STOP JUMPDEST CALLVALUE DUP1 ISZERO PUSH2 0xF1 JUMPI PUSH0 PUSH0 REVERT JUMPDEST POP PUSH2 0x10C PUSH1 0x4 DUP1 CALLDATASIZE SUB DUP2 ADD SWAP1 PUSH2 0x107 SWAP2 SWAP1 PUSH2 0xB0B JUMP JUMPDEST PUSH2 0x528 JUMP JUMPDEST PUSH1 0x40 MLOAD PUSH2 0x119 SWAP2 SWAP1 PUSH2 0xA3F JUMP JUMPDEST PUSH1 0x40 MLOAD DUP1 SWAP2 SUB SWAP1 RETURN JUMPDEST CALLVALUE DUP1 ISZERO PUSH2 0x12D JUMPI PUSH0 PUSH0 REVERT JUMPDEST POP PUSH2 0x136 PUSH2 0x583 JUMP JUMPDEST PUSH1 0x40 MLOAD PUSH2 0x143 SWAP2 SWAP1 PUSH2 0xA3F JUMP JUMPDEST PUSH1 0x40 MLOAD DUP1 SWAP2 SUB SWAP1 RETURN JUMPDEST CALLVALUE DUP1 ISZERO PUSH2 0x157 JUMPI PUSH0 PUSH0 REVERT JUMPDEST POP PUSH2 0x160 PUSH2 0x5DC JUMP JUMPDEST PUSH1 0x40 MLOAD PUSH2 0x16D SWAP2 SWAP1 PUSH2 0xA3F JUMP JUMPDEST PUSH1 0x40 MLOAD DUP1 SWAP2 SUB SWAP1 RETURN JUMPDEST CALLVALUE DUP1 ISZERO PUSH2 0x181 JUMPI PUSH0 PUSH0 REVERT JUMPDEST POP PUSH2 0x18A PUSH2 0x635 JUMP JUMPDEST PUSH1 0x40 MLOAD PUSH2 0x197 SWAP2 SWAP1 PUSH2 0xB60 JUMP JUMPDEST PUSH1 0x40 MLOAD DUP1 SWAP2 SUB SWAP1 RETURN JUMPDEST CALLVALUE DUP1 ISZERO PUSH2 0x1AB JUMPI PUSH0 PUSH0 REVERT JUMPDEST POP PUSH2 0x1B4 PUSH2 0x659 JUMP JUMPDEST PUSH1 0x40 MLOAD PUSH2 0x1C1 SWAP2 SWAP1 PUSH2 0xB60 JUMP JUMPDEST PUSH1 0x40 MLOAD DUP1 SWAP2 SUB SWAP1 RETURN JUMPDEST CALLVALUE DUP1 ISZERO PUSH2 0x1D5 JUMPI PUSH0 PUSH0 REVERT JUMPDEST POP PUSH2 0x1F0 PUSH1 0x4 DUP1 CALLDATASIZE SUB DUP2 ADD SWAP1 PUSH2 0x1EB SWAP2 SWAP1 PUSH2 0xB0B JUMP JUMPDEST PUSH2 0x67D JUMP JUMPDEST PUSH1 0x40 MLOAD PUSH2 0x1FD SWAP2 SWAP1 PUSH2 0xA3F JUMP JUMPDEST PUSH1 0x40 MLOAD DUP1 SWAP2 SUB SWAP1 RETURN JUMPDEST PUSH2 0x20E PUSH2 0x6D8 JUMP JUMPDEST STOP JUMPDEST CALLVALUE DUP1 ISZERO PUSH2 0x21B JUMPI PUSH0 PUSH0 REVERT JUMPDEST POP PUSH2 0x236 PUSH1 0x4 DUP1 CALLDATASIZE SUB DUP2 ADD SWAP1 PUSH2 0x231 SWAP2 SWAP1 PUSH2 0xB0B JUMP JUMPDEST PUSH2 0x927 JUMP JUMPDEST PUSH1 0x40 MLOAD PUSH2 0x243 SWAP2 SWAP1 PUSH2 0xA3F JUMP JUMPDEST PUSH1 0x40 MLOAD DUP1 SWAP2 SUB SWAP1 RETURN JUMPDEST PUSH0 PUSH0 PUSH0 CALLER PUSH20 0xFFFFFFFFFFFFFFFFFFFFFFFFFFFFFFFFFFFFFFFF AND PUSH20 0xFFFFFFFFFFFFFFFFFFFFFFFFFFFFFFFFFFFFFFFF AND DUP2 MSTORE PUSH1 0x20 ADD SWAP1 DUP2 MSTORE PUSH1 0x20 ADD PUSH0 KECCAK256 SLOAD SWAP1 POP SWAP1 JUMP JUMPDEST PUSH32 0x3175035B120F22D7E7407B9F06F080EF0DBBA46BB02A00E41A7B070B43CC8DB9 CALLER DUP3 PUSH1 0x40 MLOAD PUSH2 0x2C0 SWAP3 SWAP2 SWAP1 PUSH2 0xB88 JUMP JUMPDEST PUSH1 0x40 MLOAD DUP1 SWAP2 SUB SWAP1 LOG1 PUSH0 DUP2 GT CALLER DUP3 SWAP1 SWAP2 PUSH2 0x310 JUMPI PUSH1 0x40 MLOAD PUSH32 0xF607410700000000000000000000000000000000000000000000000000000000 DUP2 MSTORE PUSH1 0x4 ADD PUSH2 0x307 SWAP3 SWAP2 SWAP1 PUSH2 0xB88 JUMP JUMPDEST PUSH1 0x40 MLOAD DUP1 SWAP2 SUB SWAP1 REVERT JUMPDEST POP POP PUSH0 PUSH0 CALLER PUSH20 0xFFFFFFFFFFFFFFFFFFFFFFFFFFFFFFFFFFFFFFFF AND PUSH20 0xFFFFFFFFFFFFFFFFFFFFFFFFFFFFFFFFFFFFFFFF AND DUP2 MSTORE PUSH1 0x20 ADD SWAP1 DUP2 MSTORE PUSH1 0x20 ADD PUSH0 KECCAK256 SLOAD DUP2 GT ISZERO CALLER DUP3 SWAP1 SWAP2 PUSH2 0x397 JUMPI PUSH1 0x40 MLOAD PUSH32 0xF607410700000000000000000000000000000000000000000000000000000000 DUP2 MSTORE PUSH1 0x4 ADD PUSH2 0x38E SWAP3 SWAP2 SWAP1 PUSH2 0xB88 JUMP JUMPDEST PUSH1 0x40 MLOAD DUP1 SWAP2 SUB SWAP1 REVERT JUMPDEST POP POP PUSH32 0x0 PUSH16 0xFFFFFFFFFFFFFFFFFFFFFFFFFFFFFFFF AND DUP2 GT ISZERO CALLER DUP3 SWAP1 SWAP2 PUSH2 0x414 JUMPI PUSH1 0x40 MLOAD PUSH32 0xF607410700000000000000000000000000000000000000000000000000000000 DUP2 MSTORE PUSH1 0x4 ADD PUSH2 0x40B SWAP3 SWAP2 SWAP1 PUSH2 0xB88 JUMP JUMPDEST PUSH1 0x40 MLOAD DUP1 SWAP2 SUB SWAP1 REVERT JUMPDEST POP POP PUSH2 0x41F DUP2 PUSH2 0x96C JUMP JUMPDEST DUP1 PUSH0 PUSH0 CALLER PUSH20 0xFFFFFFFFFFFFFFFFFFFFFFFFFFFFFFFFFFFFFFFF AND PUSH20 0xFFFFFFFFFFFFFFFFFFFFFFFFFFFFFFFFFFFFFFFF AND DUP2 MSTORE PUSH1 0x20 ADD SWAP1 DUP2 MSTORE PUSH1 0x20 ADD PUSH0 KECCAK256 PUSH0 DUP3 DUP3 SLOAD PUSH2 0x46A SWAP2 SWAP1 PUSH2 0xBDC JUMP JUMPDEST SWAP3 POP POP DUP2 SWAP1 SSTORE POP PUSH1 0x2 PUSH0 CALLER PUSH20 0xFFFFFFFFFFFFFFFFFFFFFFFFFFFFFFFFFFFFFFFF AND PUSH20 0xFFFFFFFFFFFFFFFFFFFFFFFFFFFFFFFFFFFFFFFF AND DUP2 MSTORE PUSH1 0x20 ADD SWAP1 DUP2 MSTORE PUSH1 0x20 ADD PUSH0 KECCAK256 PUSH0 DUP2 DUP2 SWAP1 SLOAD SWAP1 PUSH2 0x100 EXP SWAP1 DIV PUSH4 0xFFFFFFFF AND DUP1 SWAP3 SWAP2 SWAP1 PUSH2 0x4CD SWAP1 PUSH2 0xC1E JUMP JUMPDEST SWAP2 SWAP1 PUSH2 0x100 EXP DUP2 SLOAD DUP2 PUSH4 0xFFFFFFFF MUL NOT AND SWAP1 DUP4 PUSH4 0xFFFFFFFF AND MUL OR SWAP1 SSTORE POP POP PUSH32 0x69C169E5C85AF54E1CA7E16608CCC812437821387924FB3353A7D053264DDAA0 CALLER DUP3 PUSH1 0x40 MLOAD PUSH2 0x51D SWAP3 SWAP2 SWAP1 PUSH2 0xB88 JUMP JUMPDEST PUSH1 0x40 MLOAD DUP1 SWAP2 SUB SWAP1 LOG1 POP JUMP JUMPDEST PUSH0 PUSH1 0x2 PUSH0 DUP4 PUSH20 0xFFFFFFFFFFFFFFFFFFFFFFFFFFFFFFFFFFFFFFFF AND PUSH20 0xFFFFFFFFFFFFFFFFFFFFFFFFFFFFFFFFFFFFFFFF AND DUP2 MSTORE PUSH1 0x20 ADD SWAP1 DUP2 MSTORE PUSH1 0x20 ADD PUSH0 KECCAK256 PUSH0 SWAP1 SLOAD SWAP1 PUSH2 0x100 EXP SWAP1 DIV PUSH4 0xFFFFFFFF AND PUSH4 0xFFFFFFFF AND SWAP1 POP SWAP2 SWAP1 POP JUMP JUMPDEST PUSH0 PUSH1 0x2 PUSH0 CALLER PUSH20 0xFFFFFFFFFFFFFFFFFFFFFFFFFFFFFFFFFFFFFFFF AND PUSH20 0xFFFFFFFFFFFFFFFFFFFFFFFFFFFFFFFFFFFFFFFF AND DUP2 MSTORE PUSH1 0x20 ADD SWAP1 DUP2 MSTORE PUSH1 0x20 ADD PUSH0 KECCAK256 PUSH0 SWAP1 SLOAD SWAP1 PUSH2 0x100 EXP SWAP1 DIV PUSH4 0xFFFFFFFF AND PUSH4 0xFFFFFFFF AND SWAP1 POP SWAP1 JUMP JUMPDEST PUSH0 PUSH1 0x1 PUSH0 CALLER PUSH20 0xFFFFFFFFFFFFFFFFFFFFFFFFFFFFFFFFFFFFFFFF AND PUSH20 0xFFFFFFFFFFFFFFFFFFFFFFFFFFFFFFFFFFFFFFFF AND DUP2 MSTORE PUSH1 0x20 ADD SWAP1 DUP2 MSTORE PUSH1 0x20 ADD PUSH0 KECCAK256 PUSH0 SWAP1 SLOAD SWAP1 PUSH2 0x100 EXP SWAP1 DIV PUSH4 0xFFFFFFFF AND PUSH4 0xFFFFFFFF AND SWAP1 POP SWAP1 JUMP JUMPDEST PUSH32 0x0 DUP2 JUMP JUMPDEST PUSH32 0x0 DUP2 JUMP JUMPDEST PUSH0 PUSH1 0x1 PUSH0 DUP4 PUSH20 0xFFFFFFFFFFFFFFFFFFFFFFFFFFFFFFFFFFFFFFFF AND PUSH20 0xFFFFFFFFFFFFFFFFFFFFFFFFFFFFFFFFFFFFFFFF AND DUP2 MSTORE PUSH1 0x20 ADD SWAP1 DUP2 MSTORE PUSH1 0x20 ADD PUSH0 KECCAK256 PUSH0 SWAP1 SLOAD SWAP1 PUSH2 0x100 EXP SWAP1 DIV PUSH4 0xFFFFFFFF AND PUSH4 0xFFFFFFFF AND SWAP1 POP SWAP2 SWAP1 POP JUMP JUMPDEST PUSH32 0x55896B30A78FC55B78937F8014DDE3F0035E9D37A4F6AC36841FB8B62F7E2B13 CALLER CALLVALUE PUSH1 0x40 MLOAD PUSH2 0x709 SWAP3 SWAP2 SWAP1 PUSH2 0xB88 JUMP JUMPDEST PUSH1 0x40 MLOAD DUP1 SWAP2 SUB SWAP1 LOG1 PUSH0 CALLVALUE GT CALLER CALLVALUE SWAP1 SWAP2 PUSH2 0x759 JUMPI PUSH1 0x40 MLOAD PUSH32 0xACB26D8E00000000000000000000000000000000000000000000000000000000 DUP2 MSTORE PUSH1 0x4 ADD PUSH2 0x750 SWAP3 SWAP2 SWAP1 PUSH2 0xB88 JUMP JUMPDEST PUSH1 0x40 MLOAD DUP1 SWAP2 SUB SWAP1 REVERT JUMPDEST POP POP PUSH32 0x0 PUSH16 0xFFFFFFFFFFFFFFFFFFFFFFFFFFFFFFFF AND PUSH0 PUSH0 CALLER PUSH20 0xFFFFFFFFFFFFFFFFFFFFFFFFFFFFFFFFFFFFFFFF AND PUSH20 0xFFFFFFFFFFFFFFFFFFFFFFFFFFFFFFFFFFFFFFFF AND DUP2 MSTORE PUSH1 0x20 ADD SWAP1 DUP2 MSTORE PUSH1 0x20 ADD PUSH0 KECCAK256 SLOAD CALLVALUE PUSH2 0x7D6 SWAP2 SWAP1 PUSH2 0xC49 JUMP JUMPDEST GT ISZERO CALLER CALLVALUE SWAP1 SWAP2 PUSH2 0x81D JUMPI PUSH1 0x40 MLOAD PUSH32 0xACB26D8E00000000000000000000000000000000000000000000000000000000 DUP2 MSTORE PUSH1 0x4 ADD PUSH2 0x814 SWAP3 SWAP2 SWAP1 PUSH2 0xB88 JUMP JUMPDEST PUSH1 0x40 MLOAD DUP1 SWAP2 SUB SWAP1 REVERT JUMPDEST POP POP CALLVALUE PUSH0 PUSH0 CALLER PUSH20 0xFFFFFFFFFFFFFFFFFFFFFFFFFFFFFFFFFFFFFFFF AND PUSH20 0xFFFFFFFFFFFFFFFFFFFFFFFFFFFFFFFFFFFFFFFF AND DUP2 MSTORE PUSH1 0x20 ADD SWAP1 DUP2 MSTORE PUSH1 0x20 ADD PUSH0 KECCAK256 PUSH0 DUP3 DUP3 SLOAD PUSH2 0x86A SWAP2 SWAP1 PUSH2 0xC49 JUMP JUMPDEST SWAP3 POP POP DUP2 SWAP1 SSTORE POP PUSH1 0x1 PUSH0 CALLER PUSH20 0xFFFFFFFFFFFFFFFFFFFFFFFFFFFFFFFFFFFFFFFF AND PUSH20 0xFFFFFFFFFFFFFFFFFFFFFFFFFFFFFFFFFFFFFFFF AND DUP2 MSTORE PUSH1 0x20 ADD SWAP1 DUP2 MSTORE PUSH1 0x20 ADD PUSH0 KECCAK256 PUSH0 DUP2 DUP2 SWAP1 SLOAD SWAP1 PUSH2 0x100 EXP SWAP1 DIV PUSH4 0xFFFFFFFF AND DUP1 SWAP3 SWAP2 SWAP1 PUSH2 0x8CD SWAP1 PUSH2 0xC1E JUMP JUMPDEST SWAP2 SWAP1 PUSH2 0x100 EXP DUP2 SLOAD DUP2 PUSH4 0xFFFFFFFF MUL NOT AND SWAP1 DUP4 PUSH4 0xFFFFFFFF AND MUL OR SWAP1 SSTORE POP POP PUSH32 0x2DA466A7B24304F47E87FA2E1E5A81B9831CE54FEC19055CE277CA2F39BA42C4 CALLER CALLVALUE PUSH1 0x40 MLOAD PUSH2 0x91D SWAP3 SWAP2 SWAP1 PUSH2 0xB88 JUMP JUMPDEST PUSH1 0x40 MLOAD DUP1 SWAP2 SUB SWAP1 LOG1 JUMP JUMPDEST PUSH0 PUSH0 PUSH0 DUP4 PUSH20 0xFFFFFFFFFFFFFFFFFFFFFFFFFFFFFFFFFFFFFFFF AND PUSH20 0xFFFFFFFFFFFFFFFFFFFFFFFFFFFFFFFFFFFFFFFF AND DUP2 MSTORE PUSH1 0x20 ADD SWAP1 DUP2 MSTORE PUSH1 0x20 ADD PUSH0 KECCAK256 SLOAD SWAP1 POP SWAP2 SWAP1 POP JUMP JUMPDEST PUSH0 PUSH0 CALLER PUSH20 0xFFFFFFFFFFFFFFFFFFFFFFFFFFFFFFFFFFFFFFFF AND DUP4 PUSH1 0x40 MLOAD PUSH2 0x992 SWAP1 PUSH2 0xCA9 JUMP JUMPDEST PUSH0 PUSH1 0x40 MLOAD DUP1 DUP4 SUB DUP2 DUP6 DUP8 GAS CALL SWAP3 POP POP POP RETURNDATASIZE DUP1 PUSH0 DUP2 EQ PUSH2 0x9CC JUMPI PUSH1 0x40 MLOAD SWAP2 POP PUSH1 0x1F NOT PUSH1 0x3F RETURNDATASIZE ADD AND DUP3 ADD PUSH1 0x40 MSTORE RETURNDATASIZE DUP3 MSTORE RETURNDATASIZE PUSH0 PUSH1 0x20 DUP5 ADD RETURNDATACOPY PUSH2 0x9D1 JUMP JUMPDEST PUSH1 0x60 SWAP2 POP JUMPDEST POP SWAP2 POP SWAP2 POP DUP2 CALLER DUP5 DUP4 SWAP1 SWAP2 SWAP3 PUSH2 0xA1F JUMPI PUSH1 0x40 MLOAD PUSH32 0x3FD18B8500000000000000000000000000000000000000000000000000000000 DUP2 MSTORE PUSH1 0x4 ADD PUSH2 0xA16 SWAP4 SWAP3 SWAP2 SWAP1 PUSH2 0xD2D JUMP JUMPDEST PUSH1 0x40 MLOAD DUP1 SWAP2 SUB SWAP1 REVERT JUMPDEST POP POP POP POP POP POP JUMP JUMPDEST PUSH0 DUP2 SWAP1 POP SWAP2 SWAP1 POP JUMP JUMPDEST PUSH2 0xA39 DUP2 PUSH2 0xA27 JUMP JUMPDEST DUP3 MSTORE POP POP JUMP JUMPDEST PUSH0 PUSH1 0x20 DUP3 ADD SWAP1 POP PUSH2 0xA52 PUSH0 DUP4 ADD DUP5 PUSH2 0xA30 JUMP JUMPDEST SWAP3 SWAP2 POP POP JUMP JUMPDEST PUSH0 PUSH0 REVERT JUMPDEST PUSH2 0xA65 DUP2 PUSH2 0xA27 JUMP JUMPDEST DUP2 EQ PUSH2 0xA6F JUMPI PUSH0 PUSH0 REVERT JUMPDEST POP JUMP JUMPDEST PUSH0 DUP2 CALLDATALOAD SWAP1 POP PUSH2 0xA80 DUP2 PUSH2 0xA5C JUMP JUMPDEST SWAP3 SWAP2 POP POP JUMP JUMPDEST PUSH0 PUSH1 0x20 DUP3 DUP5 SUB SLT ISZERO PUSH2 0xA9B JUMPI PUSH2 0xA9A PUSH2 0xA58 JUMP JUMPDEST JUMPDEST PUSH0 PUSH2 0xAA8 DUP5 DUP3 DUP6 ADD PUSH2 0xA72 JUMP JUMPDEST SWAP2 POP POP SWAP3 SWAP2 POP POP JUMP JUMPDEST PUSH0 PUSH20 0xFFFFFFFFFFFFFFFFFFFFFFFFFFFFFFFFFFFFFFFF DUP3 AND SWAP1 POP SWAP2 SWAP1 POP JUMP JUMPDEST PUSH0 PUSH2 0xADA DUP3 PUSH2 0xAB1 JUMP JUMPDEST SWAP1 POP SWAP2 SWAP1 POP JUMP JUMPDEST PUSH2 0xAEA DUP2 PUSH2 0xAD0 JUMP JUMPDEST DUP2 EQ PUSH2 0xAF4 JUMPI PUSH0 PUSH0 REVERT JUMPDEST POP JUMP JUMPDEST PUSH0 DUP2 CALLDATALOAD SWAP1 POP PUSH2 0xB05 DUP2 PUSH2 0xAE1 JUMP JUMPDEST SWAP3 SWAP2 POP POP JUMP JUMPDEST PUSH0 PUSH1 0x20 DUP3 DUP5 SUB SLT ISZERO PUSH2 0xB20 JUMPI PUSH2 0xB1F PUSH2 0xA58 JUMP JUMPDEST JUMPDEST PUSH0 PUSH2 0xB2D DUP5 DUP3 DUP6 ADD PUSH2 0xAF7 JUMP JUMPDEST SWAP2 POP POP SWAP3 SWAP2 POP POP JUMP JUMPDEST PUSH0 PUSH16 0xFFFFFFFFFFFFFFFFFFFFFFFFFFFFFFFF DUP3 AND SWAP1 POP SWAP2 SWAP1 POP JUMP JUMPDEST PUSH2 0xB5A DUP2 PUSH2 0xB36 JUMP JUMPDEST DUP3 MSTORE POP POP JUMP JUMPDEST PUSH0 PUSH1 0x20 DUP3 ADD SWAP1 POP PUSH2 0xB73 PUSH0 DUP4 ADD DUP5 PUSH2 0xB51 JUMP JUMPDEST SWAP3 SWAP2 POP POP JUMP JUMPDEST PUSH2 0xB82 DUP2 PUSH2 0xAD0 JUMP JUMPDEST DUP3 MSTORE POP POP JUMP JUMPDEST PUSH0 PUSH1 0x40 DUP3 ADD SWAP1 POP PUSH2 0xB9B PUSH0 DUP4 ADD DUP6 PUSH2 0xB79 JUMP JUMPDEST PUSH2 0xBA8 PUSH1 0x20 DUP4 ADD DUP5 PUSH2 0xA30 JUMP JUMPDEST SWAP4 SWAP3 POP POP POP JUMP JUMPDEST PUSH32 0x4E487B7100000000000000000000000000000000000000000000000000000000 PUSH0 MSTORE PUSH1 0x11 PUSH1 0x4 MSTORE PUSH1 0x24 PUSH0 REVERT JUMPDEST PUSH0 PUSH2 0xBE6 DUP3 PUSH2 0xA27 JUMP JUMPDEST SWAP2 POP PUSH2 0xBF1 DUP4 PUSH2 0xA27 JUMP JUMPDEST SWAP3 POP DUP3 DUP3 SUB SWAP1 POP DUP2 DUP2 GT ISZERO PUSH2 0xC09 JUMPI PUSH2 0xC08 PUSH2 0xBAF JUMP JUMPDEST JUMPDEST SWAP3 SWAP2 POP POP JUMP JUMPDEST PUSH0 PUSH4 0xFFFFFFFF DUP3 AND SWAP1 POP SWAP2 SWAP1 POP JUMP JUMPDEST PUSH0 PUSH2 0xC28 DUP3 PUSH2 0xC0F JUMP JUMPDEST SWAP2 POP PUSH4 0xFFFFFFFF DUP3 SUB PUSH2 0xC3E JUMPI PUSH2 0xC3D PUSH2 0xBAF JUMP JUMPDEST JUMPDEST PUSH1 0x1 DUP3 ADD SWAP1 POP SWAP2 SWAP1 POP JUMP JUMPDEST PUSH0 PUSH2 0xC53 DUP3 PUSH2 0xA27 JUMP JUMPDEST SWAP2 POP PUSH2 0xC5E DUP4 PUSH2 0xA27 JUMP JUMPDEST SWAP3 POP DUP3 DUP3 ADD SWAP1 POP DUP1 DUP3 GT ISZERO PUSH2 0xC76 JUMPI PUSH2 0xC75 PUSH2 0xBAF JUMP JUMPDEST JUMPDEST SWAP3 SWAP2 POP POP JUMP JUMPDEST PUSH0 DUP2 SWAP1 POP SWAP3 SWAP2 POP POP JUMP JUMPDEST POP JUMP JUMPDEST PUSH0 PUSH2 0xC94 PUSH0 DUP4 PUSH2 0xC7C JUMP JUMPDEST SWAP2 POP PUSH2 0xC9F DUP3 PUSH2 0xC86 JUMP JUMPDEST PUSH0 DUP3 ADD SWAP1 POP SWAP2 SWAP1 POP JUMP JUMPDEST PUSH0 PUSH2 0xCB3 DUP3 PUSH2 0xC89 JUMP JUMPDEST SWAP2 POP DUP2 SWAP1 POP SWAP2 SWAP1 POP JUMP JUMPDEST PUSH0 DUP2 MLOAD SWAP1 POP SWAP2 SWAP1 POP JUMP JUMPDEST PUSH0 DUP3 DUP3 MSTORE PUSH1 0x20 DUP3 ADD SWAP1 POP SWAP3 SWAP2 POP POP JUMP JUMPDEST DUP3 DUP2 DUP4 MCOPY PUSH0 DUP4 DUP4 ADD MSTORE POP POP POP JUMP JUMPDEST PUSH0 PUSH1 0x1F NOT PUSH1 0x1F DUP4 ADD AND SWAP1 POP SWAP2 SWAP1 POP JUMP JUMPDEST PUSH0 PUSH2 0xCFF DUP3 PUSH2 0xCBD JUMP JUMPDEST PUSH2 0xD09 DUP2 DUP6 PUSH2 0xCC7 JUMP JUMPDEST SWAP4 POP PUSH2 0xD19 DUP2 DUP6 PUSH1 0x20 DUP7 ADD PUSH2 0xCD7 JUMP JUMPDEST PUSH2 0xD22 DUP2 PUSH2 0xCE5 JUMP JUMPDEST DUP5 ADD SWAP2 POP POP SWAP3 SWAP2 POP POP JUMP JUMPDEST PUSH0 PUSH1 0x60 DUP3 ADD SWAP1 POP PUSH2 0xD40 PUSH0 DUP4 ADD DUP7 PUSH2 0xB79 JUMP JUMPDEST PUSH2 0xD4D PUSH1 0x20 DUP4 ADD DUP6 PUSH2 0xA30 JUMP JUMPDEST DUP2 DUP2 SUB PUSH1 0x40 DUP4 ADD MSTORE PUSH2 0xD5F DUP2 DUP5 PUSH2 0xCF5 JUMP JUMPDEST SWAP1 POP SWAP5 SWAP4 POP POP POP POP JUMP INVALID LOG2 PUSH5 0x6970667358 0x22 SLT KECCAK256 PUSH2 0x638E 0xCE 0x2F BASEFEE PUSH18 0x7606EC293A1BDE88BEBF0A903F891FC5AD36 0xD6 0xDD BLOCKHASH CALLDATACOPY EXTSTATICCALL SDIV PUSH1 0x64 PUSH20 0x6F6C634300081E00330000000000000000000000 "
				},
				"gasEstimates": {
					"creation": {
						"codeDepositCost": "697400",
						"executionCost": "infinite",
						"totalCost": "infinite"
					},
					"external": {
						"deposit()": "infinite",
						"getBalance()": "2519",
						"getBalance(address)": "2916",
						"getDeposits()": "2649",
						"getDeposits(address)": "2914",
						"getWithdrawals()": "2627",
						"getWithdrawals(address)": "2915",
						"s_bankCap()": "infinite",
						"s_withdrawLimit()": "infinite",
						"withdraw(uint256)": "infinite"
					},
					"internal": {
						"transferFunds(uint256)": "infinite"
					}
				},
				"methodIdentifiers": {
					"deposit()": "d0e30db0",
					"getBalance()": "12065fe0",
					"getBalance(address)": "f8b2cb4f",
					"getDeposits()": "6b149d87",
					"getDeposits(address)": "94f649dd",
					"getWithdrawals()": "50d6c1e8",
					"getWithdrawals(address)": "3a2b643a",
					"s_bankCap()": "80ef10ed",
					"s_withdrawLimit()": "7f86ee43",
					"withdraw(uint256)": "2e1a7d4d"
				}
			},
			"storageLayout": {
				"storage": [
					{
						"astId": 6,
						"contract": "contracts/KipuBank.sol:KipuBank",
						"label": "s_balances",
						"offset": 0,
						"slot": "0",
						"type": "t_mapping(t_address,t_uint256)"
					},
					{
						"astId": 10,
						"contract": "contracts/KipuBank.sol:KipuBank",
						"label": "s_deposits",
						"offset": 0,
						"slot": "1",
						"type": "t_mapping(t_address,t_uint32)"
					},
					{
						"astId": 14,
						"contract": "contracts/KipuBank.sol:KipuBank",
						"label": "s_withdrawals",
						"offset": 0,
						"slot": "2",
						"type": "t_mapping(t_address,t_uint32)"
					}
				],
				"types": {
					"t_address": {
						"encoding": "inplace",
						"label": "address",
						"numberOfBytes": "20"
					},
					"t_mapping(t_address,t_uint256)": {
						"encoding": "mapping",
						"key": "t_address",
						"label": "mapping(address => uint256)",
						"numberOfBytes": "32",
						"value": "t_uint256"
					},
					"t_mapping(t_address,t_uint32)": {
						"encoding": "mapping",
						"key": "t_address",
						"label": "mapping(address => uint32)",
						"numberOfBytes": "32",
						"value": "t_uint32"
					},
					"t_uint256": {
						"encoding": "inplace",
						"label": "uint256",
						"numberOfBytes": "32"
					},
					"t_uint32": {
						"encoding": "inplace",
						"label": "uint32",
						"numberOfBytes": "4"
					}
				}
			},
			"userdoc": {
				"errors": {
					"DepositNotAllowed(address,uint256)": [
						{
							"notice": "error emitido cuando se intenta depositar una cantidad inválida (=0, o la cuenta superaría el bankCap)"
						}
					],
					"ExtractionNotAllowed(address,uint256)": [
						{
							"notice": "error emitido cuando se intenta extraer una cantidad inválda (<=0, >=saldo, >límite)"
						}
					],
					"ExtractionReverted(address,uint256,bytes)": [
						{
							"notice": "error emitido cuando falla una extracción"
						}
					]
				},
				"kind": "user",
				"methods": {
					"deposit()": {
						"notice": "Función para hacer un depósitoSólo se puede depositar un valor mayor a 0, siempre que no se supere el bankCap"
					},
					"getBalance()": {
						"notice": "Función pública para ver el balance que uno mismo tiene"
					},
					"getBalance(address)": {
						"notice": "Función pública para ver el balance que algún usuario tiene"
					},
					"getDeposits()": {
						"notice": "Función pública para ver la cantidad de depósitos que uno hizo"
					},
					"getDeposits(address)": {
						"notice": "Función pública para ver la cantidad de depósitos que algún usuario hizo"
					},
					"getWithdrawals()": {
						"notice": "Función pública para ver la cantidad de extracciones que uno hizo"
					},
					"getWithdrawals(address)": {
						"notice": "Función pública para ver la cantidad de extracciones que algún usuario hizo"
					},
					"withdraw(uint256)": {
						"notice": "Función para hacer un depósito"
					}
				},
				"notice": "Contrato para el TP Final del Módulo 2 del curso de EthKipu",
				"version": 1
			}
		}
	}
}