{
	"contracts/KipuBank.sol": {
		"KipuBank": {
			"abi": [
				{
					"inputs": [
						{
							"internalType": "uint128",
							"name": "_banckCap",
							"type": "uint128"
						}
					],
					"stateMutability": "nonpayable",
					"type": "constructor"
				},
				{
					"inputs": [
						{
							"internalType": "address",
							"name": "to",
							"type": "address"
						},
						{
							"internalType": "uint256",
							"name": "amount",
							"type": "uint256"
						}
					],
					"name": "DepositNotAllowed",
					"type": "error"
				},
				{
					"inputs": [
						{
							"internalType": "address",
							"name": "to",
							"type": "address"
						},
						{
							"internalType": "uint256",
							"name": "amount",
							"type": "uint256"
						}
					],
					"name": "ExtractionNotAllowed",
					"type": "error"
				},
				{
					"inputs": [
						{
							"internalType": "address",
							"name": "to",
							"type": "address"
						},
						{
							"internalType": "uint256",
							"name": "amount",
							"type": "uint256"
						},
						{
							"internalType": "bytes",
							"name": "errorData",
							"type": "bytes"
						}
					],
					"name": "ExtractionReverted",
					"type": "error"
				},
				{
					"inputs": [
						{
							"internalType": "address",
							"name": "user",
							"type": "address"
						}
					],
					"name": "NotAnAuditor",
					"type": "error"
				},
				{
					"anonymous": false,
					"inputs": [
						{
							"indexed": false,
							"internalType": "address",
							"name": "from",
							"type": "address"
						},
						{
							"indexed": false,
							"internalType": "uint256",
							"name": "amount",
							"type": "uint256"
						}
					],
					"name": "DepositRequest",
					"type": "event"
				},
				{
					"anonymous": false,
					"inputs": [
						{
							"indexed": false,
							"internalType": "address",
							"name": "from",
							"type": "address"
						},
						{
							"indexed": false,
							"internalType": "uint256",
							"name": "amount",
							"type": "uint256"
						}
					],
					"name": "Deposited",
					"type": "event"
				},
				{
					"anonymous": false,
					"inputs": [
						{
							"indexed": false,
							"internalType": "address",
							"name": "to",
							"type": "address"
						},
						{
							"indexed": false,
							"internalType": "uint256",
							"name": "amount",
							"type": "uint256"
						}
					],
					"name": "Extracted",
					"type": "event"
				},
				{
					"anonymous": false,
					"inputs": [
						{
							"indexed": false,
							"internalType": "address",
							"name": "to",
							"type": "address"
						},
						{
							"indexed": false,
							"internalType": "uint256",
							"name": "amount",
							"type": "uint256"
						}
					],
					"name": "ExtractionRequest",
					"type": "event"
				},
				{
					"inputs": [],
					"name": "deposit",
					"outputs": [],
					"stateMutability": "payable",
					"type": "function"
				},
				{
					"inputs": [],
					"name": "getBalance",
					"outputs": [
						{
							"internalType": "uint256",
							"name": "balance_",
							"type": "uint256"
						}
					],
					"stateMutability": "view",
					"type": "function"
				},
				{
					"inputs": [
						{
							"internalType": "address",
							"name": "user_",
							"type": "address"
						}
					],
					"name": "getBalance",
					"outputs": [
						{
							"internalType": "uint256",
							"name": "balance_",
							"type": "uint256"
						}
					],
					"stateMutability": "view",
					"type": "function"
				},
				{
					"inputs": [],
					"name": "getDeposits",
					"outputs": [
						{
							"internalType": "uint256",
							"name": "deposits_",
							"type": "uint256"
						}
					],
					"stateMutability": "view",
					"type": "function"
				},
				{
					"inputs": [
						{
							"internalType": "address",
							"name": "user_",
							"type": "address"
						}
					],
					"name": "getDeposits",
					"outputs": [
						{
							"internalType": "uint256",
							"name": "deposits_",
							"type": "uint256"
						}
					],
					"stateMutability": "view",
					"type": "function"
				},
				{
					"inputs": [
						{
							"internalType": "address",
							"name": "user_",
							"type": "address"
						}
					],
					"name": "getWithdrawals",
					"outputs": [
						{
							"internalType": "uint256",
							"name": "withdrawals_",
							"type": "uint256"
						}
					],
					"stateMutability": "view",
					"type": "function"
				},
				{
					"inputs": [],
					"name": "getWithdrawals",
					"outputs": [
						{
							"internalType": "uint256",
							"name": "withdrawals_",
							"type": "uint256"
						}
					],
					"stateMutability": "view",
					"type": "function"
				},
				{
					"inputs": [],
					"name": "s_bankCap",
					"outputs": [
						{
							"internalType": "uint128",
							"name": "",
							"type": "uint128"
						}
					],
					"stateMutability": "view",
					"type": "function"
				},
				{
					"inputs": [],
					"name": "s_owner",
					"outputs": [
						{
							"internalType": "address",
							"name": "",
							"type": "address"
						}
					],
					"stateMutability": "view",
					"type": "function"
				},
				{
					"inputs": [],
					"name": "s_withdrawLimit",
					"outputs": [
						{
							"internalType": "uint128",
							"name": "",
							"type": "uint128"
						}
					],
					"stateMutability": "view",
					"type": "function"
				},
				{
					"inputs": [
						{
							"internalType": "uint256",
							"name": "amount_",
							"type": "uint256"
						}
					],
					"name": "withdraw",
					"outputs": [],
					"stateMutability": "nonpayable",
					"type": "function"
				}
			],
			"devdoc": {
				"author": "Erik Borgnia",
				"kind": "dev",
				"methods": {
					"getBalance(address)": {
						"details": "Esta función garantiza que toda la información es auditable",
						"params": {
							"user_": "Usuario que se quiere auditar"
						}
					},
					"getDeposits(address)": {
						"details": "Esta función garantiza que toda la información es auditable",
						"params": {
							"user_": "Usuario que se quiere auditar"
						}
					},
					"getWithdrawals(address)": {
						"details": "Esta función garantiza que toda la información es auditable",
						"params": {
							"user_": "Usuario que se quiere auditar"
						}
					},
					"withdraw(uint256)": {
						"details": "Sólo se puede depositar un valor mayor a 0, siempre que no se supere el bankCap",
						"params": {
							"amount_": "Cantidad que se quiere extraer. Debe ser <= al balance y al límite de extracción"
						}
					}
				},
				"title": "KipuBank",
				"version": 1
			},
			"evm": {
				"assembly": "    /* \"contracts/KipuBank.sol\":297:6347  contract KipuBank{... */\n  mstore(0x40, 0xe0)\n    /* \"contracts/KipuBank.sol\":1032:1046  10000000000000 */\n  0x09184e72a000\n    /* \"contracts/KipuBank.sol\":989:1046  uint128 public immutable s_withdrawLimit = 10000000000000 */\n  0xffffffffffffffffffffffffffffffff\n  and\n  0xc0\n  swap1\n  0xffffffffffffffffffffffffffffffff\n  and\n  dup2\n  mstore\n  pop\n    /* \"contracts/KipuBank.sol\":2433:2535  constructor(uint128 _banckCap) {... */\n  callvalue\n  dup1\n  iszero\n  tag_1\n  jumpi\n  revert(0x00, 0x00)\ntag_1:\n  pop\n  mload(0x40)\n  sub(codesize, bytecodeSize)\n  dup1\n  bytecodeSize\n  dup4\n  codecopy\n  dup2\n  dup2\n  add\n  0x40\n  mstore\n  dup2\n  add\n  swap1\n  tag_2\n  swap2\n  swap1\n  tag_3\n  jump\t// in\ntag_2:\n    /* \"contracts/KipuBank.sol\":2487:2496  _banckCap */\n  dup1\n    /* \"contracts/KipuBank.sol\":2475:2496  s_bankCap = _banckCap */\n  0xffffffffffffffffffffffffffffffff\n  and\n  0xa0\n  dup2\n  0xffffffffffffffffffffffffffffffff\n  and\n  dup2\n  mstore\n  pop\n  pop\n    /* \"contracts/KipuBank.sol\":2517:2527  msg.sender */\n  caller\n    /* \"contracts/KipuBank.sol\":2507:2527  s_owner = msg.sender */\n  0xffffffffffffffffffffffffffffffffffffffff\n  and\n  0x80\n  dup2\n  0xffffffffffffffffffffffffffffffffffffffff\n  and\n  dup2\n  mstore\n  pop\n  pop\n    /* \"contracts/KipuBank.sol\":2433:2535  constructor(uint128 _banckCap) {... */\n  pop\n    /* \"contracts/KipuBank.sol\":297:6347  contract KipuBank{... */\n  jump(tag_6)\n    /* \"#utility.yul\":88:205   */\ntag_8:\n    /* \"#utility.yul\":197:198   */\n  0x00\n    /* \"#utility.yul\":194:195   */\n  0x00\n    /* \"#utility.yul\":187:199   */\n  revert\n    /* \"#utility.yul\":334:452   */\ntag_10:\n    /* \"#utility.yul\":371:378   */\n  0x00\n    /* \"#utility.yul\":411:445   */\n  0xffffffffffffffffffffffffffffffff\n    /* \"#utility.yul\":404:409   */\n  dup3\n    /* \"#utility.yul\":400:446   */\n  and\n    /* \"#utility.yul\":389:446   */\n  swap1\n  pop\n    /* \"#utility.yul\":334:452   */\n  swap2\n  swap1\n  pop\n  jump\t// out\n    /* \"#utility.yul\":458:580   */\ntag_11:\n    /* \"#utility.yul\":531:555   */\n  tag_19\n    /* \"#utility.yul\":549:554   */\n  dup2\n    /* \"#utility.yul\":531:555   */\n  tag_10\n  jump\t// in\ntag_19:\n    /* \"#utility.yul\":524:529   */\n  dup2\n    /* \"#utility.yul\":521:556   */\n  eq\n    /* \"#utility.yul\":511:574   */\n  tag_20\n  jumpi\n    /* \"#utility.yul\":570:571   */\n  0x00\n    /* \"#utility.yul\":567:568   */\n  0x00\n    /* \"#utility.yul\":560:572   */\n  revert\n    /* \"#utility.yul\":511:574   */\ntag_20:\n    /* \"#utility.yul\":458:580   */\n  pop\n  jump\t// out\n    /* \"#utility.yul\":586:729   */\ntag_12:\n    /* \"#utility.yul\":643:648   */\n  0x00\n    /* \"#utility.yul\":674:680   */\n  dup2\n    /* \"#utility.yul\":668:681   */\n  mload\n    /* \"#utility.yul\":659:681   */\n  swap1\n  pop\n    /* \"#utility.yul\":690:723   */\n  tag_22\n    /* \"#utility.yul\":717:722   */\n  dup2\n    /* \"#utility.yul\":690:723   */\n  tag_11\n  jump\t// in\ntag_22:\n    /* \"#utility.yul\":586:729   */\n  swap3\n  swap2\n  pop\n  pop\n  jump\t// out\n    /* \"#utility.yul\":735:1086   */\ntag_3:\n    /* \"#utility.yul\":805:811   */\n  0x00\n    /* \"#utility.yul\":854:856   */\n  0x20\n    /* \"#utility.yul\":842:851   */\n  dup3\n    /* \"#utility.yul\":833:840   */\n  dup5\n    /* \"#utility.yul\":829:852   */\n  sub\n    /* \"#utility.yul\":825:857   */\n  slt\n    /* \"#utility.yul\":822:941   */\n  iszero\n  tag_24\n  jumpi\n    /* \"#utility.yul\":860:939   */\n  tag_25\n  tag_8\n  jump\t// in\ntag_25:\n    /* \"#utility.yul\":822:941   */\ntag_24:\n    /* \"#utility.yul\":980:981   */\n  0x00\n    /* \"#utility.yul\":1005:1069   */\n  tag_26\n    /* \"#utility.yul\":1061:1068   */\n  dup5\n    /* \"#utility.yul\":1052:1058   */\n  dup3\n    /* \"#utility.yul\":1041:1050   */\n  dup6\n    /* \"#utility.yul\":1037:1059   */\n  add\n    /* \"#utility.yul\":1005:1069   */\n  tag_12\n  jump\t// in\ntag_26:\n    /* \"#utility.yul\":995:1069   */\n  swap2\n  pop\n    /* \"#utility.yul\":951:1079   */\n  pop\n    /* \"#utility.yul\":735:1086   */\n  swap3\n  swap2\n  pop\n  pop\n  jump\t// out\n    /* \"contracts/KipuBank.sol\":297:6347  contract KipuBank{... */\ntag_6:\n  mload(0x80)\n  mload(0xa0)\n  mload(0xc0)\n  codecopy(0x00, dataOffset(sub_0), dataSize(sub_0))\n  0x00\n  assignImmutable(\"0x58a280f74f57bf051c40f060139dc747e015be52f68c57e2c4ab2e4bd4146f43\")\n  0x00\n  assignImmutable(\"0x1572b593c53d839d80004aa4b8c51211864104f06ace9e22be9c4365b50655ea\")\n  0x00\n  assignImmutable(\"0xceebf77a833b30520287ddd9478ff51abbdffa30aa90a8d655dba0e8a79ce0c1\")\n  return(0x00, dataSize(sub_0))\nstop\n\nsub_0: assembly {\n        /* \"contracts/KipuBank.sol\":297:6347  contract KipuBank{... */\n      mstore(0x40, 0x80)\n      jumpi(tag_1, lt(calldatasize, 0x04))\n      shr(0xe0, calldataload(0x00))\n      dup1\n      0x7f86ee43\n      gt\n      tag_13\n      jumpi\n      dup1\n      0x7f86ee43\n      eq\n      tag_7\n      jumpi\n      dup1\n      0x80ef10ed\n      eq\n      tag_8\n      jumpi\n      dup1\n      0x94f649dd\n      eq\n      tag_9\n      jumpi\n      dup1\n      0xd0e30db0\n      eq\n      tag_10\n      jumpi\n      dup1\n      0xe3978240\n      eq\n      tag_11\n      jumpi\n      dup1\n      0xf8b2cb4f\n      eq\n      tag_12\n      jumpi\n      jump(tag_1)\n    tag_13:\n      dup1\n      0x12065fe0\n      eq\n      tag_2\n      jumpi\n      dup1\n      0x2e1a7d4d\n      eq\n      tag_3\n      jumpi\n      dup1\n      0x3a2b643a\n      eq\n      tag_4\n      jumpi\n      dup1\n      0x50d6c1e8\n      eq\n      tag_5\n      jumpi\n      dup1\n      0x6b149d87\n      eq\n      tag_6\n      jumpi\n    tag_1:\n      revert(0x00, 0x00)\n        /* \"contracts/KipuBank.sol\":3221:3332  function getBalance() external view returns(uint balance_) {... */\n    tag_2:\n      callvalue\n      dup1\n      iszero\n      tag_14\n      jumpi\n      revert(0x00, 0x00)\n    tag_14:\n      pop\n      tag_15\n      tag_16\n      jump\t// in\n    tag_15:\n      mload(0x40)\n      tag_17\n      swap2\n      swap1\n      tag_18\n      jump\t// in\n    tag_17:\n      mload(0x40)\n      dup1\n      swap2\n      sub\n      swap1\n      return\n        /* \"contracts/KipuBank.sol\":5345:5896  function withdraw(uint amount_) public {... */\n    tag_3:\n      callvalue\n      dup1\n      iszero\n      tag_19\n      jumpi\n      revert(0x00, 0x00)\n    tag_19:\n      pop\n      tag_20\n      0x04\n      dup1\n      calldatasize\n      sub\n      dup2\n      add\n      swap1\n      tag_21\n      swap2\n      swap1\n      tag_22\n      jump\t// in\n    tag_21:\n      tag_23\n      jump\t// in\n    tag_20:\n      stop\n        /* \"contracts/KipuBank.sol\":4873:5071  function getWithdrawals(address user_) external view returns(uint withdrawals_) {... */\n    tag_4:\n      callvalue\n      dup1\n      iszero\n      tag_24\n      jumpi\n      revert(0x00, 0x00)\n    tag_24:\n      pop\n      tag_25\n      0x04\n      dup1\n      calldatasize\n      sub\n      dup2\n      add\n      swap1\n      tag_26\n      swap2\n      swap1\n      tag_27\n      jump\t// in\n    tag_26:\n      tag_28\n      jump\t// in\n    tag_25:\n      mload(0x40)\n      tag_29\n      swap2\n      swap1\n      tag_18\n      jump\t// in\n    tag_29:\n      mload(0x40)\n      dup1\n      swap2\n      sub\n      swap1\n      return\n        /* \"contracts/KipuBank.sol\":3662:3788  function getWithdrawals() external view returns(uint withdrawals_) {... */\n    tag_5:\n      callvalue\n      dup1\n      iszero\n      tag_30\n      jumpi\n      revert(0x00, 0x00)\n    tag_30:\n      pop\n      tag_31\n      tag_32\n      jump\t// in\n    tag_31:\n      mload(0x40)\n      tag_33\n      swap2\n      swap1\n      tag_18\n      jump\t// in\n    tag_33:\n      mload(0x40)\n      dup1\n      swap2\n      sub\n      swap1\n      return\n        /* \"contracts/KipuBank.sol\":3439:3553  function getDeposits() external view returns(uint deposits_) {... */\n    tag_6:\n      callvalue\n      dup1\n      iszero\n      tag_34\n      jumpi\n      revert(0x00, 0x00)\n    tag_34:\n      pop\n      tag_35\n      tag_36\n      jump\t// in\n    tag_35:\n      mload(0x40)\n      tag_37\n      swap2\n      swap1\n      tag_18\n      jump\t// in\n    tag_37:\n      mload(0x40)\n      dup1\n      swap2\n      sub\n      swap1\n      return\n        /* \"contracts/KipuBank.sol\":989:1046  uint128 public immutable s_withdrawLimit = 10000000000000 */\n    tag_7:\n      callvalue\n      dup1\n      iszero\n      tag_38\n      jumpi\n      revert(0x00, 0x00)\n    tag_38:\n      pop\n      tag_39\n      tag_40\n      jump\t// in\n    tag_39:\n      mload(0x40)\n      tag_41\n      swap2\n      swap1\n      tag_42\n      jump\t// in\n    tag_41:\n      mload(0x40)\n      dup1\n      swap2\n      sub\n      swap1\n      return\n        /* \"contracts/KipuBank.sol\":898:932  uint128 public immutable s_bankCap */\n    tag_8:\n      callvalue\n      dup1\n      iszero\n      tag_43\n      jumpi\n      revert(0x00, 0x00)\n    tag_43:\n      pop\n      tag_44\n      tag_45\n      jump\t// in\n    tag_44:\n      mload(0x40)\n      tag_46\n      swap2\n      swap1\n      tag_42\n      jump\t// in\n    tag_46:\n      mload(0x40)\n      dup1\n      swap2\n      sub\n      swap1\n      return\n        /* \"contracts/KipuBank.sol\":4443:4629  function getDeposits(address user_) external view returns(uint deposits_) {... */\n    tag_9:\n      callvalue\n      dup1\n      iszero\n      tag_47\n      jumpi\n      revert(0x00, 0x00)\n    tag_47:\n      pop\n      tag_48\n      0x04\n      dup1\n      calldatasize\n      sub\n      dup2\n      add\n      swap1\n      tag_49\n      swap2\n      swap1\n      tag_27\n      jump\t// in\n    tag_49:\n      tag_50\n      jump\t// in\n    tag_48:\n      mload(0x40)\n      tag_51\n      swap2\n      swap1\n      tag_18\n      jump\t// in\n    tag_51:\n      mload(0x40)\n      dup1\n      swap2\n      sub\n      swap1\n      return\n        /* \"contracts/KipuBank.sol\":2704:3120  function deposit() public payable {... */\n    tag_10:\n      tag_52\n      tag_53\n      jump\t// in\n    tag_52:\n      stop\n        /* \"contracts/KipuBank.sol\":376:408  address public immutable s_owner */\n    tag_11:\n      callvalue\n      dup1\n      iszero\n      tag_54\n      jumpi\n      revert(0x00, 0x00)\n    tag_54:\n      pop\n      tag_55\n      tag_56\n      jump\t// in\n    tag_55:\n      mload(0x40)\n      tag_57\n      swap2\n      swap1\n      tag_58\n      jump\t// in\n    tag_57:\n      mload(0x40)\n      dup1\n      swap2\n      sub\n      swap1\n      return\n        /* \"contracts/KipuBank.sol\":4018:4201  function getBalance(address user_) external view returns(uint balance_) {... */\n    tag_12:\n      callvalue\n      dup1\n      iszero\n      tag_59\n      jumpi\n      revert(0x00, 0x00)\n    tag_59:\n      pop\n      tag_60\n      0x04\n      dup1\n      calldatasize\n      sub\n      dup2\n      add\n      swap1\n      tag_61\n      swap2\n      swap1\n      tag_27\n      jump\t// in\n    tag_61:\n      tag_62\n      jump\t// in\n    tag_60:\n      mload(0x40)\n      tag_63\n      swap2\n      swap1\n      tag_18\n      jump\t// in\n    tag_63:\n      mload(0x40)\n      dup1\n      swap2\n      sub\n      swap1\n      return\n        /* \"contracts/KipuBank.sol\":3221:3332  function getBalance() external view returns(uint balance_) {... */\n    tag_16:\n        /* \"contracts/KipuBank.sol\":3265:3278  uint balance_ */\n      0x00\n        /* \"contracts/KipuBank.sol\":3302:3312  s_balances */\n      0x00\n        /* \"contracts/KipuBank.sol\":3302:3324  s_balances[msg.sender] */\n      0x00\n        /* \"contracts/KipuBank.sol\":3313:3323  msg.sender */\n      caller\n        /* \"contracts/KipuBank.sol\":3302:3324  s_balances[msg.sender] */\n      0xffffffffffffffffffffffffffffffffffffffff\n      and\n      0xffffffffffffffffffffffffffffffffffffffff\n      and\n      dup2\n      mstore\n      0x20\n      add\n      swap1\n      dup2\n      mstore\n      0x20\n      add\n      0x00\n      keccak256\n      sload\n        /* \"contracts/KipuBank.sol\":3291:3324  balance_ = s_balances[msg.sender] */\n      swap1\n      pop\n        /* \"contracts/KipuBank.sol\":3221:3332  function getBalance() external view returns(uint balance_) {... */\n      swap1\n      jump\t// out\n        /* \"contracts/KipuBank.sol\":5345:5896  function withdraw(uint amount_) public {... */\n    tag_23:\n        /* \"contracts/KipuBank.sol\":5400:5438  ExtractionRequest(msg.sender, amount_) */\n      0x3175035b120f22d7e7407b9f06f080ef0dbba46bb02a00e41a7b070b43cc8db9\n        /* \"contracts/KipuBank.sol\":5418:5428  msg.sender */\n      caller\n        /* \"contracts/KipuBank.sol\":5430:5437  amount_ */\n      dup3\n        /* \"contracts/KipuBank.sol\":5400:5438  ExtractionRequest(msg.sender, amount_) */\n      mload(0x40)\n      tag_66\n      swap3\n      swap2\n      swap1\n      tag_67\n      jump\t// in\n    tag_66:\n      mload(0x40)\n      dup1\n      swap2\n      sub\n      swap1\n      log1\n        /* \"contracts/KipuBank.sol\":5467:5468  0 */\n      0x00\n        /* \"contracts/KipuBank.sol\":5457:5464  amount_ */\n      dup2\n        /* \"contracts/KipuBank.sol\":5457:5468  amount_ > 0 */\n      gt\n        /* \"contracts/KipuBank.sol\":5491:5501  msg.sender */\n      caller\n        /* \"contracts/KipuBank.sol\":5503:5510  amount_ */\n      dup3\n        /* \"contracts/KipuBank.sol\":5449:5512  require(amount_ > 0, ExtractionNotAllowed(msg.sender, amount_)) */\n      swap1\n      swap2\n      tag_68\n      jumpi\n      mload(0x40)\n      0xf607410700000000000000000000000000000000000000000000000000000000\n      dup2\n      mstore\n      0x04\n      add\n      tag_69\n      swap3\n      swap2\n      swap1\n      tag_67\n      jump\t// in\n    tag_69:\n      mload(0x40)\n      dup1\n      swap2\n      sub\n      swap1\n      revert\n    tag_68:\n      pop\n      pop\n        /* \"contracts/KipuBank.sol\":5542:5552  s_balances */\n      0x00\n        /* \"contracts/KipuBank.sol\":5542:5564  s_balances[msg.sender] */\n      0x00\n        /* \"contracts/KipuBank.sol\":5553:5563  msg.sender */\n      caller\n        /* \"contracts/KipuBank.sol\":5542:5564  s_balances[msg.sender] */\n      0xffffffffffffffffffffffffffffffffffffffff\n      and\n      0xffffffffffffffffffffffffffffffffffffffff\n      and\n      dup2\n      mstore\n      0x20\n      add\n      swap1\n      dup2\n      mstore\n      0x20\n      add\n      0x00\n      keccak256\n      sload\n        /* \"contracts/KipuBank.sol\":5531:5538  amount_ */\n      dup2\n        /* \"contracts/KipuBank.sol\":5531:5564  amount_ <= s_balances[msg.sender] */\n      gt\n      iszero\n        /* \"contracts/KipuBank.sol\":5587:5597  msg.sender */\n      caller\n        /* \"contracts/KipuBank.sol\":5599:5606  amount_ */\n      dup3\n        /* \"contracts/KipuBank.sol\":5523:5608  require(amount_ <= s_balances[msg.sender], ExtractionNotAllowed(msg.sender, amount_)) */\n      swap1\n      swap2\n      tag_70\n      jumpi\n      mload(0x40)\n      0xf607410700000000000000000000000000000000000000000000000000000000\n      dup2\n      mstore\n      0x04\n      add\n      tag_71\n      swap3\n      swap2\n      swap1\n      tag_67\n      jump\t// in\n    tag_71:\n      mload(0x40)\n      dup1\n      swap2\n      sub\n      swap1\n      revert\n    tag_70:\n      pop\n      pop\n        /* \"contracts/KipuBank.sol\":5638:5653  s_withdrawLimit */\n      immutable(\"0x58a280f74f57bf051c40f060139dc747e015be52f68c57e2c4ab2e4bd4146f43\")\n        /* \"contracts/KipuBank.sol\":5627:5653  amount_ <= s_withdrawLimit */\n      0xffffffffffffffffffffffffffffffff\n      and\n        /* \"contracts/KipuBank.sol\":5627:5634  amount_ */\n      dup2\n        /* \"contracts/KipuBank.sol\":5627:5653  amount_ <= s_withdrawLimit */\n      gt\n      iszero\n        /* \"contracts/KipuBank.sol\":5676:5686  msg.sender */\n      caller\n        /* \"contracts/KipuBank.sol\":5688:5695  amount_ */\n      dup3\n        /* \"contracts/KipuBank.sol\":5619:5697  require(amount_ <= s_withdrawLimit, ExtractionNotAllowed(msg.sender, amount_)) */\n      swap1\n      swap2\n      tag_72\n      jumpi\n      mload(0x40)\n      0xf607410700000000000000000000000000000000000000000000000000000000\n      dup2\n      mstore\n      0x04\n      add\n      tag_73\n      swap3\n      swap2\n      swap1\n      tag_67\n      jump\t// in\n    tag_73:\n      mload(0x40)\n      dup1\n      swap2\n      sub\n      swap1\n      revert\n    tag_72:\n      pop\n      pop\n        /* \"contracts/KipuBank.sol\":5718:5740  transferFunds(amount_) */\n      tag_74\n        /* \"contracts/KipuBank.sol\":5732:5739  amount_ */\n      dup2\n        /* \"contracts/KipuBank.sol\":5718:5731  transferFunds */\n      tag_75\n        /* \"contracts/KipuBank.sol\":5718:5740  transferFunds(amount_) */\n      jump\t// in\n    tag_74:\n        /* \"contracts/KipuBank.sol\":5779:5786  amount_ */\n      dup1\n        /* \"contracts/KipuBank.sol\":5753:5763  s_balances */\n      0x00\n        /* \"contracts/KipuBank.sol\":5753:5775  s_balances[msg.sender] */\n      0x00\n        /* \"contracts/KipuBank.sol\":5764:5774  msg.sender */\n      caller\n        /* \"contracts/KipuBank.sol\":5753:5775  s_balances[msg.sender] */\n      0xffffffffffffffffffffffffffffffffffffffff\n      and\n      0xffffffffffffffffffffffffffffffffffffffff\n      and\n      dup2\n      mstore\n      0x20\n      add\n      swap1\n      dup2\n      mstore\n      0x20\n      add\n      0x00\n      keccak256\n      0x00\n        /* \"contracts/KipuBank.sol\":5753:5786  s_balances[msg.sender] -= amount_ */\n      dup3\n      dup3\n      sload\n      tag_76\n      swap2\n      swap1\n      tag_77\n      jump\t// in\n    tag_76:\n      swap3\n      pop\n      pop\n      dup2\n      swap1\n      sstore\n      pop\n        /* \"contracts/KipuBank.sol\":5797:5810  s_withdrawals */\n      0x02\n        /* \"contracts/KipuBank.sol\":5797:5822  s_withdrawals[msg.sender] */\n      0x00\n        /* \"contracts/KipuBank.sol\":5811:5821  msg.sender */\n      caller\n        /* \"contracts/KipuBank.sol\":5797:5822  s_withdrawals[msg.sender] */\n      0xffffffffffffffffffffffffffffffffffffffff\n      and\n      0xffffffffffffffffffffffffffffffffffffffff\n      and\n      dup2\n      mstore\n      0x20\n      add\n      swap1\n      dup2\n      mstore\n      0x20\n      add\n      0x00\n      keccak256\n      0x00\n        /* \"contracts/KipuBank.sol\":5797:5824  s_withdrawals[msg.sender]++ */\n      dup2\n      dup2\n      swap1\n      sload\n      swap1\n      0x0100\n      exp\n      swap1\n      div\n      0xffffffff\n      and\n      dup1\n      swap3\n      swap2\n      swap1\n      tag_78\n      swap1\n      tag_79\n      jump\t// in\n    tag_78:\n      swap2\n      swap1\n      0x0100\n      exp\n      dup2\n      sload\n      dup2\n      0xffffffff\n      mul\n      not\n      and\n      swap1\n      dup4\n      0xffffffff\n      and\n      mul\n      or\n      swap1\n      sstore\n      pop\n      pop\n        /* \"contracts/KipuBank.sol\":5850:5880  Extracted(msg.sender, amount_) */\n      0x69c169e5c85af54e1ca7e16608ccc812437821387924fb3353a7d053264ddaa0\n        /* \"contracts/KipuBank.sol\":5860:5870  msg.sender */\n      caller\n        /* \"contracts/KipuBank.sol\":5872:5879  amount_ */\n      dup3\n        /* \"contracts/KipuBank.sol\":5850:5880  Extracted(msg.sender, amount_) */\n      mload(0x40)\n      tag_80\n      swap3\n      swap2\n      swap1\n      tag_67\n      jump\t// in\n    tag_80:\n      mload(0x40)\n      dup1\n      swap2\n      sub\n      swap1\n      log1\n        /* \"contracts/KipuBank.sol\":5345:5896  function withdraw(uint amount_) public {... */\n      pop\n      jump\t// out\n        /* \"contracts/KipuBank.sol\":4873:5071  function getWithdrawals(address user_) external view returns(uint withdrawals_) {... */\n    tag_28:\n        /* \"contracts/KipuBank.sol\":4934:4951  uint withdrawals_ */\n      0x00\n        /* \"contracts/KipuBank.sol\":4984:4991  s_owner */\n      immutable(\"0xceebf77a833b30520287ddd9478ff51abbdffa30aa90a8d655dba0e8a79ce0c1\")\n        /* \"contracts/KipuBank.sol\":4972:4991  msg.sender==s_owner */\n      0xffffffffffffffffffffffffffffffffffffffff\n      and\n        /* \"contracts/KipuBank.sol\":4972:4982  msg.sender */\n      caller\n        /* \"contracts/KipuBank.sol\":4972:4991  msg.sender==s_owner */\n      0xffffffffffffffffffffffffffffffffffffffff\n      and\n      eq\n        /* \"contracts/KipuBank.sol\":5005:5015  msg.sender */\n      caller\n        /* \"contracts/KipuBank.sol\":4964:5017  require(msg.sender==s_owner,NotAnAuditor(msg.sender)) */\n      swap1\n      tag_82\n      jumpi\n      mload(0x40)\n      0xccb6416a00000000000000000000000000000000000000000000000000000000\n      dup2\n      mstore\n      0x04\n      add\n      tag_83\n      swap2\n      swap1\n      tag_58\n      jump\t// in\n    tag_83:\n      mload(0x40)\n      dup1\n      swap2\n      sub\n      swap1\n      revert\n    tag_82:\n      pop\n        /* \"contracts/KipuBank.sol\":5043:5056  s_withdrawals */\n      0x02\n        /* \"contracts/KipuBank.sol\":5043:5063  s_withdrawals[user_] */\n      0x00\n        /* \"contracts/KipuBank.sol\":5057:5062  user_ */\n      dup4\n        /* \"contracts/KipuBank.sol\":5043:5063  s_withdrawals[user_] */\n      0xffffffffffffffffffffffffffffffffffffffff\n      and\n      0xffffffffffffffffffffffffffffffffffffffff\n      and\n      dup2\n      mstore\n      0x20\n      add\n      swap1\n      dup2\n      mstore\n      0x20\n      add\n      0x00\n      keccak256\n      0x00\n      swap1\n      sload\n      swap1\n      0x0100\n      exp\n      swap1\n      div\n      0xffffffff\n      and\n        /* \"contracts/KipuBank.sol\":5028:5063  withdrawals_ = s_withdrawals[user_] */\n      0xffffffff\n      and\n      swap1\n      pop\n        /* \"contracts/KipuBank.sol\":4873:5071  function getWithdrawals(address user_) external view returns(uint withdrawals_) {... */\n      swap2\n      swap1\n      pop\n      jump\t// out\n        /* \"contracts/KipuBank.sol\":3662:3788  function getWithdrawals() external view returns(uint withdrawals_) {... */\n    tag_32:\n        /* \"contracts/KipuBank.sol\":3710:3727  uint withdrawals_ */\n      0x00\n        /* \"contracts/KipuBank.sol\":3755:3768  s_withdrawals */\n      0x02\n        /* \"contracts/KipuBank.sol\":3755:3780  s_withdrawals[msg.sender] */\n      0x00\n        /* \"contracts/KipuBank.sol\":3769:3779  msg.sender */\n      caller\n        /* \"contracts/KipuBank.sol\":3755:3780  s_withdrawals[msg.sender] */\n      0xffffffffffffffffffffffffffffffffffffffff\n      and\n      0xffffffffffffffffffffffffffffffffffffffff\n      and\n      dup2\n      mstore\n      0x20\n      add\n      swap1\n      dup2\n      mstore\n      0x20\n      add\n      0x00\n      keccak256\n      0x00\n      swap1\n      sload\n      swap1\n      0x0100\n      exp\n      swap1\n      div\n      0xffffffff\n      and\n        /* \"contracts/KipuBank.sol\":3740:3780  withdrawals_ = s_withdrawals[msg.sender] */\n      0xffffffff\n      and\n      swap1\n      pop\n        /* \"contracts/KipuBank.sol\":3662:3788  function getWithdrawals() external view returns(uint withdrawals_) {... */\n      swap1\n      jump\t// out\n        /* \"contracts/KipuBank.sol\":3439:3553  function getDeposits() external view returns(uint deposits_) {... */\n    tag_36:\n        /* \"contracts/KipuBank.sol\":3484:3498  uint deposits_ */\n      0x00\n        /* \"contracts/KipuBank.sol\":3523:3533  s_deposits */\n      0x01\n        /* \"contracts/KipuBank.sol\":3523:3545  s_deposits[msg.sender] */\n      0x00\n        /* \"contracts/KipuBank.sol\":3534:3544  msg.sender */\n      caller\n        /* \"contracts/KipuBank.sol\":3523:3545  s_deposits[msg.sender] */\n      0xffffffffffffffffffffffffffffffffffffffff\n      and\n      0xffffffffffffffffffffffffffffffffffffffff\n      and\n      dup2\n      mstore\n      0x20\n      add\n      swap1\n      dup2\n      mstore\n      0x20\n      add\n      0x00\n      keccak256\n      0x00\n      swap1\n      sload\n      swap1\n      0x0100\n      exp\n      swap1\n      div\n      0xffffffff\n      and\n        /* \"contracts/KipuBank.sol\":3511:3545  deposits_ = s_deposits[msg.sender] */\n      0xffffffff\n      and\n      swap1\n      pop\n        /* \"contracts/KipuBank.sol\":3439:3553  function getDeposits() external view returns(uint deposits_) {... */\n      swap1\n      jump\t// out\n        /* \"contracts/KipuBank.sol\":989:1046  uint128 public immutable s_withdrawLimit = 10000000000000 */\n    tag_40:\n      immutable(\"0x58a280f74f57bf051c40f060139dc747e015be52f68c57e2c4ab2e4bd4146f43\")\n      dup2\n      jump\t// out\n        /* \"contracts/KipuBank.sol\":898:932  uint128 public immutable s_bankCap */\n    tag_45:\n      immutable(\"0x1572b593c53d839d80004aa4b8c51211864104f06ace9e22be9c4365b50655ea\")\n      dup2\n      jump\t// out\n        /* \"contracts/KipuBank.sol\":4443:4629  function getDeposits(address user_) external view returns(uint deposits_) {... */\n    tag_50:\n        /* \"contracts/KipuBank.sol\":4501:4515  uint deposits_ */\n      0x00\n        /* \"contracts/KipuBank.sol\":4548:4555  s_owner */\n      immutable(\"0xceebf77a833b30520287ddd9478ff51abbdffa30aa90a8d655dba0e8a79ce0c1\")\n        /* \"contracts/KipuBank.sol\":4536:4555  msg.sender==s_owner */\n      0xffffffffffffffffffffffffffffffffffffffff\n      and\n        /* \"contracts/KipuBank.sol\":4536:4546  msg.sender */\n      caller\n        /* \"contracts/KipuBank.sol\":4536:4555  msg.sender==s_owner */\n      0xffffffffffffffffffffffffffffffffffffffff\n      and\n      eq\n        /* \"contracts/KipuBank.sol\":4569:4579  msg.sender */\n      caller\n        /* \"contracts/KipuBank.sol\":4528:4581  require(msg.sender==s_owner,NotAnAuditor(msg.sender)) */\n      swap1\n      tag_87\n      jumpi\n      mload(0x40)\n      0xccb6416a00000000000000000000000000000000000000000000000000000000\n      dup2\n      mstore\n      0x04\n      add\n      tag_88\n      swap2\n      swap1\n      tag_58\n      jump\t// in\n    tag_88:\n      mload(0x40)\n      dup1\n      swap2\n      sub\n      swap1\n      revert\n    tag_87:\n      pop\n        /* \"contracts/KipuBank.sol\":4604:4614  s_deposits */\n      0x01\n        /* \"contracts/KipuBank.sol\":4604:4621  s_deposits[user_] */\n      0x00\n        /* \"contracts/KipuBank.sol\":4615:4620  user_ */\n      dup4\n        /* \"contracts/KipuBank.sol\":4604:4621  s_deposits[user_] */\n      0xffffffffffffffffffffffffffffffffffffffff\n      and\n      0xffffffffffffffffffffffffffffffffffffffff\n      and\n      dup2\n      mstore\n      0x20\n      add\n      swap1\n      dup2\n      mstore\n      0x20\n      add\n      0x00\n      keccak256\n      0x00\n      swap1\n      sload\n      swap1\n      0x0100\n      exp\n      swap1\n      div\n      0xffffffff\n      and\n        /* \"contracts/KipuBank.sol\":4592:4621  deposits_ = s_deposits[user_] */\n      0xffffffff\n      and\n      swap1\n      pop\n        /* \"contracts/KipuBank.sol\":4443:4629  function getDeposits(address user_) external view returns(uint deposits_) {... */\n      swap2\n      swap1\n      pop\n      jump\t// out\n        /* \"contracts/KipuBank.sol\":2704:3120  function deposit() public payable {... */\n    tag_53:\n        /* \"contracts/KipuBank.sol\":2754:2791  DepositRequest(msg.sender, msg.value) */\n      0x55896b30a78fc55b78937f8014dde3f0035e9d37a4f6ac36841fb8b62f7e2b13\n        /* \"contracts/KipuBank.sol\":2769:2779  msg.sender */\n      caller\n        /* \"contracts/KipuBank.sol\":2781:2790  msg.value */\n      callvalue\n        /* \"contracts/KipuBank.sol\":2754:2791  DepositRequest(msg.sender, msg.value) */\n      mload(0x40)\n      tag_90\n      swap3\n      swap2\n      swap1\n      tag_67\n      jump\t// in\n    tag_90:\n      mload(0x40)\n      dup1\n      swap2\n      sub\n      swap1\n      log1\n        /* \"contracts/KipuBank.sol\":2822:2823  0 */\n      0x00\n        /* \"contracts/KipuBank.sol\":2810:2819  msg.value */\n      callvalue\n        /* \"contracts/KipuBank.sol\":2810:2823  msg.value > 0 */\n      gt\n        /* \"contracts/KipuBank.sol\":2843:2853  msg.sender */\n      caller\n        /* \"contracts/KipuBank.sol\":2854:2863  msg.value */\n      callvalue\n        /* \"contracts/KipuBank.sol\":2802:2865  require(msg.value > 0, DepositNotAllowed(msg.sender,msg.value)) */\n      swap1\n      swap2\n      tag_91\n      jumpi\n      mload(0x40)\n      0xacb26d8e00000000000000000000000000000000000000000000000000000000\n      dup2\n      mstore\n      0x04\n      add\n      tag_92\n      swap3\n      swap2\n      swap1\n      tag_67\n      jump\t// in\n    tag_92:\n      mload(0x40)\n      dup1\n      swap2\n      sub\n      swap1\n      revert\n    tag_91:\n      pop\n      pop\n        /* \"contracts/KipuBank.sol\":2920:2929  s_bankCap */\n      immutable(\"0x1572b593c53d839d80004aa4b8c51211864104f06ace9e22be9c4365b50655ea\")\n        /* \"contracts/KipuBank.sol\":2884:2929  msg.value+s_balances[msg.sender] <= s_bankCap */\n      0xffffffffffffffffffffffffffffffff\n      and\n        /* \"contracts/KipuBank.sol\":2894:2904  s_balances */\n      0x00\n        /* \"contracts/KipuBank.sol\":2894:2916  s_balances[msg.sender] */\n      0x00\n        /* \"contracts/KipuBank.sol\":2905:2915  msg.sender */\n      caller\n        /* \"contracts/KipuBank.sol\":2894:2916  s_balances[msg.sender] */\n      0xffffffffffffffffffffffffffffffffffffffff\n      and\n      0xffffffffffffffffffffffffffffffffffffffff\n      and\n      dup2\n      mstore\n      0x20\n      add\n      swap1\n      dup2\n      mstore\n      0x20\n      add\n      0x00\n      keccak256\n      sload\n        /* \"contracts/KipuBank.sol\":2884:2893  msg.value */\n      callvalue\n        /* \"contracts/KipuBank.sol\":2884:2916  msg.value+s_balances[msg.sender] */\n      tag_93\n      swap2\n      swap1\n      tag_94\n      jump\t// in\n    tag_93:\n        /* \"contracts/KipuBank.sol\":2884:2929  msg.value+s_balances[msg.sender] <= s_bankCap */\n      gt\n      iszero\n        /* \"contracts/KipuBank.sol\":2949:2959  msg.sender */\n      caller\n        /* \"contracts/KipuBank.sol\":2960:2969  msg.value */\n      callvalue\n        /* \"contracts/KipuBank.sol\":2876:2971  require(msg.value+s_balances[msg.sender] <= s_bankCap, DepositNotAllowed(msg.sender,msg.value)) */\n      swap1\n      swap2\n      tag_95\n      jumpi\n      mload(0x40)\n      0xacb26d8e00000000000000000000000000000000000000000000000000000000\n      dup2\n      mstore\n      0x04\n      add\n      tag_96\n      swap3\n      swap2\n      swap1\n      tag_67\n      jump\t// in\n    tag_96:\n      mload(0x40)\n      dup1\n      swap2\n      sub\n      swap1\n      revert\n    tag_95:\n      pop\n      pop\n        /* \"contracts/KipuBank.sol\":3010:3019  msg.value */\n      callvalue\n        /* \"contracts/KipuBank.sol\":2984:2994  s_balances */\n      0x00\n        /* \"contracts/KipuBank.sol\":2984:3006  s_balances[msg.sender] */\n      0x00\n        /* \"contracts/KipuBank.sol\":2995:3005  msg.sender */\n      caller\n        /* \"contracts/KipuBank.sol\":2984:3006  s_balances[msg.sender] */\n      0xffffffffffffffffffffffffffffffffffffffff\n      and\n      0xffffffffffffffffffffffffffffffffffffffff\n      and\n      dup2\n      mstore\n      0x20\n      add\n      swap1\n      dup2\n      mstore\n      0x20\n      add\n      0x00\n      keccak256\n      0x00\n        /* \"contracts/KipuBank.sol\":2984:3019  s_balances[msg.sender] += msg.value */\n      dup3\n      dup3\n      sload\n      tag_97\n      swap2\n      swap1\n      tag_94\n      jump\t// in\n    tag_97:\n      swap3\n      pop\n      pop\n      dup2\n      swap1\n      sstore\n      pop\n        /* \"contracts/KipuBank.sol\":3030:3040  s_deposits */\n      0x01\n        /* \"contracts/KipuBank.sol\":3030:3052  s_deposits[msg.sender] */\n      0x00\n        /* \"contracts/KipuBank.sol\":3041:3051  msg.sender */\n      caller\n        /* \"contracts/KipuBank.sol\":3030:3052  s_deposits[msg.sender] */\n      0xffffffffffffffffffffffffffffffffffffffff\n      and\n      0xffffffffffffffffffffffffffffffffffffffff\n      and\n      dup2\n      mstore\n      0x20\n      add\n      swap1\n      dup2\n      mstore\n      0x20\n      add\n      0x00\n      keccak256\n      0x00\n        /* \"contracts/KipuBank.sol\":3030:3054  s_deposits[msg.sender]++ */\n      dup2\n      dup2\n      swap1\n      sload\n      swap1\n      0x0100\n      exp\n      swap1\n      div\n      0xffffffff\n      and\n      dup1\n      swap3\n      swap2\n      swap1\n      tag_98\n      swap1\n      tag_79\n      jump\t// in\n    tag_98:\n      swap2\n      swap1\n      0x0100\n      exp\n      dup2\n      sload\n      dup2\n      0xffffffff\n      mul\n      not\n      and\n      swap1\n      dup4\n      0xffffffff\n      and\n      mul\n      or\n      swap1\n      sstore\n      pop\n      pop\n        /* \"contracts/KipuBank.sol\":3080:3112  Deposited(msg.sender, msg.value) */\n      0x2da466a7b24304f47e87fa2e1e5a81b9831ce54fec19055ce277ca2f39ba42c4\n        /* \"contracts/KipuBank.sol\":3090:3100  msg.sender */\n      caller\n        /* \"contracts/KipuBank.sol\":3102:3111  msg.value */\n      callvalue\n        /* \"contracts/KipuBank.sol\":3080:3112  Deposited(msg.sender, msg.value) */\n      mload(0x40)\n      tag_99\n      swap3\n      swap2\n      swap1\n      tag_67\n      jump\t// in\n    tag_99:\n      mload(0x40)\n      dup1\n      swap2\n      sub\n      swap1\n      log1\n        /* \"contracts/KipuBank.sol\":2704:3120  function deposit() public payable {... */\n      jump\t// out\n        /* \"contracts/KipuBank.sol\":376:408  address public immutable s_owner */\n    tag_56:\n      immutable(\"0xceebf77a833b30520287ddd9478ff51abbdffa30aa90a8d655dba0e8a79ce0c1\")\n      dup2\n      jump\t// out\n        /* \"contracts/KipuBank.sol\":4018:4201  function getBalance(address user_) external view returns(uint balance_) {... */\n    tag_62:\n        /* \"contracts/KipuBank.sol\":4075:4088  uint balance_ */\n      0x00\n        /* \"contracts/KipuBank.sol\":4121:4128  s_owner */\n      immutable(\"0xceebf77a833b30520287ddd9478ff51abbdffa30aa90a8d655dba0e8a79ce0c1\")\n        /* \"contracts/KipuBank.sol\":4109:4128  msg.sender==s_owner */\n      0xffffffffffffffffffffffffffffffffffffffff\n      and\n        /* \"contracts/KipuBank.sol\":4109:4119  msg.sender */\n      caller\n        /* \"contracts/KipuBank.sol\":4109:4128  msg.sender==s_owner */\n      0xffffffffffffffffffffffffffffffffffffffff\n      and\n      eq\n        /* \"contracts/KipuBank.sol\":4142:4152  msg.sender */\n      caller\n        /* \"contracts/KipuBank.sol\":4101:4154  require(msg.sender==s_owner,NotAnAuditor(msg.sender)) */\n      swap1\n      tag_101\n      jumpi\n      mload(0x40)\n      0xccb6416a00000000000000000000000000000000000000000000000000000000\n      dup2\n      mstore\n      0x04\n      add\n      tag_102\n      swap2\n      swap1\n      tag_58\n      jump\t// in\n    tag_102:\n      mload(0x40)\n      dup1\n      swap2\n      sub\n      swap1\n      revert\n    tag_101:\n      pop\n        /* \"contracts/KipuBank.sol\":4176:4186  s_balances */\n      0x00\n        /* \"contracts/KipuBank.sol\":4176:4193  s_balances[user_] */\n      0x00\n        /* \"contracts/KipuBank.sol\":4187:4192  user_ */\n      dup4\n        /* \"contracts/KipuBank.sol\":4176:4193  s_balances[user_] */\n      0xffffffffffffffffffffffffffffffffffffffff\n      and\n      0xffffffffffffffffffffffffffffffffffffffff\n      and\n      dup2\n      mstore\n      0x20\n      add\n      swap1\n      dup2\n      mstore\n      0x20\n      add\n      0x00\n      keccak256\n      sload\n        /* \"contracts/KipuBank.sol\":4165:4193  balance_ = s_balances[user_] */\n      swap1\n      pop\n        /* \"contracts/KipuBank.sol\":4018:4201  function getBalance(address user_) external view returns(uint balance_) {... */\n      swap2\n      swap1\n      pop\n      jump\t// out\n        /* \"contracts/KipuBank.sol\":6123:6340  function transferFunds(uint amount_) private {... */\n    tag_75:\n        /* \"contracts/KipuBank.sol\":6180:6192  bool success */\n      0x00\n        /* \"contracts/KipuBank.sol\":6194:6216  bytes memory errorData */\n      0x00\n        /* \"contracts/KipuBank.sol\":6220:6230  msg.sender */\n      caller\n        /* \"contracts/KipuBank.sol\":6220:6235  msg.sender.call */\n      0xffffffffffffffffffffffffffffffffffffffff\n      and\n        /* \"contracts/KipuBank.sol\":6243:6250  amount_ */\n      dup4\n        /* \"contracts/KipuBank.sol\":6220:6255  msg.sender.call{value: amount_}(\"\") */\n      mload(0x40)\n      tag_104\n      swap1\n      tag_105\n      jump\t// in\n    tag_104:\n      0x00\n      mload(0x40)\n      dup1\n      dup4\n      sub\n      dup2\n      dup6\n      dup8\n      gas\n      call\n      swap3\n      pop\n      pop\n      pop\n      returndatasize\n      dup1\n      0x00\n      dup2\n      eq\n      tag_108\n      jumpi\n      mload(0x40)\n      swap2\n      pop\n      and(add(returndatasize, 0x3f), not(0x1f))\n      dup3\n      add\n      0x40\n      mstore\n      returndatasize\n      dup3\n      mstore\n      returndatasize\n      0x00\n      0x20\n      dup5\n      add\n      returndatacopy\n      jump(tag_107)\n    tag_108:\n      0x60\n      swap2\n      pop\n    tag_107:\n      pop\n        /* \"contracts/KipuBank.sol\":6179:6255  (bool success, bytes memory errorData) = msg.sender.call{value: amount_}(\"\") */\n      swap2\n      pop\n      swap2\n      pop\n        /* \"contracts/KipuBank.sol\":6274:6281  success */\n      dup2\n        /* \"contracts/KipuBank.sol\":6302:6312  msg.sender */\n      caller\n        /* \"contracts/KipuBank.sol\":6313:6320  amount_ */\n      dup5\n        /* \"contracts/KipuBank.sol\":6321:6330  errorData */\n      dup4\n        /* \"contracts/KipuBank.sol\":6266:6332  require(success, ExtractionReverted(msg.sender,amount_,errorData)) */\n      swap1\n      swap2\n      swap3\n      tag_109\n      jumpi\n      mload(0x40)\n      0x3fd18b8500000000000000000000000000000000000000000000000000000000\n      dup2\n      mstore\n      0x04\n      add\n      tag_110\n      swap4\n      swap3\n      swap2\n      swap1\n      tag_111\n      jump\t// in\n    tag_110:\n      mload(0x40)\n      dup1\n      swap2\n      sub\n      swap1\n      revert\n    tag_109:\n      pop\n      pop\n      pop\n        /* \"contracts/KipuBank.sol\":6168:6340  {... */\n      pop\n      pop\n        /* \"contracts/KipuBank.sol\":6123:6340  function transferFunds(uint amount_) private {... */\n      pop\n      jump\t// out\n        /* \"#utility.yul\":7:84   */\n    tag_112:\n        /* \"#utility.yul\":44:51   */\n      0x00\n        /* \"#utility.yul\":73:78   */\n      dup2\n        /* \"#utility.yul\":62:78   */\n      swap1\n      pop\n        /* \"#utility.yul\":7:84   */\n      swap2\n      swap1\n      pop\n      jump\t// out\n        /* \"#utility.yul\":90:208   */\n    tag_113:\n        /* \"#utility.yul\":177:201   */\n      tag_139\n        /* \"#utility.yul\":195:200   */\n      dup2\n        /* \"#utility.yul\":177:201   */\n      tag_112\n      jump\t// in\n    tag_139:\n        /* \"#utility.yul\":172:175   */\n      dup3\n        /* \"#utility.yul\":165:202   */\n      mstore\n        /* \"#utility.yul\":90:208   */\n      pop\n      pop\n      jump\t// out\n        /* \"#utility.yul\":214:436   */\n    tag_18:\n        /* \"#utility.yul\":307:311   */\n      0x00\n        /* \"#utility.yul\":345:347   */\n      0x20\n        /* \"#utility.yul\":334:343   */\n      dup3\n        /* \"#utility.yul\":330:348   */\n      add\n        /* \"#utility.yul\":322:348   */\n      swap1\n      pop\n        /* \"#utility.yul\":358:429   */\n      tag_141\n        /* \"#utility.yul\":426:427   */\n      0x00\n        /* \"#utility.yul\":415:424   */\n      dup4\n        /* \"#utility.yul\":411:428   */\n      add\n        /* \"#utility.yul\":402:408   */\n      dup5\n        /* \"#utility.yul\":358:429   */\n      tag_113\n      jump\t// in\n    tag_141:\n        /* \"#utility.yul\":214:436   */\n      swap3\n      swap2\n      pop\n      pop\n      jump\t// out\n        /* \"#utility.yul\":523:640   */\n    tag_115:\n        /* \"#utility.yul\":632:633   */\n      0x00\n        /* \"#utility.yul\":629:630   */\n      0x00\n        /* \"#utility.yul\":622:634   */\n      revert\n        /* \"#utility.yul\":769:891   */\n    tag_117:\n        /* \"#utility.yul\":842:866   */\n      tag_146\n        /* \"#utility.yul\":860:865   */\n      dup2\n        /* \"#utility.yul\":842:866   */\n      tag_112\n      jump\t// in\n    tag_146:\n        /* \"#utility.yul\":835:840   */\n      dup2\n        /* \"#utility.yul\":832:867   */\n      eq\n        /* \"#utility.yul\":822:885   */\n      tag_147\n      jumpi\n        /* \"#utility.yul\":881:882   */\n      0x00\n        /* \"#utility.yul\":878:879   */\n      0x00\n        /* \"#utility.yul\":871:883   */\n      revert\n        /* \"#utility.yul\":822:885   */\n    tag_147:\n        /* \"#utility.yul\":769:891   */\n      pop\n      jump\t// out\n        /* \"#utility.yul\":897:1036   */\n    tag_118:\n        /* \"#utility.yul\":943:948   */\n      0x00\n        /* \"#utility.yul\":981:987   */\n      dup2\n        /* \"#utility.yul\":968:988   */\n      calldataload\n        /* \"#utility.yul\":959:988   */\n      swap1\n      pop\n        /* \"#utility.yul\":997:1030   */\n      tag_149\n        /* \"#utility.yul\":1024:1029   */\n      dup2\n        /* \"#utility.yul\":997:1030   */\n      tag_117\n      jump\t// in\n    tag_149:\n        /* \"#utility.yul\":897:1036   */\n      swap3\n      swap2\n      pop\n      pop\n      jump\t// out\n        /* \"#utility.yul\":1042:1371   */\n    tag_22:\n        /* \"#utility.yul\":1101:1107   */\n      0x00\n        /* \"#utility.yul\":1150:1152   */\n      0x20\n        /* \"#utility.yul\":1138:1147   */\n      dup3\n        /* \"#utility.yul\":1129:1136   */\n      dup5\n        /* \"#utility.yul\":1125:1148   */\n      sub\n        /* \"#utility.yul\":1121:1153   */\n      slt\n        /* \"#utility.yul\":1118:1237   */\n      iszero\n      tag_151\n      jumpi\n        /* \"#utility.yul\":1156:1235   */\n      tag_152\n      tag_115\n      jump\t// in\n    tag_152:\n        /* \"#utility.yul\":1118:1237   */\n    tag_151:\n        /* \"#utility.yul\":1276:1277   */\n      0x00\n        /* \"#utility.yul\":1301:1354   */\n      tag_153\n        /* \"#utility.yul\":1346:1353   */\n      dup5\n        /* \"#utility.yul\":1337:1343   */\n      dup3\n        /* \"#utility.yul\":1326:1335   */\n      dup6\n        /* \"#utility.yul\":1322:1344   */\n      add\n        /* \"#utility.yul\":1301:1354   */\n      tag_118\n      jump\t// in\n    tag_153:\n        /* \"#utility.yul\":1291:1354   */\n      swap2\n      pop\n        /* \"#utility.yul\":1247:1364   */\n      pop\n        /* \"#utility.yul\":1042:1371   */\n      swap3\n      swap2\n      pop\n      pop\n      jump\t// out\n        /* \"#utility.yul\":1377:1503   */\n    tag_119:\n        /* \"#utility.yul\":1414:1421   */\n      0x00\n        /* \"#utility.yul\":1454:1496   */\n      0xffffffffffffffffffffffffffffffffffffffff\n        /* \"#utility.yul\":1447:1452   */\n      dup3\n        /* \"#utility.yul\":1443:1497   */\n      and\n        /* \"#utility.yul\":1432:1497   */\n      swap1\n      pop\n        /* \"#utility.yul\":1377:1503   */\n      swap2\n      swap1\n      pop\n      jump\t// out\n        /* \"#utility.yul\":1509:1605   */\n    tag_120:\n        /* \"#utility.yul\":1546:1553   */\n      0x00\n        /* \"#utility.yul\":1575:1599   */\n      tag_156\n        /* \"#utility.yul\":1593:1598   */\n      dup3\n        /* \"#utility.yul\":1575:1599   */\n      tag_119\n      jump\t// in\n    tag_156:\n        /* \"#utility.yul\":1564:1599   */\n      swap1\n      pop\n        /* \"#utility.yul\":1509:1605   */\n      swap2\n      swap1\n      pop\n      jump\t// out\n        /* \"#utility.yul\":1611:1733   */\n    tag_121:\n        /* \"#utility.yul\":1684:1708   */\n      tag_158\n        /* \"#utility.yul\":1702:1707   */\n      dup2\n        /* \"#utility.yul\":1684:1708   */\n      tag_120\n      jump\t// in\n    tag_158:\n        /* \"#utility.yul\":1677:1682   */\n      dup2\n        /* \"#utility.yul\":1674:1709   */\n      eq\n        /* \"#utility.yul\":1664:1727   */\n      tag_159\n      jumpi\n        /* \"#utility.yul\":1723:1724   */\n      0x00\n        /* \"#utility.yul\":1720:1721   */\n      0x00\n        /* \"#utility.yul\":1713:1725   */\n      revert\n        /* \"#utility.yul\":1664:1727   */\n    tag_159:\n        /* \"#utility.yul\":1611:1733   */\n      pop\n      jump\t// out\n        /* \"#utility.yul\":1739:1878   */\n    tag_122:\n        /* \"#utility.yul\":1785:1790   */\n      0x00\n        /* \"#utility.yul\":1823:1829   */\n      dup2\n        /* \"#utility.yul\":1810:1830   */\n      calldataload\n        /* \"#utility.yul\":1801:1830   */\n      swap1\n      pop\n        /* \"#utility.yul\":1839:1872   */\n      tag_161\n        /* \"#utility.yul\":1866:1871   */\n      dup2\n        /* \"#utility.yul\":1839:1872   */\n      tag_121\n      jump\t// in\n    tag_161:\n        /* \"#utility.yul\":1739:1878   */\n      swap3\n      swap2\n      pop\n      pop\n      jump\t// out\n        /* \"#utility.yul\":1884:2213   */\n    tag_27:\n        /* \"#utility.yul\":1943:1949   */\n      0x00\n        /* \"#utility.yul\":1992:1994   */\n      0x20\n        /* \"#utility.yul\":1980:1989   */\n      dup3\n        /* \"#utility.yul\":1971:1978   */\n      dup5\n        /* \"#utility.yul\":1967:1990   */\n      sub\n        /* \"#utility.yul\":1963:1995   */\n      slt\n        /* \"#utility.yul\":1960:2079   */\n      iszero\n      tag_163\n      jumpi\n        /* \"#utility.yul\":1998:2077   */\n      tag_164\n      tag_115\n      jump\t// in\n    tag_164:\n        /* \"#utility.yul\":1960:2079   */\n    tag_163:\n        /* \"#utility.yul\":2118:2119   */\n      0x00\n        /* \"#utility.yul\":2143:2196   */\n      tag_165\n        /* \"#utility.yul\":2188:2195   */\n      dup5\n        /* \"#utility.yul\":2179:2185   */\n      dup3\n        /* \"#utility.yul\":2168:2177   */\n      dup6\n        /* \"#utility.yul\":2164:2186   */\n      add\n        /* \"#utility.yul\":2143:2196   */\n      tag_122\n      jump\t// in\n    tag_165:\n        /* \"#utility.yul\":2133:2196   */\n      swap2\n      pop\n        /* \"#utility.yul\":2089:2206   */\n      pop\n        /* \"#utility.yul\":1884:2213   */\n      swap3\n      swap2\n      pop\n      pop\n      jump\t// out\n        /* \"#utility.yul\":2219:2337   */\n    tag_123:\n        /* \"#utility.yul\":2256:2263   */\n      0x00\n        /* \"#utility.yul\":2296:2330   */\n      0xffffffffffffffffffffffffffffffff\n        /* \"#utility.yul\":2289:2294   */\n      dup3\n        /* \"#utility.yul\":2285:2331   */\n      and\n        /* \"#utility.yul\":2274:2331   */\n      swap1\n      pop\n        /* \"#utility.yul\":2219:2337   */\n      swap2\n      swap1\n      pop\n      jump\t// out\n        /* \"#utility.yul\":2343:2461   */\n    tag_124:\n        /* \"#utility.yul\":2430:2454   */\n      tag_168\n        /* \"#utility.yul\":2448:2453   */\n      dup2\n        /* \"#utility.yul\":2430:2454   */\n      tag_123\n      jump\t// in\n    tag_168:\n        /* \"#utility.yul\":2425:2428   */\n      dup3\n        /* \"#utility.yul\":2418:2455   */\n      mstore\n        /* \"#utility.yul\":2343:2461   */\n      pop\n      pop\n      jump\t// out\n        /* \"#utility.yul\":2467:2689   */\n    tag_42:\n        /* \"#utility.yul\":2560:2564   */\n      0x00\n        /* \"#utility.yul\":2598:2600   */\n      0x20\n        /* \"#utility.yul\":2587:2596   */\n      dup3\n        /* \"#utility.yul\":2583:2601   */\n      add\n        /* \"#utility.yul\":2575:2601   */\n      swap1\n      pop\n        /* \"#utility.yul\":2611:2682   */\n      tag_170\n        /* \"#utility.yul\":2679:2680   */\n      0x00\n        /* \"#utility.yul\":2668:2677   */\n      dup4\n        /* \"#utility.yul\":2664:2681   */\n      add\n        /* \"#utility.yul\":2655:2661   */\n      dup5\n        /* \"#utility.yul\":2611:2682   */\n      tag_124\n      jump\t// in\n    tag_170:\n        /* \"#utility.yul\":2467:2689   */\n      swap3\n      swap2\n      pop\n      pop\n      jump\t// out\n        /* \"#utility.yul\":2695:2813   */\n    tag_125:\n        /* \"#utility.yul\":2782:2806   */\n      tag_172\n        /* \"#utility.yul\":2800:2805   */\n      dup2\n        /* \"#utility.yul\":2782:2806   */\n      tag_120\n      jump\t// in\n    tag_172:\n        /* \"#utility.yul\":2777:2780   */\n      dup3\n        /* \"#utility.yul\":2770:2807   */\n      mstore\n        /* \"#utility.yul\":2695:2813   */\n      pop\n      pop\n      jump\t// out\n        /* \"#utility.yul\":2819:3041   */\n    tag_58:\n        /* \"#utility.yul\":2912:2916   */\n      0x00\n        /* \"#utility.yul\":2950:2952   */\n      0x20\n        /* \"#utility.yul\":2939:2948   */\n      dup3\n        /* \"#utility.yul\":2935:2953   */\n      add\n        /* \"#utility.yul\":2927:2953   */\n      swap1\n      pop\n        /* \"#utility.yul\":2963:3034   */\n      tag_174\n        /* \"#utility.yul\":3031:3032   */\n      0x00\n        /* \"#utility.yul\":3020:3029   */\n      dup4\n        /* \"#utility.yul\":3016:3033   */\n      add\n        /* \"#utility.yul\":3007:3013   */\n      dup5\n        /* \"#utility.yul\":2963:3034   */\n      tag_125\n      jump\t// in\n    tag_174:\n        /* \"#utility.yul\":2819:3041   */\n      swap3\n      swap2\n      pop\n      pop\n      jump\t// out\n        /* \"#utility.yul\":3047:3379   */\n    tag_67:\n        /* \"#utility.yul\":3168:3172   */\n      0x00\n        /* \"#utility.yul\":3206:3208   */\n      0x40\n        /* \"#utility.yul\":3195:3204   */\n      dup3\n        /* \"#utility.yul\":3191:3209   */\n      add\n        /* \"#utility.yul\":3183:3209   */\n      swap1\n      pop\n        /* \"#utility.yul\":3219:3290   */\n      tag_176\n        /* \"#utility.yul\":3287:3288   */\n      0x00\n        /* \"#utility.yul\":3276:3285   */\n      dup4\n        /* \"#utility.yul\":3272:3289   */\n      add\n        /* \"#utility.yul\":3263:3269   */\n      dup6\n        /* \"#utility.yul\":3219:3290   */\n      tag_125\n      jump\t// in\n    tag_176:\n        /* \"#utility.yul\":3300:3372   */\n      tag_177\n        /* \"#utility.yul\":3368:3370   */\n      0x20\n        /* \"#utility.yul\":3357:3366   */\n      dup4\n        /* \"#utility.yul\":3353:3371   */\n      add\n        /* \"#utility.yul\":3344:3350   */\n      dup5\n        /* \"#utility.yul\":3300:3372   */\n      tag_113\n      jump\t// in\n    tag_177:\n        /* \"#utility.yul\":3047:3379   */\n      swap4\n      swap3\n      pop\n      pop\n      pop\n      jump\t// out\n        /* \"#utility.yul\":3385:3565   */\n    tag_126:\n        /* \"#utility.yul\":3433:3510   */\n      0x4e487b7100000000000000000000000000000000000000000000000000000000\n        /* \"#utility.yul\":3430:3431   */\n      0x00\n        /* \"#utility.yul\":3423:3511   */\n      mstore\n        /* \"#utility.yul\":3530:3534   */\n      0x11\n        /* \"#utility.yul\":3527:3528   */\n      0x04\n        /* \"#utility.yul\":3520:3535   */\n      mstore\n        /* \"#utility.yul\":3554:3558   */\n      0x24\n        /* \"#utility.yul\":3551:3552   */\n      0x00\n        /* \"#utility.yul\":3544:3559   */\n      revert\n        /* \"#utility.yul\":3571:3765   */\n    tag_77:\n        /* \"#utility.yul\":3611:3615   */\n      0x00\n        /* \"#utility.yul\":3631:3651   */\n      tag_180\n        /* \"#utility.yul\":3649:3650   */\n      dup3\n        /* \"#utility.yul\":3631:3651   */\n      tag_112\n      jump\t// in\n    tag_180:\n        /* \"#utility.yul\":3626:3651   */\n      swap2\n      pop\n        /* \"#utility.yul\":3665:3685   */\n      tag_181\n        /* \"#utility.yul\":3683:3684   */\n      dup4\n        /* \"#utility.yul\":3665:3685   */\n      tag_112\n      jump\t// in\n    tag_181:\n        /* \"#utility.yul\":3660:3685   */\n      swap3\n      pop\n        /* \"#utility.yul\":3709:3710   */\n      dup3\n        /* \"#utility.yul\":3706:3707   */\n      dup3\n        /* \"#utility.yul\":3702:3711   */\n      sub\n        /* \"#utility.yul\":3694:3711   */\n      swap1\n      pop\n        /* \"#utility.yul\":3733:3734   */\n      dup2\n        /* \"#utility.yul\":3727:3731   */\n      dup2\n        /* \"#utility.yul\":3724:3735   */\n      gt\n        /* \"#utility.yul\":3721:3758   */\n      iszero\n      tag_182\n      jumpi\n        /* \"#utility.yul\":3738:3756   */\n      tag_183\n      tag_126\n      jump\t// in\n    tag_183:\n        /* \"#utility.yul\":3721:3758   */\n    tag_182:\n        /* \"#utility.yul\":3571:3765   */\n      swap3\n      swap2\n      pop\n      pop\n      jump\t// out\n        /* \"#utility.yul\":3771:3864   */\n    tag_127:\n        /* \"#utility.yul\":3807:3814   */\n      0x00\n        /* \"#utility.yul\":3847:3857   */\n      0xffffffff\n        /* \"#utility.yul\":3840:3845   */\n      dup3\n        /* \"#utility.yul\":3836:3858   */\n      and\n        /* \"#utility.yul\":3825:3858   */\n      swap1\n      pop\n        /* \"#utility.yul\":3771:3864   */\n      swap2\n      swap1\n      pop\n      jump\t// out\n        /* \"#utility.yul\":3870:4045   */\n    tag_79:\n        /* \"#utility.yul\":3908:3911   */\n      0x00\n        /* \"#utility.yul\":3931:3954   */\n      tag_186\n        /* \"#utility.yul\":3948:3953   */\n      dup3\n        /* \"#utility.yul\":3931:3954   */\n      tag_127\n      jump\t// in\n    tag_186:\n        /* \"#utility.yul\":3922:3954   */\n      swap2\n      pop\n        /* \"#utility.yul\":3976:3986   */\n      0xffffffff\n        /* \"#utility.yul\":3969:3974   */\n      dup3\n        /* \"#utility.yul\":3966:3987   */\n      sub\n        /* \"#utility.yul\":3963:4010   */\n      tag_187\n      jumpi\n        /* \"#utility.yul\":3990:4008   */\n      tag_188\n      tag_126\n      jump\t// in\n    tag_188:\n        /* \"#utility.yul\":3963:4010   */\n    tag_187:\n        /* \"#utility.yul\":4037:4038   */\n      0x01\n        /* \"#utility.yul\":4030:4035   */\n      dup3\n        /* \"#utility.yul\":4026:4039   */\n      add\n        /* \"#utility.yul\":4019:4039   */\n      swap1\n      pop\n        /* \"#utility.yul\":3870:4045   */\n      swap2\n      swap1\n      pop\n      jump\t// out\n        /* \"#utility.yul\":4051:4242   */\n    tag_94:\n        /* \"#utility.yul\":4091:4094   */\n      0x00\n        /* \"#utility.yul\":4110:4130   */\n      tag_190\n        /* \"#utility.yul\":4128:4129   */\n      dup3\n        /* \"#utility.yul\":4110:4130   */\n      tag_112\n      jump\t// in\n    tag_190:\n        /* \"#utility.yul\":4105:4130   */\n      swap2\n      pop\n        /* \"#utility.yul\":4144:4164   */\n      tag_191\n        /* \"#utility.yul\":4162:4163   */\n      dup4\n        /* \"#utility.yul\":4144:4164   */\n      tag_112\n      jump\t// in\n    tag_191:\n        /* \"#utility.yul\":4139:4164   */\n      swap3\n      pop\n        /* \"#utility.yul\":4187:4188   */\n      dup3\n        /* \"#utility.yul\":4184:4185   */\n      dup3\n        /* \"#utility.yul\":4180:4189   */\n      add\n        /* \"#utility.yul\":4173:4189   */\n      swap1\n      pop\n        /* \"#utility.yul\":4208:4211   */\n      dup1\n        /* \"#utility.yul\":4205:4206   */\n      dup3\n        /* \"#utility.yul\":4202:4212   */\n      gt\n        /* \"#utility.yul\":4199:4235   */\n      iszero\n      tag_192\n      jumpi\n        /* \"#utility.yul\":4215:4233   */\n      tag_193\n      tag_126\n      jump\t// in\n    tag_193:\n        /* \"#utility.yul\":4199:4235   */\n    tag_192:\n        /* \"#utility.yul\":4051:4242   */\n      swap3\n      swap2\n      pop\n      pop\n      jump\t// out\n        /* \"#utility.yul\":4248:4395   */\n    tag_128:\n        /* \"#utility.yul\":4349:4360   */\n      0x00\n        /* \"#utility.yul\":4386:4389   */\n      dup2\n        /* \"#utility.yul\":4371:4389   */\n      swap1\n      pop\n        /* \"#utility.yul\":4248:4395   */\n      swap3\n      swap2\n      pop\n      pop\n      jump\t// out\n        /* \"#utility.yul\":4401:4515   */\n    tag_129:\n      pop\n      jump\t// out\n        /* \"#utility.yul\":4521:4919   */\n    tag_130:\n        /* \"#utility.yul\":4680:4683   */\n      0x00\n        /* \"#utility.yul\":4701:4784   */\n      tag_197\n        /* \"#utility.yul\":4782:4783   */\n      0x00\n        /* \"#utility.yul\":4777:4780   */\n      dup4\n        /* \"#utility.yul\":4701:4784   */\n      tag_128\n      jump\t// in\n    tag_197:\n        /* \"#utility.yul\":4694:4784   */\n      swap2\n      pop\n        /* \"#utility.yul\":4793:4886   */\n      tag_198\n        /* \"#utility.yul\":4882:4885   */\n      dup3\n        /* \"#utility.yul\":4793:4886   */\n      tag_129\n      jump\t// in\n    tag_198:\n        /* \"#utility.yul\":4911:4912   */\n      0x00\n        /* \"#utility.yul\":4906:4909   */\n      dup3\n        /* \"#utility.yul\":4902:4913   */\n      add\n        /* \"#utility.yul\":4895:4913   */\n      swap1\n      pop\n        /* \"#utility.yul\":4521:4919   */\n      swap2\n      swap1\n      pop\n      jump\t// out\n        /* \"#utility.yul\":4925:5304   */\n    tag_105:\n        /* \"#utility.yul\":5109:5112   */\n      0x00\n        /* \"#utility.yul\":5131:5278   */\n      tag_200\n        /* \"#utility.yul\":5274:5277   */\n      dup3\n        /* \"#utility.yul\":5131:5278   */\n      tag_130\n      jump\t// in\n    tag_200:\n        /* \"#utility.yul\":5124:5278   */\n      swap2\n      pop\n        /* \"#utility.yul\":5295:5298   */\n      dup2\n        /* \"#utility.yul\":5288:5298   */\n      swap1\n      pop\n        /* \"#utility.yul\":4925:5304   */\n      swap2\n      swap1\n      pop\n      jump\t// out\n        /* \"#utility.yul\":5310:5408   */\n    tag_131:\n        /* \"#utility.yul\":5361:5367   */\n      0x00\n        /* \"#utility.yul\":5395:5400   */\n      dup2\n        /* \"#utility.yul\":5389:5401   */\n      mload\n        /* \"#utility.yul\":5379:5401   */\n      swap1\n      pop\n        /* \"#utility.yul\":5310:5408   */\n      swap2\n      swap1\n      pop\n      jump\t// out\n        /* \"#utility.yul\":5414:5582   */\n    tag_132:\n        /* \"#utility.yul\":5497:5508   */\n      0x00\n        /* \"#utility.yul\":5531:5537   */\n      dup3\n        /* \"#utility.yul\":5526:5529   */\n      dup3\n        /* \"#utility.yul\":5519:5538   */\n      mstore\n        /* \"#utility.yul\":5571:5575   */\n      0x20\n        /* \"#utility.yul\":5566:5569   */\n      dup3\n        /* \"#utility.yul\":5562:5576   */\n      add\n        /* \"#utility.yul\":5547:5576   */\n      swap1\n      pop\n        /* \"#utility.yul\":5414:5582   */\n      swap3\n      swap2\n      pop\n      pop\n      jump\t// out\n        /* \"#utility.yul\":5588:5727   */\n    tag_133:\n        /* \"#utility.yul\":5677:5683   */\n      dup3\n        /* \"#utility.yul\":5672:5675   */\n      dup2\n        /* \"#utility.yul\":5667:5670   */\n      dup4\n        /* \"#utility.yul\":5661:5684   */\n      mcopy\n        /* \"#utility.yul\":5718:5719   */\n      0x00\n        /* \"#utility.yul\":5709:5715   */\n      dup4\n        /* \"#utility.yul\":5704:5707   */\n      dup4\n        /* \"#utility.yul\":5700:5716   */\n      add\n        /* \"#utility.yul\":5693:5720   */\n      mstore\n        /* \"#utility.yul\":5588:5727   */\n      pop\n      pop\n      pop\n      jump\t// out\n        /* \"#utility.yul\":5733:5835   */\n    tag_134:\n        /* \"#utility.yul\":5774:5780   */\n      0x00\n        /* \"#utility.yul\":5825:5827   */\n      0x1f\n        /* \"#utility.yul\":5821:5828   */\n      not\n        /* \"#utility.yul\":5816:5818   */\n      0x1f\n        /* \"#utility.yul\":5809:5814   */\n      dup4\n        /* \"#utility.yul\":5805:5819   */\n      add\n        /* \"#utility.yul\":5801:5829   */\n      and\n        /* \"#utility.yul\":5791:5829   */\n      swap1\n      pop\n        /* \"#utility.yul\":5733:5835   */\n      swap2\n      swap1\n      pop\n      jump\t// out\n        /* \"#utility.yul\":5841:6214   */\n    tag_135:\n        /* \"#utility.yul\":5927:5930   */\n      0x00\n        /* \"#utility.yul\":5955:5993   */\n      tag_206\n        /* \"#utility.yul\":5987:5992   */\n      dup3\n        /* \"#utility.yul\":5955:5993   */\n      tag_131\n      jump\t// in\n    tag_206:\n        /* \"#utility.yul\":6009:6079   */\n      tag_207\n        /* \"#utility.yul\":6072:6078   */\n      dup2\n        /* \"#utility.yul\":6067:6070   */\n      dup6\n        /* \"#utility.yul\":6009:6079   */\n      tag_132\n      jump\t// in\n    tag_207:\n        /* \"#utility.yul\":6002:6079   */\n      swap4\n      pop\n        /* \"#utility.yul\":6088:6153   */\n      tag_208\n        /* \"#utility.yul\":6146:6152   */\n      dup2\n        /* \"#utility.yul\":6141:6144   */\n      dup6\n        /* \"#utility.yul\":6134:6138   */\n      0x20\n        /* \"#utility.yul\":6127:6132   */\n      dup7\n        /* \"#utility.yul\":6123:6139   */\n      add\n        /* \"#utility.yul\":6088:6153   */\n      tag_133\n      jump\t// in\n    tag_208:\n        /* \"#utility.yul\":6178:6207   */\n      tag_209\n        /* \"#utility.yul\":6200:6206   */\n      dup2\n        /* \"#utility.yul\":6178:6207   */\n      tag_134\n      jump\t// in\n    tag_209:\n        /* \"#utility.yul\":6173:6176   */\n      dup5\n        /* \"#utility.yul\":6169:6208   */\n      add\n        /* \"#utility.yul\":6162:6208   */\n      swap2\n      pop\n        /* \"#utility.yul\":5931:6214   */\n      pop\n        /* \"#utility.yul\":5841:6214   */\n      swap3\n      swap2\n      pop\n      pop\n      jump\t// out\n        /* \"#utility.yul\":6220:6749   */\n    tag_111:\n        /* \"#utility.yul\":6387:6391   */\n      0x00\n        /* \"#utility.yul\":6425:6427   */\n      0x60\n        /* \"#utility.yul\":6414:6423   */\n      dup3\n        /* \"#utility.yul\":6410:6428   */\n      add\n        /* \"#utility.yul\":6402:6428   */\n      swap1\n      pop\n        /* \"#utility.yul\":6438:6509   */\n      tag_211\n        /* \"#utility.yul\":6506:6507   */\n      0x00\n        /* \"#utility.yul\":6495:6504   */\n      dup4\n        /* \"#utility.yul\":6491:6508   */\n      add\n        /* \"#utility.yul\":6482:6488   */\n      dup7\n        /* \"#utility.yul\":6438:6509   */\n      tag_125\n      jump\t// in\n    tag_211:\n        /* \"#utility.yul\":6519:6591   */\n      tag_212\n        /* \"#utility.yul\":6587:6589   */\n      0x20\n        /* \"#utility.yul\":6576:6585   */\n      dup4\n        /* \"#utility.yul\":6572:6590   */\n      add\n        /* \"#utility.yul\":6563:6569   */\n      dup6\n        /* \"#utility.yul\":6519:6591   */\n      tag_113\n      jump\t// in\n    tag_212:\n        /* \"#utility.yul\":6638:6647   */\n      dup2\n        /* \"#utility.yul\":6632:6636   */\n      dup2\n        /* \"#utility.yul\":6628:6648   */\n      sub\n        /* \"#utility.yul\":6623:6625   */\n      0x40\n        /* \"#utility.yul\":6612:6621   */\n      dup4\n        /* \"#utility.yul\":6608:6626   */\n      add\n        /* \"#utility.yul\":6601:6649   */\n      mstore\n        /* \"#utility.yul\":6666:6742   */\n      tag_213\n        /* \"#utility.yul\":6737:6741   */\n      dup2\n        /* \"#utility.yul\":6728:6734   */\n      dup5\n        /* \"#utility.yul\":6666:6742   */\n      tag_135\n      jump\t// in\n    tag_213:\n        /* \"#utility.yul\":6658:6742   */\n      swap1\n      pop\n        /* \"#utility.yul\":6220:6749   */\n      swap5\n      swap4\n      pop\n      pop\n      pop\n      pop\n      jump\t// out\n\n    auxdata: 0xa26469706673582212204a290450efcf906a3bd8105852896c2ae0a6824b1cf88342d9bf9930b898d7af64736f6c634300081e0033\n}\n",
				"bytecode": {
					"linkReferences": {},
					"object": "60e06040526509184e72a0006fffffffffffffffffffffffffffffffff1660c0906fffffffffffffffffffffffffffffffff16815250348015610040575f5ffd5b5060405161115038038061115083398181016040528101906100629190610111565b806fffffffffffffffffffffffffffffffff1660a0816fffffffffffffffffffffffffffffffff16815250503373ffffffffffffffffffffffffffffffffffffffff1660808173ffffffffffffffffffffffffffffffffffffffff16815250505061013c565b5f5ffd5b5f6fffffffffffffffffffffffffffffffff82169050919050565b6100f0816100cc565b81146100fa575f5ffd5b50565b5f8151905061010b816100e7565b92915050565b5f60208284031215610126576101256100c8565b5b5f610133848285016100fd565b91505092915050565b60805160a05160c051610fc76101895f395f81816103d001526106fe01525f818161072201526108b601525f81816105600152818161074701528181610a820152610aa70152610fc75ff3fe60806040526004361061009b575f3560e01c80637f86ee43116100635780637f86ee431461018157806380ef10ed146101ab57806394f649dd146101d5578063d0e30db014610211578063e39782401461021b578063f8b2cb4f146102455761009b565b806312065fe01461009f5780632e1a7d4d146100c95780633a2b643a146100f157806350d6c1e81461012d5780636b149d8714610157575b5f5ffd5b3480156100aa575f5ffd5b506100b3610281565b6040516100c09190610c4e565b60405180910390f35b3480156100d4575f5ffd5b506100ef60048036038101906100ea9190610c95565b6102c4565b005b3480156100fc575f5ffd5b5061011760048036038101906101129190610d1a565b61055d565b6040516101249190610c4e565b60405180910390f35b348015610138575f5ffd5b5061014161064a565b60405161014e9190610c4e565b60405180910390f35b348015610162575f5ffd5b5061016b6106a3565b6040516101789190610c4e565b60405180910390f35b34801561018c575f5ffd5b506101956106fc565b6040516101a29190610d6f565b60405180910390f35b3480156101b6575f5ffd5b506101bf610720565b6040516101cc9190610d6f565b60405180910390f35b3480156101e0575f5ffd5b506101fb60048036038101906101f69190610d1a565b610744565b6040516102089190610c4e565b60405180910390f35b610219610831565b005b348015610226575f5ffd5b5061022f610a80565b60405161023c9190610d97565b60405180910390f35b348015610250575f5ffd5b5061026b60048036038101906102669190610d1a565b610aa4565b6040516102789190610c4e565b60405180910390f35b5f5f5f3373ffffffffffffffffffffffffffffffffffffffff1673ffffffffffffffffffffffffffffffffffffffff1681526020019081526020015f2054905090565b7f3175035b120f22d7e7407b9f06f080ef0dbba46bb02a00e41a7b070b43cc8db933826040516102f5929190610db0565b60405180910390a15f811133829091610345576040517ff607410700000000000000000000000000000000000000000000000000000000815260040161033c929190610db0565b60405180910390fd5b50505f5f3373ffffffffffffffffffffffffffffffffffffffff1673ffffffffffffffffffffffffffffffffffffffff1681526020019081526020015f2054811115338290916103cc576040517ff60741070000000000000000000000000000000000000000000000000000000081526004016103c3929190610db0565b60405180910390fd5b50507f00000000000000000000000000000000000000000000000000000000000000006fffffffffffffffffffffffffffffffff1681111533829091610449576040517ff6074107000000000000000000000000000000000000000000000000000000008152600401610440929190610db0565b60405180910390fd5b505061045481610b7b565b805f5f3373ffffffffffffffffffffffffffffffffffffffff1673ffffffffffffffffffffffffffffffffffffffff1681526020019081526020015f205f82825461049f9190610e04565b9250508190555060025f3373ffffffffffffffffffffffffffffffffffffffff1673ffffffffffffffffffffffffffffffffffffffff1681526020019081526020015f205f81819054906101000a900463ffffffff168092919061050290610e46565b91906101000a81548163ffffffff021916908363ffffffff160217905550507f69c169e5c85af54e1ca7e16608ccc812437821387924fb3353a7d053264ddaa03382604051610552929190610db0565b60405180910390a150565b5f7f000000000000000000000000000000000000000000000000000000000000000073ffffffffffffffffffffffffffffffffffffffff163373ffffffffffffffffffffffffffffffffffffffff161433906105ef576040517fccb6416a0000000000000000000000000000000000000000000000000000000081526004016105e69190610d97565b60405180910390fd5b5060025f8373ffffffffffffffffffffffffffffffffffffffff1673ffffffffffffffffffffffffffffffffffffffff1681526020019081526020015f205f9054906101000a900463ffffffff1663ffffffff169050919050565b5f60025f3373ffffffffffffffffffffffffffffffffffffffff1673ffffffffffffffffffffffffffffffffffffffff1681526020019081526020015f205f9054906101000a900463ffffffff1663ffffffff16905090565b5f60015f3373ffffffffffffffffffffffffffffffffffffffff1673ffffffffffffffffffffffffffffffffffffffff1681526020019081526020015f205f9054906101000a900463ffffffff1663ffffffff16905090565b7f000000000000000000000000000000000000000000000000000000000000000081565b7f000000000000000000000000000000000000000000000000000000000000000081565b5f7f000000000000000000000000000000000000000000000000000000000000000073ffffffffffffffffffffffffffffffffffffffff163373ffffffffffffffffffffffffffffffffffffffff161433906107d6576040517fccb6416a0000000000000000000000000000000000000000000000000000000081526004016107cd9190610d97565b60405180910390fd5b5060015f8373ffffffffffffffffffffffffffffffffffffffff1673ffffffffffffffffffffffffffffffffffffffff1681526020019081526020015f205f9054906101000a900463ffffffff1663ffffffff169050919050565b7f55896b30a78fc55b78937f8014dde3f0035e9d37a4f6ac36841fb8b62f7e2b133334604051610862929190610db0565b60405180910390a15f3411333490916108b2576040517facb26d8e0000000000000000000000000000000000000000000000000000000081526004016108a9929190610db0565b60405180910390fd5b50507f00000000000000000000000000000000000000000000000000000000000000006fffffffffffffffffffffffffffffffff165f5f3373ffffffffffffffffffffffffffffffffffffffff1673ffffffffffffffffffffffffffffffffffffffff1681526020019081526020015f20543461092f9190610e71565b111533349091610976576040517facb26d8e00000000000000000000000000000000000000000000000000000000815260040161096d929190610db0565b60405180910390fd5b5050345f5f3373ffffffffffffffffffffffffffffffffffffffff1673ffffffffffffffffffffffffffffffffffffffff1681526020019081526020015f205f8282546109c39190610e71565b9250508190555060015f3373ffffffffffffffffffffffffffffffffffffffff1673ffffffffffffffffffffffffffffffffffffffff1681526020019081526020015f205f81819054906101000a900463ffffffff1680929190610a2690610e46565b91906101000a81548163ffffffff021916908363ffffffff160217905550507f2da466a7b24304f47e87fa2e1e5a81b9831ce54fec19055ce277ca2f39ba42c43334604051610a76929190610db0565b60405180910390a1565b7f000000000000000000000000000000000000000000000000000000000000000081565b5f7f000000000000000000000000000000000000000000000000000000000000000073ffffffffffffffffffffffffffffffffffffffff163373ffffffffffffffffffffffffffffffffffffffff16143390610b36576040517fccb6416a000000000000000000000000000000000000000000000000000000008152600401610b2d9190610d97565b60405180910390fd5b505f5f8373ffffffffffffffffffffffffffffffffffffffff1673ffffffffffffffffffffffffffffffffffffffff1681526020019081526020015f20549050919050565b5f5f3373ffffffffffffffffffffffffffffffffffffffff1683604051610ba190610ed1565b5f6040518083038185875af1925050503d805f8114610bdb576040519150601f19603f3d011682016040523d82523d5f602084013e610be0565b606091505b509150915081338483909192610c2e576040517f3fd18b85000000000000000000000000000000000000000000000000000000008152600401610c2593929190610f55565b60405180910390fd5b505050505050565b5f819050919050565b610c4881610c36565b82525050565b5f602082019050610c615f830184610c3f565b92915050565b5f5ffd5b610c7481610c36565b8114610c7e575f5ffd5b50565b5f81359050610c8f81610c6b565b92915050565b5f60208284031215610caa57610ca9610c67565b5b5f610cb784828501610c81565b91505092915050565b5f73ffffffffffffffffffffffffffffffffffffffff82169050919050565b5f610ce982610cc0565b9050919050565b610cf981610cdf565b8114610d03575f5ffd5b50565b5f81359050610d1481610cf0565b92915050565b5f60208284031215610d2f57610d2e610c67565b5b5f610d3c84828501610d06565b91505092915050565b5f6fffffffffffffffffffffffffffffffff82169050919050565b610d6981610d45565b82525050565b5f602082019050610d825f830184610d60565b92915050565b610d9181610cdf565b82525050565b5f602082019050610daa5f830184610d88565b92915050565b5f604082019050610dc35f830185610d88565b610dd06020830184610c3f565b9392505050565b7f4e487b71000000000000000000000000000000000000000000000000000000005f52601160045260245ffd5b5f610e0e82610c36565b9150610e1983610c36565b9250828203905081811115610e3157610e30610dd7565b5b92915050565b5f63ffffffff82169050919050565b5f610e5082610e37565b915063ffffffff8203610e6657610e65610dd7565b5b600182019050919050565b5f610e7b82610c36565b9150610e8683610c36565b9250828201905080821115610e9e57610e9d610dd7565b5b92915050565b5f81905092915050565b50565b5f610ebc5f83610ea4565b9150610ec782610eae565b5f82019050919050565b5f610edb82610eb1565b9150819050919050565b5f81519050919050565b5f82825260208201905092915050565b8281835e5f83830152505050565b5f601f19601f8301169050919050565b5f610f2782610ee5565b610f318185610eef565b9350610f41818560208601610eff565b610f4a81610f0d565b840191505092915050565b5f606082019050610f685f830186610d88565b610f756020830185610c3f565b8181036040830152610f878184610f1d565b905094935050505056fea26469706673582212204a290450efcf906a3bd8105852896c2ae0a6824b1cf88342d9bf9930b898d7af64736f6c634300081e0033",
					"opcodes": "PUSH1 0xE0 PUSH1 0x40 MSTORE PUSH6 0x9184E72A000 PUSH16 0xFFFFFFFFFFFFFFFFFFFFFFFFFFFFFFFF AND PUSH1 0xC0 SWAP1 PUSH16 0xFFFFFFFFFFFFFFFFFFFFFFFFFFFFFFFF AND DUP2 MSTORE POP CALLVALUE DUP1 ISZERO PUSH2 0x40 JUMPI PUSH0 PUSH0 REVERT JUMPDEST POP PUSH1 0x40 MLOAD PUSH2 0x1150 CODESIZE SUB DUP1 PUSH2 0x1150 DUP4 CODECOPY DUP2 DUP2 ADD PUSH1 0x40 MSTORE DUP2 ADD SWAP1 PUSH2 0x62 SWAP2 SWAP1 PUSH2 0x111 JUMP JUMPDEST DUP1 PUSH16 0xFFFFFFFFFFFFFFFFFFFFFFFFFFFFFFFF AND PUSH1 0xA0 DUP2 PUSH16 0xFFFFFFFFFFFFFFFFFFFFFFFFFFFFFFFF AND DUP2 MSTORE POP POP CALLER PUSH20 0xFFFFFFFFFFFFFFFFFFFFFFFFFFFFFFFFFFFFFFFF AND PUSH1 0x80 DUP2 PUSH20 0xFFFFFFFFFFFFFFFFFFFFFFFFFFFFFFFFFFFFFFFF AND DUP2 MSTORE POP POP POP PUSH2 0x13C JUMP JUMPDEST PUSH0 PUSH0 REVERT JUMPDEST PUSH0 PUSH16 0xFFFFFFFFFFFFFFFFFFFFFFFFFFFFFFFF DUP3 AND SWAP1 POP SWAP2 SWAP1 POP JUMP JUMPDEST PUSH2 0xF0 DUP2 PUSH2 0xCC JUMP JUMPDEST DUP2 EQ PUSH2 0xFA JUMPI PUSH0 PUSH0 REVERT JUMPDEST POP JUMP JUMPDEST PUSH0 DUP2 MLOAD SWAP1 POP PUSH2 0x10B DUP2 PUSH2 0xE7 JUMP JUMPDEST SWAP3 SWAP2 POP POP JUMP JUMPDEST PUSH0 PUSH1 0x20 DUP3 DUP5 SUB SLT ISZERO PUSH2 0x126 JUMPI PUSH2 0x125 PUSH2 0xC8 JUMP JUMPDEST JUMPDEST PUSH0 PUSH2 0x133 DUP5 DUP3 DUP6 ADD PUSH2 0xFD JUMP JUMPDEST SWAP2 POP POP SWAP3 SWAP2 POP POP JUMP JUMPDEST PUSH1 0x80 MLOAD PUSH1 0xA0 MLOAD PUSH1 0xC0 MLOAD PUSH2 0xFC7 PUSH2 0x189 PUSH0 CODECOPY PUSH0 DUP2 DUP2 PUSH2 0x3D0 ADD MSTORE PUSH2 0x6FE ADD MSTORE PUSH0 DUP2 DUP2 PUSH2 0x722 ADD MSTORE PUSH2 0x8B6 ADD MSTORE PUSH0 DUP2 DUP2 PUSH2 0x560 ADD MSTORE DUP2 DUP2 PUSH2 0x747 ADD MSTORE DUP2 DUP2 PUSH2 0xA82 ADD MSTORE PUSH2 0xAA7 ADD MSTORE PUSH2 0xFC7 PUSH0 RETURN INVALID PUSH1 0x80 PUSH1 0x40 MSTORE PUSH1 0x4 CALLDATASIZE LT PUSH2 0x9B JUMPI PUSH0 CALLDATALOAD PUSH1 0xE0 SHR DUP1 PUSH4 0x7F86EE43 GT PUSH2 0x63 JUMPI DUP1 PUSH4 0x7F86EE43 EQ PUSH2 0x181 JUMPI DUP1 PUSH4 0x80EF10ED EQ PUSH2 0x1AB JUMPI DUP1 PUSH4 0x94F649DD EQ PUSH2 0x1D5 JUMPI DUP1 PUSH4 0xD0E30DB0 EQ PUSH2 0x211 JUMPI DUP1 PUSH4 0xE3978240 EQ PUSH2 0x21B JUMPI DUP1 PUSH4 0xF8B2CB4F EQ PUSH2 0x245 JUMPI PUSH2 0x9B JUMP JUMPDEST DUP1 PUSH4 0x12065FE0 EQ PUSH2 0x9F JUMPI DUP1 PUSH4 0x2E1A7D4D EQ PUSH2 0xC9 JUMPI DUP1 PUSH4 0x3A2B643A EQ PUSH2 0xF1 JUMPI DUP1 PUSH4 0x50D6C1E8 EQ PUSH2 0x12D JUMPI DUP1 PUSH4 0x6B149D87 EQ PUSH2 0x157 JUMPI JUMPDEST PUSH0 PUSH0 REVERT JUMPDEST CALLVALUE DUP1 ISZERO PUSH2 0xAA JUMPI PUSH0 PUSH0 REVERT JUMPDEST POP PUSH2 0xB3 PUSH2 0x281 JUMP JUMPDEST PUSH1 0x40 MLOAD PUSH2 0xC0 SWAP2 SWAP1 PUSH2 0xC4E JUMP JUMPDEST PUSH1 0x40 MLOAD DUP1 SWAP2 SUB SWAP1 RETURN JUMPDEST CALLVALUE DUP1 ISZERO PUSH2 0xD4 JUMPI PUSH0 PUSH0 REVERT JUMPDEST POP PUSH2 0xEF PUSH1 0x4 DUP1 CALLDATASIZE SUB DUP2 ADD SWAP1 PUSH2 0xEA SWAP2 SWAP1 PUSH2 0xC95 JUMP JUMPDEST PUSH2 0x2C4 JUMP JUMPDEST STOP JUMPDEST CALLVALUE DUP1 ISZERO PUSH2 0xFC JUMPI PUSH0 PUSH0 REVERT JUMPDEST POP PUSH2 0x117 PUSH1 0x4 DUP1 CALLDATASIZE SUB DUP2 ADD SWAP1 PUSH2 0x112 SWAP2 SWAP1 PUSH2 0xD1A JUMP JUMPDEST PUSH2 0x55D JUMP JUMPDEST PUSH1 0x40 MLOAD PUSH2 0x124 SWAP2 SWAP1 PUSH2 0xC4E JUMP JUMPDEST PUSH1 0x40 MLOAD DUP1 SWAP2 SUB SWAP1 RETURN JUMPDEST CALLVALUE DUP1 ISZERO PUSH2 0x138 JUMPI PUSH0 PUSH0 REVERT JUMPDEST POP PUSH2 0x141 PUSH2 0x64A JUMP JUMPDEST PUSH1 0x40 MLOAD PUSH2 0x14E SWAP2 SWAP1 PUSH2 0xC4E JUMP JUMPDEST PUSH1 0x40 MLOAD DUP1 SWAP2 SUB SWAP1 RETURN JUMPDEST CALLVALUE DUP1 ISZERO PUSH2 0x162 JUMPI PUSH0 PUSH0 REVERT JUMPDEST POP PUSH2 0x16B PUSH2 0x6A3 JUMP JUMPDEST PUSH1 0x40 MLOAD PUSH2 0x178 SWAP2 SWAP1 PUSH2 0xC4E JUMP JUMPDEST PUSH1 0x40 MLOAD DUP1 SWAP2 SUB SWAP1 RETURN JUMPDEST CALLVALUE DUP1 ISZERO PUSH2 0x18C JUMPI PUSH0 PUSH0 REVERT JUMPDEST POP PUSH2 0x195 PUSH2 0x6FC JUMP JUMPDEST PUSH1 0x40 MLOAD PUSH2 0x1A2 SWAP2 SWAP1 PUSH2 0xD6F JUMP JUMPDEST PUSH1 0x40 MLOAD DUP1 SWAP2 SUB SWAP1 RETURN JUMPDEST CALLVALUE DUP1 ISZERO PUSH2 0x1B6 JUMPI PUSH0 PUSH0 REVERT JUMPDEST POP PUSH2 0x1BF PUSH2 0x720 JUMP JUMPDEST PUSH1 0x40 MLOAD PUSH2 0x1CC SWAP2 SWAP1 PUSH2 0xD6F JUMP JUMPDEST PUSH1 0x40 MLOAD DUP1 SWAP2 SUB SWAP1 RETURN JUMPDEST CALLVALUE DUP1 ISZERO PUSH2 0x1E0 JUMPI PUSH0 PUSH0 REVERT JUMPDEST POP PUSH2 0x1FB PUSH1 0x4 DUP1 CALLDATASIZE SUB DUP2 ADD SWAP1 PUSH2 0x1F6 SWAP2 SWAP1 PUSH2 0xD1A JUMP JUMPDEST PUSH2 0x744 JUMP JUMPDEST PUSH1 0x40 MLOAD PUSH2 0x208 SWAP2 SWAP1 PUSH2 0xC4E JUMP JUMPDEST PUSH1 0x40 MLOAD DUP1 SWAP2 SUB SWAP1 RETURN JUMPDEST PUSH2 0x219 PUSH2 0x831 JUMP JUMPDEST STOP JUMPDEST CALLVALUE DUP1 ISZERO PUSH2 0x226 JUMPI PUSH0 PUSH0 REVERT JUMPDEST POP PUSH2 0x22F PUSH2 0xA80 JUMP JUMPDEST PUSH1 0x40 MLOAD PUSH2 0x23C SWAP2 SWAP1 PUSH2 0xD97 JUMP JUMPDEST PUSH1 0x40 MLOAD DUP1 SWAP2 SUB SWAP1 RETURN JUMPDEST CALLVALUE DUP1 ISZERO PUSH2 0x250 JUMPI PUSH0 PUSH0 REVERT JUMPDEST POP PUSH2 0x26B PUSH1 0x4 DUP1 CALLDATASIZE SUB DUP2 ADD SWAP1 PUSH2 0x266 SWAP2 SWAP1 PUSH2 0xD1A JUMP JUMPDEST PUSH2 0xAA4 JUMP JUMPDEST PUSH1 0x40 MLOAD PUSH2 0x278 SWAP2 SWAP1 PUSH2 0xC4E JUMP JUMPDEST PUSH1 0x40 MLOAD DUP1 SWAP2 SUB SWAP1 RETURN JUMPDEST PUSH0 PUSH0 PUSH0 CALLER PUSH20 0xFFFFFFFFFFFFFFFFFFFFFFFFFFFFFFFFFFFFFFFF AND PUSH20 0xFFFFFFFFFFFFFFFFFFFFFFFFFFFFFFFFFFFFFFFF AND DUP2 MSTORE PUSH1 0x20 ADD SWAP1 DUP2 MSTORE PUSH1 0x20 ADD PUSH0 KECCAK256 SLOAD SWAP1 POP SWAP1 JUMP JUMPDEST PUSH32 0x3175035B120F22D7E7407B9F06F080EF0DBBA46BB02A00E41A7B070B43CC8DB9 CALLER DUP3 PUSH1 0x40 MLOAD PUSH2 0x2F5 SWAP3 SWAP2 SWAP1 PUSH2 0xDB0 JUMP JUMPDEST PUSH1 0x40 MLOAD DUP1 SWAP2 SUB SWAP1 LOG1 PUSH0 DUP2 GT CALLER DUP3 SWAP1 SWAP2 PUSH2 0x345 JUMPI PUSH1 0x40 MLOAD PUSH32 0xF607410700000000000000000000000000000000000000000000000000000000 DUP2 MSTORE PUSH1 0x4 ADD PUSH2 0x33C SWAP3 SWAP2 SWAP1 PUSH2 0xDB0 JUMP JUMPDEST PUSH1 0x40 MLOAD DUP1 SWAP2 SUB SWAP1 REVERT JUMPDEST POP POP PUSH0 PUSH0 CALLER PUSH20 0xFFFFFFFFFFFFFFFFFFFFFFFFFFFFFFFFFFFFFFFF AND PUSH20 0xFFFFFFFFFFFFFFFFFFFFFFFFFFFFFFFFFFFFFFFF AND DUP2 MSTORE PUSH1 0x20 ADD SWAP1 DUP2 MSTORE PUSH1 0x20 ADD PUSH0 KECCAK256 SLOAD DUP2 GT ISZERO CALLER DUP3 SWAP1 SWAP2 PUSH2 0x3CC JUMPI PUSH1 0x40 MLOAD PUSH32 0xF607410700000000000000000000000000000000000000000000000000000000 DUP2 MSTORE PUSH1 0x4 ADD PUSH2 0x3C3 SWAP3 SWAP2 SWAP1 PUSH2 0xDB0 JUMP JUMPDEST PUSH1 0x40 MLOAD DUP1 SWAP2 SUB SWAP1 REVERT JUMPDEST POP POP PUSH32 0x0 PUSH16 0xFFFFFFFFFFFFFFFFFFFFFFFFFFFFFFFF AND DUP2 GT ISZERO CALLER DUP3 SWAP1 SWAP2 PUSH2 0x449 JUMPI PUSH1 0x40 MLOAD PUSH32 0xF607410700000000000000000000000000000000000000000000000000000000 DUP2 MSTORE PUSH1 0x4 ADD PUSH2 0x440 SWAP3 SWAP2 SWAP1 PUSH2 0xDB0 JUMP JUMPDEST PUSH1 0x40 MLOAD DUP1 SWAP2 SUB SWAP1 REVERT JUMPDEST POP POP PUSH2 0x454 DUP2 PUSH2 0xB7B JUMP JUMPDEST DUP1 PUSH0 PUSH0 CALLER PUSH20 0xFFFFFFFFFFFFFFFFFFFFFFFFFFFFFFFFFFFFFFFF AND PUSH20 0xFFFFFFFFFFFFFFFFFFFFFFFFFFFFFFFFFFFFFFFF AND DUP2 MSTORE PUSH1 0x20 ADD SWAP1 DUP2 MSTORE PUSH1 0x20 ADD PUSH0 KECCAK256 PUSH0 DUP3 DUP3 SLOAD PUSH2 0x49F SWAP2 SWAP1 PUSH2 0xE04 JUMP JUMPDEST SWAP3 POP POP DUP2 SWAP1 SSTORE POP PUSH1 0x2 PUSH0 CALLER PUSH20 0xFFFFFFFFFFFFFFFFFFFFFFFFFFFFFFFFFFFFFFFF AND PUSH20 0xFFFFFFFFFFFFFFFFFFFFFFFFFFFFFFFFFFFFFFFF AND DUP2 MSTORE PUSH1 0x20 ADD SWAP1 DUP2 MSTORE PUSH1 0x20 ADD PUSH0 KECCAK256 PUSH0 DUP2 DUP2 SWAP1 SLOAD SWAP1 PUSH2 0x100 EXP SWAP1 DIV PUSH4 0xFFFFFFFF AND DUP1 SWAP3 SWAP2 SWAP1 PUSH2 0x502 SWAP1 PUSH2 0xE46 JUMP JUMPDEST SWAP2 SWAP1 PUSH2 0x100 EXP DUP2 SLOAD DUP2 PUSH4 0xFFFFFFFF MUL NOT AND SWAP1 DUP4 PUSH4 0xFFFFFFFF AND MUL OR SWAP1 SSTORE POP POP PUSH32 0x69C169E5C85AF54E1CA7E16608CCC812437821387924FB3353A7D053264DDAA0 CALLER DUP3 PUSH1 0x40 MLOAD PUSH2 0x552 SWAP3 SWAP2 SWAP1 PUSH2 0xDB0 JUMP JUMPDEST PUSH1 0x40 MLOAD DUP1 SWAP2 SUB SWAP1 LOG1 POP JUMP JUMPDEST PUSH0 PUSH32 0x0 PUSH20 0xFFFFFFFFFFFFFFFFFFFFFFFFFFFFFFFFFFFFFFFF AND CALLER PUSH20 0xFFFFFFFFFFFFFFFFFFFFFFFFFFFFFFFFFFFFFFFF AND EQ CALLER SWAP1 PUSH2 0x5EF JUMPI PUSH1 0x40 MLOAD PUSH32 0xCCB6416A00000000000000000000000000000000000000000000000000000000 DUP2 MSTORE PUSH1 0x4 ADD PUSH2 0x5E6 SWAP2 SWAP1 PUSH2 0xD97 JUMP JUMPDEST PUSH1 0x40 MLOAD DUP1 SWAP2 SUB SWAP1 REVERT JUMPDEST POP PUSH1 0x2 PUSH0 DUP4 PUSH20 0xFFFFFFFFFFFFFFFFFFFFFFFFFFFFFFFFFFFFFFFF AND PUSH20 0xFFFFFFFFFFFFFFFFFFFFFFFFFFFFFFFFFFFFFFFF AND DUP2 MSTORE PUSH1 0x20 ADD SWAP1 DUP2 MSTORE PUSH1 0x20 ADD PUSH0 KECCAK256 PUSH0 SWAP1 SLOAD SWAP1 PUSH2 0x100 EXP SWAP1 DIV PUSH4 0xFFFFFFFF AND PUSH4 0xFFFFFFFF AND SWAP1 POP SWAP2 SWAP1 POP JUMP JUMPDEST PUSH0 PUSH1 0x2 PUSH0 CALLER PUSH20 0xFFFFFFFFFFFFFFFFFFFFFFFFFFFFFFFFFFFFFFFF AND PUSH20 0xFFFFFFFFFFFFFFFFFFFFFFFFFFFFFFFFFFFFFFFF AND DUP2 MSTORE PUSH1 0x20 ADD SWAP1 DUP2 MSTORE PUSH1 0x20 ADD PUSH0 KECCAK256 PUSH0 SWAP1 SLOAD SWAP1 PUSH2 0x100 EXP SWAP1 DIV PUSH4 0xFFFFFFFF AND PUSH4 0xFFFFFFFF AND SWAP1 POP SWAP1 JUMP JUMPDEST PUSH0 PUSH1 0x1 PUSH0 CALLER PUSH20 0xFFFFFFFFFFFFFFFFFFFFFFFFFFFFFFFFFFFFFFFF AND PUSH20 0xFFFFFFFFFFFFFFFFFFFFFFFFFFFFFFFFFFFFFFFF AND DUP2 MSTORE PUSH1 0x20 ADD SWAP1 DUP2 MSTORE PUSH1 0x20 ADD PUSH0 KECCAK256 PUSH0 SWAP1 SLOAD SWAP1 PUSH2 0x100 EXP SWAP1 DIV PUSH4 0xFFFFFFFF AND PUSH4 0xFFFFFFFF AND SWAP1 POP SWAP1 JUMP JUMPDEST PUSH32 0x0 DUP2 JUMP JUMPDEST PUSH32 0x0 DUP2 JUMP JUMPDEST PUSH0 PUSH32 0x0 PUSH20 0xFFFFFFFFFFFFFFFFFFFFFFFFFFFFFFFFFFFFFFFF AND CALLER PUSH20 0xFFFFFFFFFFFFFFFFFFFFFFFFFFFFFFFFFFFFFFFF AND EQ CALLER SWAP1 PUSH2 0x7D6 JUMPI PUSH1 0x40 MLOAD PUSH32 0xCCB6416A00000000000000000000000000000000000000000000000000000000 DUP2 MSTORE PUSH1 0x4 ADD PUSH2 0x7CD SWAP2 SWAP1 PUSH2 0xD97 JUMP JUMPDEST PUSH1 0x40 MLOAD DUP1 SWAP2 SUB SWAP1 REVERT JUMPDEST POP PUSH1 0x1 PUSH0 DUP4 PUSH20 0xFFFFFFFFFFFFFFFFFFFFFFFFFFFFFFFFFFFFFFFF AND PUSH20 0xFFFFFFFFFFFFFFFFFFFFFFFFFFFFFFFFFFFFFFFF AND DUP2 MSTORE PUSH1 0x20 ADD SWAP1 DUP2 MSTORE PUSH1 0x20 ADD PUSH0 KECCAK256 PUSH0 SWAP1 SLOAD SWAP1 PUSH2 0x100 EXP SWAP1 DIV PUSH4 0xFFFFFFFF AND PUSH4 0xFFFFFFFF AND SWAP1 POP SWAP2 SWAP1 POP JUMP JUMPDEST PUSH32 0x55896B30A78FC55B78937F8014DDE3F0035E9D37A4F6AC36841FB8B62F7E2B13 CALLER CALLVALUE PUSH1 0x40 MLOAD PUSH2 0x862 SWAP3 SWAP2 SWAP1 PUSH2 0xDB0 JUMP JUMPDEST PUSH1 0x40 MLOAD DUP1 SWAP2 SUB SWAP1 LOG1 PUSH0 CALLVALUE GT CALLER CALLVALUE SWAP1 SWAP2 PUSH2 0x8B2 JUMPI PUSH1 0x40 MLOAD PUSH32 0xACB26D8E00000000000000000000000000000000000000000000000000000000 DUP2 MSTORE PUSH1 0x4 ADD PUSH2 0x8A9 SWAP3 SWAP2 SWAP1 PUSH2 0xDB0 JUMP JUMPDEST PUSH1 0x40 MLOAD DUP1 SWAP2 SUB SWAP1 REVERT JUMPDEST POP POP PUSH32 0x0 PUSH16 0xFFFFFFFFFFFFFFFFFFFFFFFFFFFFFFFF AND PUSH0 PUSH0 CALLER PUSH20 0xFFFFFFFFFFFFFFFFFFFFFFFFFFFFFFFFFFFFFFFF AND PUSH20 0xFFFFFFFFFFFFFFFFFFFFFFFFFFFFFFFFFFFFFFFF AND DUP2 MSTORE PUSH1 0x20 ADD SWAP1 DUP2 MSTORE PUSH1 0x20 ADD PUSH0 KECCAK256 SLOAD CALLVALUE PUSH2 0x92F SWAP2 SWAP1 PUSH2 0xE71 JUMP JUMPDEST GT ISZERO CALLER CALLVALUE SWAP1 SWAP2 PUSH2 0x976 JUMPI PUSH1 0x40 MLOAD PUSH32 0xACB26D8E00000000000000000000000000000000000000000000000000000000 DUP2 MSTORE PUSH1 0x4 ADD PUSH2 0x96D SWAP3 SWAP2 SWAP1 PUSH2 0xDB0 JUMP JUMPDEST PUSH1 0x40 MLOAD DUP1 SWAP2 SUB SWAP1 REVERT JUMPDEST POP POP CALLVALUE PUSH0 PUSH0 CALLER PUSH20 0xFFFFFFFFFFFFFFFFFFFFFFFFFFFFFFFFFFFFFFFF AND PUSH20 0xFFFFFFFFFFFFFFFFFFFFFFFFFFFFFFFFFFFFFFFF AND DUP2 MSTORE PUSH1 0x20 ADD SWAP1 DUP2 MSTORE PUSH1 0x20 ADD PUSH0 KECCAK256 PUSH0 DUP3 DUP3 SLOAD PUSH2 0x9C3 SWAP2 SWAP1 PUSH2 0xE71 JUMP JUMPDEST SWAP3 POP POP DUP2 SWAP1 SSTORE POP PUSH1 0x1 PUSH0 CALLER PUSH20 0xFFFFFFFFFFFFFFFFFFFFFFFFFFFFFFFFFFFFFFFF AND PUSH20 0xFFFFFFFFFFFFFFFFFFFFFFFFFFFFFFFFFFFFFFFF AND DUP2 MSTORE PUSH1 0x20 ADD SWAP1 DUP2 MSTORE PUSH1 0x20 ADD PUSH0 KECCAK256 PUSH0 DUP2 DUP2 SWAP1 SLOAD SWAP1 PUSH2 0x100 EXP SWAP1 DIV PUSH4 0xFFFFFFFF AND DUP1 SWAP3 SWAP2 SWAP1 PUSH2 0xA26 SWAP1 PUSH2 0xE46 JUMP JUMPDEST SWAP2 SWAP1 PUSH2 0x100 EXP DUP2 SLOAD DUP2 PUSH4 0xFFFFFFFF MUL NOT AND SWAP1 DUP4 PUSH4 0xFFFFFFFF AND MUL OR SWAP1 SSTORE POP POP PUSH32 0x2DA466A7B24304F47E87FA2E1E5A81B9831CE54FEC19055CE277CA2F39BA42C4 CALLER CALLVALUE PUSH1 0x40 MLOAD PUSH2 0xA76 SWAP3 SWAP2 SWAP1 PUSH2 0xDB0 JUMP JUMPDEST PUSH1 0x40 MLOAD DUP1 SWAP2 SUB SWAP1 LOG1 JUMP JUMPDEST PUSH32 0x0 DUP2 JUMP JUMPDEST PUSH0 PUSH32 0x0 PUSH20 0xFFFFFFFFFFFFFFFFFFFFFFFFFFFFFFFFFFFFFFFF AND CALLER PUSH20 0xFFFFFFFFFFFFFFFFFFFFFFFFFFFFFFFFFFFFFFFF AND EQ CALLER SWAP1 PUSH2 0xB36 JUMPI PUSH1 0x40 MLOAD PUSH32 0xCCB6416A00000000000000000000000000000000000000000000000000000000 DUP2 MSTORE PUSH1 0x4 ADD PUSH2 0xB2D SWAP2 SWAP1 PUSH2 0xD97 JUMP JUMPDEST PUSH1 0x40 MLOAD DUP1 SWAP2 SUB SWAP1 REVERT JUMPDEST POP PUSH0 PUSH0 DUP4 PUSH20 0xFFFFFFFFFFFFFFFFFFFFFFFFFFFFFFFFFFFFFFFF AND PUSH20 0xFFFFFFFFFFFFFFFFFFFFFFFFFFFFFFFFFFFFFFFF AND DUP2 MSTORE PUSH1 0x20 ADD SWAP1 DUP2 MSTORE PUSH1 0x20 ADD PUSH0 KECCAK256 SLOAD SWAP1 POP SWAP2 SWAP1 POP JUMP JUMPDEST PUSH0 PUSH0 CALLER PUSH20 0xFFFFFFFFFFFFFFFFFFFFFFFFFFFFFFFFFFFFFFFF AND DUP4 PUSH1 0x40 MLOAD PUSH2 0xBA1 SWAP1 PUSH2 0xED1 JUMP JUMPDEST PUSH0 PUSH1 0x40 MLOAD DUP1 DUP4 SUB DUP2 DUP6 DUP8 GAS CALL SWAP3 POP POP POP RETURNDATASIZE DUP1 PUSH0 DUP2 EQ PUSH2 0xBDB JUMPI PUSH1 0x40 MLOAD SWAP2 POP PUSH1 0x1F NOT PUSH1 0x3F RETURNDATASIZE ADD AND DUP3 ADD PUSH1 0x40 MSTORE RETURNDATASIZE DUP3 MSTORE RETURNDATASIZE PUSH0 PUSH1 0x20 DUP5 ADD RETURNDATACOPY PUSH2 0xBE0 JUMP JUMPDEST PUSH1 0x60 SWAP2 POP JUMPDEST POP SWAP2 POP SWAP2 POP DUP2 CALLER DUP5 DUP4 SWAP1 SWAP2 SWAP3 PUSH2 0xC2E JUMPI PUSH1 0x40 MLOAD PUSH32 0x3FD18B8500000000000000000000000000000000000000000000000000000000 DUP2 MSTORE PUSH1 0x4 ADD PUSH2 0xC25 SWAP4 SWAP3 SWAP2 SWAP1 PUSH2 0xF55 JUMP JUMPDEST PUSH1 0x40 MLOAD DUP1 SWAP2 SUB SWAP1 REVERT JUMPDEST POP POP POP POP POP POP JUMP JUMPDEST PUSH0 DUP2 SWAP1 POP SWAP2 SWAP1 POP JUMP JUMPDEST PUSH2 0xC48 DUP2 PUSH2 0xC36 JUMP JUMPDEST DUP3 MSTORE POP POP JUMP JUMPDEST PUSH0 PUSH1 0x20 DUP3 ADD SWAP1 POP PUSH2 0xC61 PUSH0 DUP4 ADD DUP5 PUSH2 0xC3F JUMP JUMPDEST SWAP3 SWAP2 POP POP JUMP JUMPDEST PUSH0 PUSH0 REVERT JUMPDEST PUSH2 0xC74 DUP2 PUSH2 0xC36 JUMP JUMPDEST DUP2 EQ PUSH2 0xC7E JUMPI PUSH0 PUSH0 REVERT JUMPDEST POP JUMP JUMPDEST PUSH0 DUP2 CALLDATALOAD SWAP1 POP PUSH2 0xC8F DUP2 PUSH2 0xC6B JUMP JUMPDEST SWAP3 SWAP2 POP POP JUMP JUMPDEST PUSH0 PUSH1 0x20 DUP3 DUP5 SUB SLT ISZERO PUSH2 0xCAA JUMPI PUSH2 0xCA9 PUSH2 0xC67 JUMP JUMPDEST JUMPDEST PUSH0 PUSH2 0xCB7 DUP5 DUP3 DUP6 ADD PUSH2 0xC81 JUMP JUMPDEST SWAP2 POP POP SWAP3 SWAP2 POP POP JUMP JUMPDEST PUSH0 PUSH20 0xFFFFFFFFFFFFFFFFFFFFFFFFFFFFFFFFFFFFFFFF DUP3 AND SWAP1 POP SWAP2 SWAP1 POP JUMP JUMPDEST PUSH0 PUSH2 0xCE9 DUP3 PUSH2 0xCC0 JUMP JUMPDEST SWAP1 POP SWAP2 SWAP1 POP JUMP JUMPDEST PUSH2 0xCF9 DUP2 PUSH2 0xCDF JUMP JUMPDEST DUP2 EQ PUSH2 0xD03 JUMPI PUSH0 PUSH0 REVERT JUMPDEST POP JUMP JUMPDEST PUSH0 DUP2 CALLDATALOAD SWAP1 POP PUSH2 0xD14 DUP2 PUSH2 0xCF0 JUMP JUMPDEST SWAP3 SWAP2 POP POP JUMP JUMPDEST PUSH0 PUSH1 0x20 DUP3 DUP5 SUB SLT ISZERO PUSH2 0xD2F JUMPI PUSH2 0xD2E PUSH2 0xC67 JUMP JUMPDEST JUMPDEST PUSH0 PUSH2 0xD3C DUP5 DUP3 DUP6 ADD PUSH2 0xD06 JUMP JUMPDEST SWAP2 POP POP SWAP3 SWAP2 POP POP JUMP JUMPDEST PUSH0 PUSH16 0xFFFFFFFFFFFFFFFFFFFFFFFFFFFFFFFF DUP3 AND SWAP1 POP SWAP2 SWAP1 POP JUMP JUMPDEST PUSH2 0xD69 DUP2 PUSH2 0xD45 JUMP JUMPDEST DUP3 MSTORE POP POP JUMP JUMPDEST PUSH0 PUSH1 0x20 DUP3 ADD SWAP1 POP PUSH2 0xD82 PUSH0 DUP4 ADD DUP5 PUSH2 0xD60 JUMP JUMPDEST SWAP3 SWAP2 POP POP JUMP JUMPDEST PUSH2 0xD91 DUP2 PUSH2 0xCDF JUMP JUMPDEST DUP3 MSTORE POP POP JUMP JUMPDEST PUSH0 PUSH1 0x20 DUP3 ADD SWAP1 POP PUSH2 0xDAA PUSH0 DUP4 ADD DUP5 PUSH2 0xD88 JUMP JUMPDEST SWAP3 SWAP2 POP POP JUMP JUMPDEST PUSH0 PUSH1 0x40 DUP3 ADD SWAP1 POP PUSH2 0xDC3 PUSH0 DUP4 ADD DUP6 PUSH2 0xD88 JUMP JUMPDEST PUSH2 0xDD0 PUSH1 0x20 DUP4 ADD DUP5 PUSH2 0xC3F JUMP JUMPDEST SWAP4 SWAP3 POP POP POP JUMP JUMPDEST PUSH32 0x4E487B7100000000000000000000000000000000000000000000000000000000 PUSH0 MSTORE PUSH1 0x11 PUSH1 0x4 MSTORE PUSH1 0x24 PUSH0 REVERT JUMPDEST PUSH0 PUSH2 0xE0E DUP3 PUSH2 0xC36 JUMP JUMPDEST SWAP2 POP PUSH2 0xE19 DUP4 PUSH2 0xC36 JUMP JUMPDEST SWAP3 POP DUP3 DUP3 SUB SWAP1 POP DUP2 DUP2 GT ISZERO PUSH2 0xE31 JUMPI PUSH2 0xE30 PUSH2 0xDD7 JUMP JUMPDEST JUMPDEST SWAP3 SWAP2 POP POP JUMP JUMPDEST PUSH0 PUSH4 0xFFFFFFFF DUP3 AND SWAP1 POP SWAP2 SWAP1 POP JUMP JUMPDEST PUSH0 PUSH2 0xE50 DUP3 PUSH2 0xE37 JUMP JUMPDEST SWAP2 POP PUSH4 0xFFFFFFFF DUP3 SUB PUSH2 0xE66 JUMPI PUSH2 0xE65 PUSH2 0xDD7 JUMP JUMPDEST JUMPDEST PUSH1 0x1 DUP3 ADD SWAP1 POP SWAP2 SWAP1 POP JUMP JUMPDEST PUSH0 PUSH2 0xE7B DUP3 PUSH2 0xC36 JUMP JUMPDEST SWAP2 POP PUSH2 0xE86 DUP4 PUSH2 0xC36 JUMP JUMPDEST SWAP3 POP DUP3 DUP3 ADD SWAP1 POP DUP1 DUP3 GT ISZERO PUSH2 0xE9E JUMPI PUSH2 0xE9D PUSH2 0xDD7 JUMP JUMPDEST JUMPDEST SWAP3 SWAP2 POP POP JUMP JUMPDEST PUSH0 DUP2 SWAP1 POP SWAP3 SWAP2 POP POP JUMP JUMPDEST POP JUMP JUMPDEST PUSH0 PUSH2 0xEBC PUSH0 DUP4 PUSH2 0xEA4 JUMP JUMPDEST SWAP2 POP PUSH2 0xEC7 DUP3 PUSH2 0xEAE JUMP JUMPDEST PUSH0 DUP3 ADD SWAP1 POP SWAP2 SWAP1 POP JUMP JUMPDEST PUSH0 PUSH2 0xEDB DUP3 PUSH2 0xEB1 JUMP JUMPDEST SWAP2 POP DUP2 SWAP1 POP SWAP2 SWAP1 POP JUMP JUMPDEST PUSH0 DUP2 MLOAD SWAP1 POP SWAP2 SWAP1 POP JUMP JUMPDEST PUSH0 DUP3 DUP3 MSTORE PUSH1 0x20 DUP3 ADD SWAP1 POP SWAP3 SWAP2 POP POP JUMP JUMPDEST DUP3 DUP2 DUP4 MCOPY PUSH0 DUP4 DUP4 ADD MSTORE POP POP POP JUMP JUMPDEST PUSH0 PUSH1 0x1F NOT PUSH1 0x1F DUP4 ADD AND SWAP1 POP SWAP2 SWAP1 POP JUMP JUMPDEST PUSH0 PUSH2 0xF27 DUP3 PUSH2 0xEE5 JUMP JUMPDEST PUSH2 0xF31 DUP2 DUP6 PUSH2 0xEEF JUMP JUMPDEST SWAP4 POP PUSH2 0xF41 DUP2 DUP6 PUSH1 0x20 DUP7 ADD PUSH2 0xEFF JUMP JUMPDEST PUSH2 0xF4A DUP2 PUSH2 0xF0D JUMP JUMPDEST DUP5 ADD SWAP2 POP POP SWAP3 SWAP2 POP POP JUMP JUMPDEST PUSH0 PUSH1 0x60 DUP3 ADD SWAP1 POP PUSH2 0xF68 PUSH0 DUP4 ADD DUP7 PUSH2 0xD88 JUMP JUMPDEST PUSH2 0xF75 PUSH1 0x20 DUP4 ADD DUP6 PUSH2 0xC3F JUMP JUMPDEST DUP2 DUP2 SUB PUSH1 0x40 DUP4 ADD MSTORE PUSH2 0xF87 DUP2 DUP5 PUSH2 0xF1D JUMP JUMPDEST SWAP1 POP SWAP5 SWAP4 POP POP POP POP JUMP INVALID LOG2 PUSH5 0x6970667358 0x22 SLT KECCAK256 BLOBBASEFEE 0x29 DIV POP 0xEF 0xCF SWAP1 PUSH11 0x3BD8105852896C2AE0A682 0x4B SHR EXTCALL DUP4 TIMESTAMP 0xD9 0xBF SWAP10 ADDRESS 0xB8 SWAP9 0xD7 0xAF PUSH5 0x736F6C6343 STOP ADDMOD 0x1E STOP CALLER "
				},
				"gasEstimates": {
					"creation": {
						"codeDepositCost": "807800",
						"executionCost": "infinite",
						"totalCost": "infinite"
					},
					"external": {
						"deposit()": "infinite",
						"getBalance()": "2519",
						"getBalance(address)": "infinite",
						"getDeposits()": "2649",
						"getDeposits(address)": "infinite",
						"getWithdrawals()": "2627",
						"getWithdrawals(address)": "infinite",
						"s_bankCap()": "infinite",
						"s_owner()": "infinite",
						"s_withdrawLimit()": "infinite",
						"withdraw(uint256)": "infinite"
					},
					"internal": {
						"transferFunds(uint256)": "infinite"
					}
				},
				"methodIdentifiers": {
					"deposit()": "d0e30db0",
					"getBalance()": "12065fe0",
					"getBalance(address)": "f8b2cb4f",
					"getDeposits()": "6b149d87",
					"getDeposits(address)": "94f649dd",
					"getWithdrawals()": "50d6c1e8",
					"getWithdrawals(address)": "3a2b643a",
					"s_bankCap()": "80ef10ed",
					"s_owner()": "e3978240",
					"s_withdrawLimit()": "7f86ee43",
					"withdraw(uint256)": "2e1a7d4d"
				}
			},
			"storageLayout": {
				"storage": [
					{
						"astId": 10,
						"contract": "contracts/KipuBank.sol:KipuBank",
						"label": "s_balances",
						"offset": 0,
						"slot": "0",
						"type": "t_mapping(t_address,t_uint256)"
					},
					{
						"astId": 15,
						"contract": "contracts/KipuBank.sol:KipuBank",
						"label": "s_deposits",
						"offset": 0,
						"slot": "1",
						"type": "t_mapping(t_address,t_uint32)"
					},
					{
						"astId": 20,
						"contract": "contracts/KipuBank.sol:KipuBank",
						"label": "s_withdrawals",
						"offset": 0,
						"slot": "2",
						"type": "t_mapping(t_address,t_uint32)"
					}
				],
				"types": {
					"t_address": {
						"encoding": "inplace",
						"label": "address",
						"numberOfBytes": "20"
					},
					"t_mapping(t_address,t_uint256)": {
						"encoding": "mapping",
						"key": "t_address",
						"label": "mapping(address => uint256)",
						"numberOfBytes": "32",
						"value": "t_uint256"
					},
					"t_mapping(t_address,t_uint32)": {
						"encoding": "mapping",
						"key": "t_address",
						"label": "mapping(address => uint32)",
						"numberOfBytes": "32",
						"value": "t_uint32"
					},
					"t_uint256": {
						"encoding": "inplace",
						"label": "uint256",
						"numberOfBytes": "32"
					},
					"t_uint32": {
						"encoding": "inplace",
						"label": "uint32",
						"numberOfBytes": "4"
					}
				}
			},
			"userdoc": {
				"errors": {
					"DepositNotAllowed(address,uint256)": [
						{
							"notice": "Error emitido cuando se intenta depositar una cantidad inválida (=0, o la cuenta superaría el bankCap)"
						}
					],
					"ExtractionNotAllowed(address,uint256)": [
						{
							"notice": "Error emitido cuando se intenta extraer una cantidad inválda (<=0, >=saldo, >límite)"
						}
					],
					"ExtractionReverted(address,uint256,bytes)": [
						{
							"notice": "Error emitido cuando falla una extracción"
						}
					],
					"NotAnAuditor(address)": [
						{
							"notice": "Error emitido al querer auditar y no tener el permiso"
						}
					]
				},
				"events": {
					"DepositRequest(address,uint256)": {
						"notice": "Evento emitido al intentar depositar"
					},
					"Deposited(address,uint256)": {
						"notice": "Evento emitido al depositar exitosamente"
					},
					"Extracted(address,uint256)": {
						"notice": "Evento emitido al extraer exitosamente"
					},
					"ExtractionRequest(address,uint256)": {
						"notice": "Evento emitido al intentar extraer"
					}
				},
				"kind": "user",
				"methods": {
					"deposit()": {
						"notice": "Función para hacer un depósitoSólo se puede depositar un valor mayor a 0, siempre que no se supere el bankCap"
					},
					"getBalance()": {
						"notice": "Función pública para ver el balance que uno mismo tiene"
					},
					"getBalance(address)": {
						"notice": "Función pública para ver el balance que algún usuario tiene"
					},
					"getDeposits()": {
						"notice": "Función pública para ver la cantidad de depósitos que uno hizo"
					},
					"getDeposits(address)": {
						"notice": "Función pública para ver la cantidad de depósitos que algún usuario hizo"
					},
					"getWithdrawals()": {
						"notice": "Función pública para ver la cantidad de extracciones que uno hizo"
					},
					"getWithdrawals(address)": {
						"notice": "Función pública para ver la cantidad de extracciones que algún usuario hizo"
					},
					"s_bankCap()": {
						"notice": "Límite de balance por cuenta"
					},
					"s_owner()": {
						"notice": "Dueño del contrato, auditor del mismo"
					},
					"s_withdrawLimit()": {
						"notice": "Límite de extracción por cuenta"
					},
					"withdraw(uint256)": {
						"notice": "Función para hacer un depósito"
					}
				},
				"notice": "Contrato para el TP Final del Módulo 2 del curso de EthKipuEs una simulación de banco con depósitos y extracción, auditable por el dueño del contrato",
				"version": 1
			}
		}
	}
}